S01E00006164635F7064625F747269676765725F7333326B3134782E6D6F74D4
S1130000007000206D040000C9040000C904000051
S1130010C9040000C9040000C90400000000000075
S1130020000000000000000000000000C9040000FF
S1130030C904000000000000C90400003961000088
S11300406D380000793800008538000091380000D0
S11300509D380000A9380000B5380000C138000000
S1130060CD380000D9380000E5380000F138000030
S1130070FD3800000939000015390000213900005D
S11300802D390000C9040000C9040000C90400009F
S1130090C9040000C9040000C9040000C904000028
S11300A0C9040000C9040000C9040000C904000018
S11300B0C9040000C9040000C9040000C904000008
S11300C0C9040000C9040000C9040000C9040000F8
S11300D0C9040000C9040000C904000061600000F4
S11300E06D600000C9040000C9040000C9040000D8
S11300F0C9040000C9040000C9040000C9040000C8
S113010079600000C9040000C9040000C9040000AB
S1130110C9040000C9040000C9040000C9040000A7
S1130120C9040000C9040000C9040000C904000097
S1130130C9040000C9040000C9040000C904000087
S1130140C9040000C9040000C9040000C904000077
S11303F0C9040000C9040000C9040000FFFFFFFF96
S1130400FFFFFFFFFFFFFFFFFFFFFFFFFE7FFFFF79
S113041010B5054C237833B9044B13B10448AFF33A
S113042000800123237010BD0000002000000000A4
S113043068870000084B10B51BB108480849AFF3A2
S113044000800848036803B910BD074B002BFBD09C
S1130450BDE81040184700BF000000006887000096
S113046004000020F888FF1F0000000072B6104945
S11304700F4A0F4B0E4C0E4D0D4E0D4FB846B9465C
S1130480BA46BB46BC460B490B4A521A013A05DD33
S11304900020042308601944043AFBDA074885461F
S11304A0074880470748804762B605F02FFEFEE7FD
S11304B0000000000080FF1F00700020007000207A
S11304C02974000051730000FFF7FEBF002303707E
S11304D00C2242708370C370037143718371C371C2
S11304E0037243728372704770B584B006460D463A
S11304F05D4B53F820401B89ADF80C300023029368
S113050004AB034413F8040C02A902F027FB2B7874
S1130510029ADA400292226C22F060025B0103F03C
S11305206003134323646A78002A08BF0122636CC2
S113053023F0FF0313436364236C23F00C02AB78B2
S11305409B0003F00C0313432364236C23F0030286
S1130550EB7803F0030313432364D4F8903023F0BF
S113056040022B799B0103F040031343C4F89030FD
S11305706B79302200924FF4405201923B4A9269C7
S113058004A901EB860151F8101C22EA010116B1FD
S1130590012E0ED018E01A0102F0300241EA0203E3
S11305A032498B61AA79012300938B6923F00103FB
S11305B01EE01B0303F440530B432C498B61AA79BF
S11305C08B6923F4807317E0284B9961AA79012180
S11305D000914FF4807101919B6904A901EB86019C
S11305E051F8101C23EA010316B1012E08D103E0CF
S11305F002F00102134303E0120202F48072134377
S11306001A4A9361D4F8903023F00403EA79002A5B
S113061014BF042200221343C4F89030D4F890305D
S113062023F003022B7A03F003031343C4F890303E
S1130630D4F8943023F008036A7A002A14BF0822FD
S113064000221343C4F8943066B9AB7A2BB1074A3D
S1130650536843F40023536004E0044A536823F4CA
S11306600023536004B070BDC884000000800440BF
S113067030B484B0374B53F820301A6CC2F34112B3
S11306800A705A6C4A701A6CC2F38102012A04D0AF
S1130690022A0CBF0222002200E001228A701A6C96
S11306A002F00302CA70D3F89020C2F380120A71D8
S11306B000220292012200924FF4807201920822D9
S11306C00392254A956904AA02EB800454F8102C7D
S11306D02A4054F8084CE240012A14BF00220122A7
S11306E08A71302200924FF4405201920422029205
S11306F00C220392184A956904AA02EB800454F868
S1130700102C2A4054F8084CE240012A04D0022A52
S11307100CBF0222002200E001224A71D3F890208B
S1130720C2F38002CA71D3F8902002F003020A7265
S1130730D3F89430C3F3C0034B7228B9064B5B68FB
S1130740C3F3C0438B7201E000238B7204B030BC4E
S1130750704700BFC8840000008004400023037079
S1130760437083708380C380704700BF164B53F877
S11307702030D3F8902022F020020878002814BFFB
S1130780202000200243C3F89020D3F8902022F0C8
S113079010024878002814BF102000200243C3F838
S11307A09020D3F8902022F008028878002814BF03
S11307B0082000200243C3F890208A88C3F88820C8
S11307C0CA88C3F88C207047C88400000C4B53F8C7
S11307D02030D3F89020C2F340120A70D3F890204E
S11307E0C2F300124A70D3F89020C2F3C0028A7098
S11307F0D3F888208A80D3F88C30CB80704700BF30
S1130800C884000000230370437070470C4B53F8F6
S11308102000D0F8943023F004030A78002A14BF8F
S1130820042200221343C0F89430D0F8943023F00B
S113083003024B7803F003031343C0F8943070476A
S1130840C8840000064B53F82020D2F89430C3F338
S113085080030B70D2F8943003F003034B7070479D
S1130860C8840000002303701F234380704700BF27
S113087030B4134B53F8204053881578A3F57062B5
S113088092B2052A0BD80F4A506820F4E020506039
S113089050681B0403F4E02303435360152354F806
S11308A0210003F01F0220F05F031343002D14BF47
S11308B040220022134344F8213030BC704700BF6B
S11308C0C8840000008004400D4B53F8200050F809
S11308D02130C3F38013137050F8213003F01F0349
S11308E008494968152B08D111F4002F05D0054B90
S11308F05B68C3F3024303F570635380704700BF22
S1130900C88400000080044082B00E2300934FF49A
S1130910606301930C4B9B6902AA02EB800252F8BC
S1130920082C23EA020310B1012805D008E049008D
S113093001F00E010B4303E0490201F460610B4333
S1130940014A936102B070470080044030B583B01F
S11309500446224B53F8202000231F2142F8231081
S11309600133102BFAD1002111640C235364C2F813
S11309708810C2F88C10C2F89010C2F89410C2F813
S1130980A0100423C2F8B030302300934FF4405336
S11309900193134B9A6902A800EB840050F8085C99
S11309A022EA05029A61012200924FF480720192B8
S11309B09A6950F8080C22EA00029A612046FFF76F
S11309C0A3FF44B9064B5A6822F400225A605A68BD
S11309D022F4E0225A6003B030BD00BFC884000096
S11309E000800440044B53F82020D2F8903013F0D8
S11309F0800FFAD1704700BFC8840000034B53F83E
S1130A00203053F82100C0F3C0107047C8840000A0
S1130A10044B53F82030123153F82130C3F30B0345
S1130A2013807047C88400002DE9F04383B04B4A1B
S1130A3052F82040D4F89430C3F38009D4F89430A9
S1130A4003F00308D4F89070C7F38017656CEDB217
S1130A50D4F8943043F00303C4F89430D4F89430B9
S1130A6043F00403C4F89430D4F8903023F04003E6
S1130A70C4F89030636C23F0FF0343F00C03636409
S1130A800023C4F8B430C4F8B830C4F8BC30C4F897
S1130A90C030C4F8C430C4F8C830C4F8CC301289AB
S1130AA0ADF804200093266C06F0600602AB1844EF
S1130AB010F8040C694602F051F8009B760923FAF9
S1130AC006F1274A914214D9264A934208D9264A64
S1130AD0934207D9254A934294BF0323002302E09B
S1130AE0012300E00223226C22F0600242EA431355
S1130AF02364D4F8943043F08003C4F89430D4F8D9
S1130B00943013F0800FFAD1236C23F0600343EA8E
S1130B1046162664D4F8943023F0040343EA890388
S1130B20C4F89430D4F8943023F0030348EA030360
S1130B30C4F89430D4F8903023F04003FFB243EA71
S1130B408713C4F89030002D08BF0125636C23F08F
S1130B50FF031D43656403B0BDE8F083C88400004F
S1130B6040787D0181F0FA0203E1F50507C2EB0B41
S1130B700423038000234380704700BFF0B4114B6B
S1130B8053F820300F88D3F8C420D3F8C000D3F82A
S1130B90BC60D3F8B850D3F8B440C3F8B070104474
S1130BA03A1832442A44224412F4784F14BF4FF0C6
S1130BB0FF32002292B2C3F8AC208A78C3F8A02096
S1130BC0F0BC7047C8840000064B53F82020D2F8CC
S1130BD0B030C3F309030B80D2F8A030DBB24B80F2
S1130BE0704700BFC8840000024B184490F90C0001
S1130BF0704700BFC8840000074B53F82020012928
S1130C0003D1136C43F480731364D2F8903013F45B
S1130C10702FFAD1704700BFC8840000044B53F80A
S1130C202020D2F8903043F07063C2F890307047BF
S1130C30C8840000034B53F82030D3F89000C0F36D
S1130C4003607047C8840000034A00231370537084
S1130C50024A1372704700BFA405002098050020C3
S1130C60034A002313705370024A1372704700BF83
S1130C70A4050020980500202DE9F04186B0002449
S1130C808DF800400C23ADF80230204621466A4618
S1130C90FFF7EEFD8DF800400623ADF80230204644
S1130CA001216A46FFF7E4FD1D4BB3F86050AD0027
S1130CB005F1804505F5CA252B6843F080432B6078
S1130CC0029403940594DFF86080CDF8008010232B
S1130CD0019301268DF80B608DF80E60114F049777
S1130CE08DF814603046694605F006FD2B6843F024
S1130CF080432B60029403940594CDF800800F2365
S1130D0001938DF80B608DF80E6004978DF81460D4
S1130D103046694605F0F0FC06B0BDE8F08100BF3E
S1130D20E4850000C0F00F4000C0044010B582B05C
S1130D300020FFF757FE002001460DF10602FFF7E1
S1130D4067FE214CBDF8063023600020FFF74AFE01
S1130D50002001210DF10602FFF75AFEBDF806300E
S1130D6063601A4B1B782BB9184A01231370537014
S1130D70237214E0154B5B78012B0BD10022124B2C
S1130D801A720222114B5A7011484FF4803105F047
S1130D9055FD09E001230D4A53700B4A13720C48A8
S1130DA04FF4803105F048FD074B1B7A2BB10848FE
S1130DB04FF4004105F040FD04E005484FF40041C4
S1130DC005F03CFD02B010BD98050020A4050020EC
S1130DD0C0F00F4008B5124B1968124A11605A68E6
S1130DE0114B1A60114B586806F0CAFC0AA3D3E9E8
S1130DF0002306F03BFD08A3D3E9002306F0A8FF77
S1130E0010B1002005F0CEFA084A5368013353604C
S1130E1008BD00BFAFF300809A9999999999B93F99
S1130E2098050020A805002094050020B80500209E
S1130E30F0B587B0584B00241C605C60574A1346D9
S1130E4043F8044B54605C60554B1C705C70554B0C
S1130E501C60554B1C60554A134643F8044B5460C0
S1130E605C60534A03AB1068516803C31189927ADA
S1130E7019809A708DF804408DF805408DF806406D
S1130E80ADF80840ADF80A408DF800408DF80140F7
S1130E90484DB5F882108B0003F1804303F5CA2353
S1130EA01A6822F080421A60434E4FF08C4746F88D
S1130EB021701A6842F080421A602046FFF746FD0E
S1130EC0204603A9FFF710FB20462146FFF71CFD2F
S1130ED0204601A9FFF74AFC20466946FFF796FC25
S1130EE0B5F86E3046F823709B0003F1804303F598
S1130EF0CA231A6842F080421A6020462F4905F03E
S1130F00E5F920464FF4966105F082FA204605F093
S1130F1035FA204621462A4A05F092FA204621460F
S1130F202246782305F0DEFA20462146254A05F0BC
S1130F3087FA204621460122F02305F0D3FA204601
S1130F4005F05CFAFFF798FE20464FF4966105F031
S1130F506BFA204605F052FA1B4A136823F4003357
S1130F6023F0200343F02003136034201749224662
S1130F7003F09CFB34200E2103F0DEFB342003F04D
S1130F80ADFB02F07FFD02F0CDFD02F0DBFDFFF7CB
S1130F905BFE07B0F0BD00BFB80500209805002037
S1130FA0A4050020A805002094050020AC0500201D
S1130FB0D8840000E485000000500640BC84FF1F74
S1130FC0B484FF1FAC84FF1F0060034079620000FB
S1130FD0704700BF074B5B69DBB2042B06D0802B44
S1130FE006D0012B0CBF012004207047022070475B
S1130FF00320704700E00740044BD3F8003113F09E
S1131000807F1ABF024B18680020704700400640DA
S1131010C005002010B584B00B46A1B900238DF89B
S113102004308DF80C3001228DF808208DF8092049
S11310308DF805208DF8063002238DF8073004ABB7
S11310403A4A43F8102D3A4AD2F8002112F0007FB0
S113105067D1374AD2F8001121F40001C2F8001117
S11310604FF08061C2F800110021324A116000285B
S113107059D05A7A120202F4E0611A7A02F0070295
S11310800A432B48C0F804219979C90001F00801EA
S1131090DA79120102F0300211435A79920002F017
S11310A004020A43C0F808211A79012A0FD012B1A8
S11310B0022A18D023E01A7B002A14BF4FF400023E
S11310C0002242F001021A49C1F8002117E01A7BFC
S11310D0002A14BF4FF40002002242F00112144906
S11310E0C1F800210BE01A7B002A14BF4FF403025D
S11310F04FF4403242F001020D49C1F800211A6850
S11311000C4B1A600C4C00E0013CFFF775FF18B95A
S1131110002CF9D1032007E0002C14BF0020032089
S113112002E0022000E0002004B010BD00127A00AA
S113113000400640C005002088E73000084BD3F883
S1131140003213F0807F09D0054BD3F8083203F046
S11311500103002B034808BF00207047002070479C
S11311600040064000127A0010B582B00B4671B9F7
S113117000238DF8043001228DF805208DF8063007
S11311808DF801208DF8022002AB03F8082D254AC2
S1131190D2F8002212F0007F3FD1224AD2F8001286
S11311A021F40001C2F800120021C2F80012002844
S11311B035D09A78120202F4E0615A7802F00702FC
S11311C00A431849C1F804221A7802F00102C1F84E
S11311D008225A7999791B79002B14BF0323012320
S11311E0002A14BF042200221A43002914BF4FF41A
S11311F00003002313430B4AC2F80032642400E0C6
S1131200013CFFF79BFF18B9002CF9D1032007E03C
S1131210002C14BF0020032002E0022000E0002084
S113122002B010BD00400640054BD3F8003313F064
S1131230807F1DBF024BD3F808330248002070475B
S113124000400640006CDC0210B582B00B4661B968
S113125001238DF8053000228DF806208DF8013029
S11312608DF8023002AB03F8082D224AD2F800238D
S113127012F0007F38D11F4AD2F8001321F4000184
S1131280C2F800134FF08061C2F8001370B39A786B
S1131290120202F4E0615A7802F007020A43154987
S11312A0C1F804231A7802F00302C1F808239A79DA
S11312B05B79002B14BF01230923002A14BF4FF4C8
S11312C0000200221343C1F80033142400E0013C5F
S11312D0FFF7AAFF18B9002CF9D1032007E0002C6E
S11312E014BF0020032002E0022000E0002002B02E
S11312F010BD00BF0040064008B50F4BD3F80036C0
S113130013F0807F14D0FFF777FE034688B10A49B3
S1131310D1F80826C2F302220132B0FBF2F3D1F86D
S11313200826C2F30442103202FB03F35B0800E018
S11313300023184608BD00BF0040064010B584B025
S11313400C4689B900238DF804308DF80B30012246
S11313508DF808208DF809208DF8053007228DF8C6
S113136006208DF8073001AC354BD3F8003613F066
S1131370007F5FD1324BD3F8002622F40002C3F879
S113138000264FF08062C3F80026002854D0FFF7EF
S113139033FE63791B0203F4E062237903F007034D
S11313A013432749C1F80436A3781B0403F4F81245
S11313B063781B0203F4E0631343C1F8083623780F
S11313C0012B11D013B1022B1AD00AE0E379002BC0
S11313D014BF4FF40003002343F00103184AC2F87A
S11313E000364FF47A7419E0E379002B14BF4FF4FC
S11313F00003002343F00113114AC2F80036F0E75A
S1131400E379002B14BF4FF403034FF4403343F04C
S113141001030B4AC2F80036E3E7013CFFF76CFF17
S113142018B9002CF9D1032007E0002C14BF0020C8
S1131430032002E0022000E0002004B010BD00BF41
S1131440004006402DE9F04107460D468C780134F2
S11314504E7806FB04460B7803FB0448CB78013B2B
S1131460052B10D8DFE803F00306090F0F0CFFF774
S1131470C3FD09E0FFF762FE06E0FFF7D5FE03E0D7
S1131480FFF73AFF00E000200009022F3BD0032FB2
S11314906ED0012F40F0A480EA7802EB42015F4B4A
S11314A053F821301B0903FB04F4A04200F29B8093
S11314B00B465A4901EB83035B681B0903FB06F6E1
S11314C0B04200F2938002EB420301EB83039B687A
S11314D01B0903FB08F3984200F28B80120602F00A
S11314E07062AB781B0403F470231A432B7803F067
S11314F00F031A436B781B01DBB21343484A536151
S11315000020BDE8F081EA7802EB4201434B03EB93
S113151081035B6D1B0903FB04F4A0426CD80B46EA
S11315203E4901EB83039B6D1B0903FB06F6B042A6
S113153065D802EB420301EB8303DB6D1B0903FB5C
S113154008F398425ED8120602F07062AB781B046E
S113155003F470231A432B7803F00F031A436B78B8
S11315601B01DBB213432E4A93610020BDE8F081D6
S1131570EA7802EB4201294B03EB8103D3F8A8304C
S11315801B0903FB04F4A0423FD80B46234901EB9B
S11315908303D3F8AC301B0903FB06F6B04237D8FB
S11315A002EB420301EB8303D3F8B0301B0903FBC6
S11315B008F398422FD8120602F07062AB781B042D
S11315C003F470231A432B7803F00F031A436B7848
S11315D01B01DBB21343124AD3610020BDE8F08142
S11315E00020BDE8F0810120BDE8F0810120BDE8C4
S11315F0F0810120BDE8F0810120BDE8F0810120E7
S1131600BDE8F0810120BDE8F0810120BDE8F08152
S11316100120BDE8F0810120BDE8F081E8840000EC
S11316200040064038B50546FFF7D4FC2946FFF7CD
S113163009FF044678B9E8780A220849013A0B6997
S1131640C3F30363984203D0002AF7D1032402E0D2
S1131650002A08BF0324204638BD00BF00400640CE
S113166010B504461B4B1B69C3F30363013B052BF5
S113167010D8DFE803F00306090F0F0CFFF7BCFCDA
S113168009E0FFF75BFD06E0FFF7CEFD03E0FFF79F
S113169033FE00E000200F4B1B69C3F30343013307
S11316A0B0FBF3F0012C04D094B1022C09D000203B
S11316B010BD084B1B69C3F303130133B0FBF3F0F4
S11316C010BD044B1B6903F00F030133B0FBF3F0AF
S11316D010BD00BF0040064008B50F4B1B6AC3F3A2
S11316E00363062B15D8DFE803F004080B0E14146B
S11316F011000220FFF7B4FF08BDFFF77DFC08BD11
S1131700FFF71CFD08BDFFF78FFD08BDFFF7F4FDD3
S113171008BD002008BD00BF0040064008B511B157
S1131720012927D04DE0043803284DD8DFE800F024
S11317300A02121AFFF778FD294BD3F8043303F099
S1131740070346E0FFF7FAFC254BD3F8043203F015
S113175007033EE0FFF750FC214BD3F8043103F0BC
S1131760070336E0FFF7C8FD1D4BD3F8043603F03A
S113177007032EE00438032829D8DFE800F00A0222
S1131780121AFFF751FD164BD3F80433C3F30223A7
S11317901FE0FFF7D3FC124BD3F80432C3F3022348
S11317A017E0FFF729FC0E4BD3F80431C3F30223EF
S11317B00FE0FFF7A1FD0A4BD3F80436C3F302236D
S11317C007E00023184604E00023184601E0002344
S11317D0184613B1013BD84008BD002008BD00BF26
S11317E00040064008B5114B1B69C3F30113032BDA
S11317F01AD8DFE803F00207111406200021FFF7CE
S11318008DFF08BD094B1B69C3F34003002B14BFB4
S11318104FF4FA40002008BD054B186808BD0520A8
S11318200021FFF77BFF08BD002008BD00800440B5
S1131830C405002038B51E4B03EB4000B0F8FC3063
S11318409B0003F1804303F5CA231868C0F3C00565
S11318501C6804F00704A54225D81A6812F0804FCA
S113186023D01B68C3F30263013B052B14D8DFE8C4
S113187003F003070B13130F0620FFF74FFF0CE0D1
S11318800420FFF74BFF08E00520FFF747FF04E0C3
S11318900720FFF743FF00E000200134B0FBF4F021
S11318A005FB000038BD002038BD002038BD00BF56
S11318B0E8840000104B1B69C3F38103022B07D09B
S11318C0032B0FD0002B0CBF4FF4FA3000207047CD
S11318D0094B1B69C3F34003002B14BF4FF4FA40B8
S11318E000207047044B1B69C3F34003002B14BF53
S11318F04FF4FA40002070470080044008B5244BA0
S11319005B6813F4006F40D0214B5B68C3F303138F
S11319100E2B09D8DFE803F00A080D081208171C7B
S113192020252F0829082C00002026E0FFF7D4FEEC
S113193023E006200121FFF7F1FE1EE0042001212F
S1131940FFF7ECFE19E005200121FFF7E7FE14E0A4
S11319500020FFF785FE10E007200121FFF7DEFEDF
S11319600BE00120FFF77CFE07E0FFF7A3FF04E094
S1131970FFF738FF01E04FF4FA30054B5B68C3F31F
S113198002230133B0FBF3F008BD002008BD00BF03
S11319900080044030B583B00546FFF7ADFC88B144
S11319A0062D51D006238DF8073002238DF806301A
S11319B001238DF8053002A800F8043DFFF732FE3C
S11319C0044600E00124FFF72FFC88B1032D40D02A
S11319D074B103238DF8073000228DF8062001220C
S11319E08DF8052002A800F8043DFFF71BFE04460D
S11319F0FFF702FB90B1012D01D12FE001246CB15E
S1131A0001238DF8073000228DF806208DF805306B
S1131A1002A800F8043DFFF705FE0446FFF78EFB1D
S1131A2058B3022D29D044B302238DF80730002384
S1131A308DF806308DF8053002A8012300F8043D26
S1131A40FFF7F0FD044618E0FFF7EEFB0028C0D1D5
S1131A5009E0FFF7D1FA0028D1D10AE0FFF76EFBC5
S1131A600028E0D109E0FFF7C7FA0028C6D1012415
S1131A70D4E7FFF763FB0028D5D1204603B030BD7F
S1131A80174B1B69C3F30363013B052B0FD8DFE836
S1131A9003F00306090E0E0C0123C37007E00223B2
S1131AA0C37004E00323C37001E00623C3700C4B2E
S1131AB01A690C49C2F303120A4492F89C21427039
S1131AC01A69C2F303420A4492F89C2182701B698A
S1131AD003F00F030B4493F89C310370704700BF6D
S1131AE000400640E884000001383F282DD8DFE894
S1131AF000F02A282C262C2C2C242C2C2C2C2C2C9E
S1131B002C222C2C2C2C2C2C2C2C2C2C2C2C2C2C1B
S1131B102C202C2C2C2C2C2C2C2C2C2C2C2C2C2C0D
S1131B202C2C2C2C2C2C2C2C2C2C2C2C2C2C2C2CF1
S1131B302C2E062070470520704704207047032090
S1131B40704702207047012070470020704707202B
S1131B50704700BFF0B5A1B00446002840F09D8056
S1131B6001238DF80B3000228DF80C208DF80D30F8
S1131B708DF80E208DF808308DF809308DF80A3074
S1131B808DF816308DF814308DF815208DF80F204F
S1131B908DF810308DF811308DF838300D928DF8A5
S1131BA02530924906918DF81C208DF824208DF85B
S1131BB01D308DF81E2002208DF81F008DF8203076
S1131BC08DF821308DF830308DF828208DF82F20B5
S1131BD08DF829200C218DF82A108DF82B208DF8F2
S1131BE02C308DF82D308DF83D3003218DF83C10CC
S1131BF08DF84B308DF841108DF840208DF83F3032
S1131C008DF83E308DF845008DF844308DF8432032
S1131C108DF8421006208DF849008DF848208DF883
S1131C2047308DF8461072491E9120211D918DF880
S1131C304C308DF84D208DF84E208DF84F208DF8C6
S1131C4050308DF854308DF853308DF852208DF883
S1131C5051208DF868308DF869308DF86A308DF830
S1131C606B308DF86C308DF86D308DF873308DF8E5
S1131C7058301792189219928DF86E308DF86F3093
S1131C808DF870208DF871208DF872208DF87C30DD
S1131C908DF87D308DF87E2002AC2646002C00F0B5
S1131CA0F580544B1B69C3F30363032B1CD0FFF76C
S1131CB0BBFA38B901200021FFF7C6FA054600280F
S1131CC040F0018203238DF8073000228DF80620AE
S1131CD001228DF8052020A800F87C3DFFF7A2FC26
S1131CE00546002840F0EF81E0783146FFF73CFAE2
S1131CF00546002840F0C481607F04F11001FFF71D
S1131D0089F90546002840F0BB8194F8280004F1C5
S1131D102001FFF713FB0546FFF75CF9022806D004
S1131D20032807D0012808D104F1360606E004F19F
S1131D303A0603E004F13E0600E00026002D70D1CF
S1131D40F378032B58D194F82830002B00F0A481A9
S1131D5006238DF8073002238DF8063001238DF811
S1131D60053020A800F87C3DFFF75CFC0546637F46
S1131D707BB1012820D101238DF8073000228DF892
S1131D8006208DF8053020A800F87C3DFFF74AFCBA
S1131D900546E37883B1012D0ED102238DF8073077
S1131DA000238DF806308DF8053020A8012300F8B3
S1131DB07C3DFFF737FC0546002D32D1A07BE11DA9
S1131DC0FFF742FA054660BBF3788DF80730B37825
S1131DD08DF8063073788DF80530337820A800F834
S1131DE07C3DFFF71FFC05461BE000BF00127A0094
S1131DF00084FF1F004006408DF80730B3788DF84B
S1131E00063073788DF80530337820A800F87C3DCF
S1131E10FFF708FC054620B9A07BE11DFFF714FA83
S1131E200546002D40F04F8194F8303013B1E26A3A
S1131E30A64B1A6094F8353053B1A5490B6A23F0C8
S1131E40706294F834301B0603F0706313430B6222
S1131E5094F84330D3B1012004F13601FFF7F2FACC
S1131E600546002840F02F81022004F13A01FFF7D3
S1131E70E9FA0546002840F02681032004F13E01DA
S1131E80FFF7E0FA0546002840F01D8114F16C0FBD
S1131E903AD0236F002B37D0E36E002B34D00021CF
S1131EA08C488D4D01EB8102236F9B5C00EB430357
S1131EB0B3F8FC309B0003F1804303F5CA231E688A
S1131EC026F080461E60236F9E189F5CB3781B0625
S1131ED003F0E062F378DB0003F008031343327984
S1131EE002F0070213437278002A14BF4FF08042B5
S1131EF00022134300EB4707B7F8FC2045F82230D3
S1131F000131E36E9942CDD394F84430C3B194F8CF
S1131F10460094F84720714B5B6823F47F6194F882
S1131F204530002B14BF4FF4006500250301DBB2DC
S1131F30120202F4E06213430B432B43674A5360DB
S1131F4094F84830DBB194F84A1094F84920634B74
S1131F501B6923F03F0394F84C00034394F84B00AF
S1131F60002814BF02200020890001F00C010B435B
S1131F70120102F0300213430343584A136194F8E8
S1131F806030002B00F09A80544A136C23F0010354
S1131F9094F861100B431364136C23F0020394F858
S1131FA06220002A14BF0222002213434B4A136406
S1131FB0136C23F0040394F86320002A14BF042252
S1131FC000221343454A1364136C23F0080394F866
S1131FD06420002A14BF0822002213433F4A1364DA
S1131FE0136C23F0100394F86520002A14BF102208
S1131FF000221343394A136460E094F86630EBB16D
S1132000364B9A6E002098665A6822F4805194F8F0
S11320106820120302F480520A435A60986694F8C6
S113202067305BB194F86A3043F0805294F86930B9
S11320305B0003F00E031343284A936694F874304C
S1132040E3B127498B7803F07F0294F8753083F06D
S1132050010342EAC313DBB28B7094F8763013F0B9
S1132060800F1CBF2033DBB21D490A7903F01F0324
S113207002F0E00213430B71002524E0002522E066
S1132080FEF7A8FF02283FF452AE03283FF452AEF5
S113209001287FF4C6AE47E6637F002B7FF46BAE66
S11320A0E378002B7FF479AE012585E60D4B626D54
S11320B01A60A26D5A60E26D9A609EE794F85030FF
S11320C0002BF3D199E7284621B0F0BDC4050020C8
S11320D000400640E88400000050064000800440B0
S11320E000D00740C805002070B504460D461128ED
S11320F07FD8112876D8DFE800F0090F151B2025BA
S11321002A2F34383D444B525960676E0020FFF744
S1132110A7FA0346002067E00120FFF7A1FA03466F
S1132120002061E00220FFF79BFA034600205BE0F9
S1132130FFF7E4FB0346002056E0FEF7FFFF0346EB
S1132140002051E0FFF770F8034600204CE0FEF752
S113215053FF0346002047E0FFF7CEF80346002074
S113216042E0A74B1B6800203EE0FFF7B5FA0346A8
S1132170002039E004200021FFF7D0FA03460020B4
S113218032E004200121FFF7C9FA034600202BE0C6
S113219005200021FFF7C2FA0346002024E00520B1
S11321A00121FFF7BBFA034600201DE006200021B1
S11321B0FFF7B4FA0346002016E006200121FFF7DA
S11321C0ADFA034600200FE007200021FFF7A6FA2E
S11321D00346002008E007200121FFF79FFA034689
S11321E0002001E000230420002D00F056812B6024
S11321F070BD232800F2D180A0F115040E2C00F24A
S11322009680DFE804F008141F2A34393E47535FF0
S1132210677079828B007B4BDB68C3F30163022B0D
S113222000F28880784A52F823300020B0E0754BE1
S1132230DB68C3F38163022B7FD8734A52F82330DF
S11322400020A5E06F4BDB68C3F30173022B77D842
S11322506D4A52F8233000209AE06A4BDB689B0FEA
S1132260022B70D8684A52F82330002090E0FFF720
S113227045FB034600208BE0FFF7B4FA0346002039
S113228086E0624B9B78DB0960D1FFF713FB0346C2
S113229000207DE05D4B9B78DB095AD1594B1B69CB
S11322A013F0010F58D10023184671E0574B9B7867
S11322B0DB0955D1534B1B6913F0020F53D1002393
S11322C0184665E0514B9B78DB0950D14FF4FA3343
S11322D000205DE04B4B1B6C13F0100F4AD1002320
S11322E04FF4807054E0474B1B6C13F0080F44D13B
S11322F000234FF480704BE0424B1B6C13F0040F2F
S11323003ED100234FF4807042E03E4B1B6C13F02F
S1132310020F38D100234FF4807039E0394B1B6C25
S113232013F0010F32D100234FF4807030E000230A
S113233004202DE0002318462AE00023184627E055
S11323400023184624E00023184621E00023184601
S11323501EE0002318461BE04FF47A73002017E0B8
S11323600023184614E04FF4FA43002010E0002341
S113237018460DE0002318460AE00023184607E03B
S11323800023184604E00023184601E00023184601
S1132390002D00F082802B6070BD4D2854D8242875
S11323A054D900F0F703332B52D0392852D04028A7
S11323B052D04D2852D0164B03EB4003B3F8FC2007
S11323C0144B53F8223013F0804F49D04CE00120D5
S11323D0FFF746F9002855D04EE016F0400F05D01F
S11323E00020FFF73DF900284CD045E016F0800F9F
S11323F042D00220FFF734F9002843D03CE000BF6C
S1132400C405002000800440C805002000D0074017
S1132410E88400000050064016F0080F36D020462D
S11324200021FFF707FA034616F0100F04D02046E8
S11324300121FFF7FFF90346002B14BF00204FF4DE
S1132440807055B32B6070BD042070BD042009E07A
S1132450042007E0042005E0042003E0042001E058
S11324604FF480700023ECE70C4B034493F8AC6109
S113247016F0200FB1D0AAE716F0180FCCD1002324
S11324801846DEE700234FF48070DAE716F0100FE9
S1132490CDD100234FF48070D3E770BDE8840000F1
S11324A070B582B004460846F9B901238DF80030AE
S11324B0FEF744FE60B9FEF7B7FE58B9FEF71CFFFD
S11324C050B9FEF799FD002814BF06234F2304E0FA
S11324D0042302E0052300E007238DF801300123E3
S11324E0ADF80230ADF804306846484B234493F805
S11324F0AC3113F0010F47D113F0180F0FD042780D
S1132500043A032A0DD8DFE802F002040608022682
S113251008E0032606E0012604E0062602E0002681
S113252000E0002613F0040F1ABF818801F1FF3187
S1132530002113F0020F1ABF428802F1FF32002279
S1132540324B03EB4403B3F8FC309B0003F18043AC
S113255003F5CA231D6825F080451D600378002B10
S113256051D0360646F0804601F007013143D200CF
S113257002F008020A43254B03EB4404B4F8FC10B0
S1132580234B43F821203EE003781F3C042C3AD827
S1132590DFE804F02E22160A03001E490A6C22F01A
S11325A0010213430B642EE01A4A126C22F0020259
S11325B0002B14BF022300231343164A136422E0A2
S11325C0144A126C22F00402002B14BF04230023CB
S11325D01343104A136416E00E4A126C22F00802E8
S11325E0002B14BF0823002313430A4A13640AE090
S11325F0084A126C22F01002002B14BF102300238F
S11326001343044A136402B070BD00BFE8840000A1
S1132610005006400080044070B582B005460C4668
S1132620FEF7D8FC06465DB12B68022B06D0042BBE
S113263008D0012B0CBF0125042504E0022502E08B
S1132640054600E00325D4BBFEF7EEFD58B1032395
S11326508DF8073000228DF8062001228DF8052020
S11326608DF8043051E0FEF747FE58B106238DF88B
S1132670073002238DF8063001238DF805308DF8DC
S1132680043042E0FEF7B8FC50B101238DF8073066
S113269000228DF806208DF805308DF8043034E0E2
S11326A0FEF74CFD88B302238DF8073000238DF824
S11326B006308DF8053001238DF8043025E02378A9
S11326C0043B032B09D8DFE803F00A0204060323C2
S11326D006E0012304E0062302E0FF2300E00223D6
S11326E08DF807300F4A6388134493F8FC318DF852
S11326F00630A388134493F8FC318DF80530E38841
S1132700134493F8FC318DF80430B54203D101A889
S1132710FEF788FF03E0284601A9FEF793FE02B006
S113272070BD00BFE8840000154B1B69C3F303634D
S1132730013B052B10D8DFE803F00306090F0F0C4B
S1132740062303700AE00423037007E005230370E3
S113275004E00723037001E004230370084A1369AB
S1132760C3F30343013343801369C3F303130133F6
S11327708380136903F00F030133C380704700BFE4
S1132780004006402DE9F04186B004460D4649B1AB
S11327908889FFF7A9F98046E889FFF7A5F9074674
S11327A02E7802E00127B8463E46201F172800F283
S11327B03381DFE810F0180053008B00E100310191
S11327C03101310131013101310131013101310175
S11327D03101310131013101310131013101310165
S11327E0310131011A018F4B1B69C3F30363022BBF
S11327F00CD18EB301A8FFF743F90220FFF7CAF802
S11328000346002840F00981012400E000242DB98A
S113281001200021FEF7A8FC034612E001238DF8F5
S11328200D308DF80C3000228DF80E208DF80980C3
S11328308DF80A7006A901F8103D3046FEF794FCA5
S11328400346002B40F0E980002C00F0E68001A84C
S1132850FEF7E8FE0346E0E00123DEE0714B1B696E
S1132860C3F30363032B0CD176B301A8FFF708F974
S11328700320FFF78FF80346002840F0CE800124A0
S113288000E000242DB930460021FEF7DDFC0346AC
S11328900FE000238DF80E308DF809808DF80A7052
S11328A08DF808308DF80D30304602A9FEF7CCFCC7
S11328B00346002B40F0B180002C00F0AE8001A84C
S11328C0FEF7B0FE0346A8E00123A6E0554B1B69C2
S11328D0C3F30363012B0DD1002E4BD001A8FFF7E6
S11328E0CFF80120FFF756F80346002840F0958002
S11328F0012400E000242DB930460021FEF78AFBB4
S113290003462EE06B68029300228DF80C208DF8AC
S113291014208DF810808DF811706A78012A14BF84
S1132920002201228DF80D2000228DF80E20A3F53F
S11329307412A2F510623C498A4203D802238DF82E
S11329400F3009E0A3F5F403A3F59053374A9342FB
S11329509CBF03238DF80F30304602A9FEF75AFBC3
S11329600346002B59D1002C57D001A8FEF75AFE7C
S1132970034652E0012350E02A4B1B69C3F303636F
S1132980062B0BD17EB301A8FFF77AF80620FFF7D8
S113299001F80346002840D1012400E000242DB9A9
S11329A030460021FEF7CAFC034615E000238DF8EB
S11329B008308DF80F308DF80C808DF80D70AB7ADF
S11329C0013B8DF809302B7A103B8DF80A303046E4
S11329D002A9FEF7B3FC0346FBB9F4B101A8FEF764
S11329E021FE034619E0012317E076B1104A13696A
S11329F023F03F0343F00303136102F55432937849
S1132A0003F07F039370002307E00A4A937843F0AE
S1132A1080039370002300E00023184606B0BDE84D
S1132A20F08100BF0040064000093D000048E80175
S1132A300080044000D0074010B4054C2060217190
S1132A40A2602373637300205DF8044B704700BFDA
S1132A501C000020F0B583B007460E468DF8040034
S1132A608DF8051001F060FE314A137B5373012287
S1132A708DF80620002B46D000242D4DAB6853F86A
S1132A80243053B11A79022A07D01A6801A8996828
S1132A90904710B16C73002E41D00134E4B22B7B0B
S1132AA0A342EBD830E002238DF80630204B1B7B89
S1132AB0002B37D000241E4FBB6853F824304BB191
S1132AC01A79012A06D01A6801A89968904708B1B2
S1132AD07C73AEB10134E4B23B7BA342ECD821E079
S1132AE000238DF80630124EB36853F824301BB11E
S1132AF01A6801A899689047A4B1013CE4B2F3E7CD
S1132B004FF482750EE00024094D2B6853F827001A
S1132B10FFF720F86F7105460028C4D0E0E740F2C3
S1132B200315DDE701F0F2FD284603B0F0BD00BF58
S1132B301C000020014B5879704700BF1C00002086
S1132B40054B5A7B1B79934283BF034B9B6853F815
S1132B5022000020704700BF1C00002008B5FFF7CA
S1132B60C3FA08BD08B5FEF7F5FF08BD29B1411841
S1132B70002300F8013B8842FBD1704710B4064B98
S1132B801B6853F82040616053F820309A6000209D
S1132B905DF8044B704700BF2C00002070B504465C
S1132BA0094D2B6853F82060084804F00F010022F7
S1132BB000F02EFD30461021FFF7D8FF2B680020CF
S1132BC043F8240070BD00BF2C00002000800040AA
S1132BD038B5102001F08EFD0D4B1B68A3B1002405
S1132BE00B4D2B6853F8243013B11878FFF7D6FF38
S1132BF00134102CF5D1074D6C1E0F3514F9010F5B
S1132C0001F078FDAC42F9D10020014B186038BDC9
S1132C102C000020F886000008B5084B1B6853F808
S1132C20203000F00F00064A1077D07723B15A689D
S1132C3012B1197B9868904708BD00BF2C00002092
S1132C400080004038B5054600F00F040A482146CC
S1132C50002200F0DDFC094B1B6853F8253053B10A
S1132C60054A1477D477947701221A735A6812B1FB
S1132C70197B9868904738BD008000402C000020E4
S1132C802DE9F04F87B09DF84080119E012505FA8B
S1132C9008F5EFB2B6FBF7F407FB1464003418BF71
S1132CA00124002C73D1059304920391814600F012
S1132CB00F07DFF8ECA05046394600F0AFFCDAF815
S1132CC0003023F08003CAF800307B0103F1804216
S1132CD002F5004B02F5104204981060534441F28F
S1132CE0100205989850CDF80080CDF80480504625
S1132CF039460022134600F0C1FC039B032B2CD859
S1132D00DFE803F0020D1923002241F204032BF83B
S1132D1003206DB2ADB27A011F4B9D521DE06DB21E
S1132D20ADB241F204032BF803507A011B4B134458
S1132D3000229A8011E06DB2ADB241F204032BF887
S1132D4003507A01144B9D5207E0002141F2040321
S1132D502BF803107A01104B9952114D284639462D
S1132D60324600F0A3FC28463946012200F02CFD2F
S1132D7005EB471707F58057BB8B9BB243F0020363
S1132D80BB83084B1B6853F8293000221A73204672
S1132D9007B0BDE8F08F00BF1490004010900040D1
S1132DA0008000402C00002070B582B004469DF8DD
S1132DB018500095079D0195FFF762FF0646D0B9AC
S1132DC004F00F040D4D28462146089A00F0FCFC3F
S1132DD005EB441000F58050838B23F008031B049B
S1132DE01B0C9DF82420002A14BF08220022134340
S1132DF06401034A1353304602B070BD00800040A2
S1132E001C90004008B500F00F010348012200F0B7
S1132E10FFFB002008BD00BF0080004008B500F0A3
S1132E200F010348002200F0F3FB002008BD00BF9F
S1132E300080004010B40F4B1C5C04F07F041C5451
S1132E401C5C04F0C00401F03F01214319541B5CD5
S1132E5003F0BF03002A14BF402200221343054A93
S1132E601354135C43F08003135400205DF8044BA7
S1132E70704700BF001002402DE9F04180460C4627
S1132E804D7805F00F061021FFF770FE6078A178E9
S1132E90227BFFF7CFFF07461C48314600F0BEFBFC
S1132EA08FBB1B4B1B6843F8258053F825201570F6
S1132EB053F8253000221A73144D28463146012256
S1132EC000F0A0FB2B6813F0040F11D12378FF2B23
S1132ED00ED086F0030606F1804606F5004696F805
S1132EE0002102F0F00203F00F03134386F80031CF
S1132EF06568A1686278064B1B6853F82200456038
S1132F0053F8223099603846BDE8F08100800040D3
S1132F102C0000202DE9F8430C4616469946089FDC
S1132F20264B18604021FFF721FE254D284600F06E
S1132F3093FB2B6823F0040223789B0003F0040323
S1132F4013432B602B6823F010036278002A14BF0C
S1132F501022002213432B60102001F0BFFB194DF7
S1132F606C1E0F3514F9010F01F0B8FBAC42F9D116
S1132F701AE0B9F1000F13D0A7B1A6F10408A9F122
S1132F80040600252C4658F8040F56F8041FFFF7D2
S1132F9073FF002818BF05460134BC42F3D109E091
S1132FA0002507E0002505E0074800F057FC002E47
S1132FB0DFD100252846BDE8F88300BF2C0000209F
S1132FC000800040F88600000010024008B500F0C0
S1132FD00F01024800F022FB08BD00BF0080004042
S1132FE000F00F0080304001014B1950704700BFC2
S1132FF00080004000F00F0089B2400100F18040E1
S113300000F510408180704700F00F00400100F18E
S1133010804000F5004041F20602835A9BB2090247
S113302001F4E06123F4E0630B438352704700BF73
S113303000F00F004001014B195070470C90004004
S113304000F00F00400100F1804000F5004041F223
S11330501803C150704700BF00F00F00400100F199
S1133060804000F5004041F21003C150704700BF9A
S113307000F00F0089B24001014B1952704700BFA4
S11330801490004000F00F00400100F1804000F572
S1133090004041F20602835A9BB201F0070123F07B
S11330A007030B438352704708B50A4600F00F012B
S11330B0014800F0FBFA08BD0080004008B50A464C
S11330C000F00F01014800F07FFB08BD00800040C4
S11330D008B500F00F01024800F0A6FB08BD00BFD0
S11330E00080004008B50A4600F00F01014800F0D6
S11330F02DFB08BD0080004000F00F004201074B8B
S11331009B5A23F008031B041B0C002914BF08223C
S1133110002213434001014A135270471C9000409F
S113312008B500F00F03012908D011B1022914D009
S113313008BD1148194600F065FA08BD58010F4949
S1133140095A21F004010904090C002A14BF0422BD
S113315000221143094A115208BD58010749095A6E
S113316021F002010904090C002A14BF02220022E2
S11331701143024A115208BD008000401C900040D7
S113318008B518B1034800F033FA08BD014800F04F
S113319025FA08BD0080004000F00F00014B58776D
S11331A0704700BF00800040002841D038B5044675
S11331B000293CD00D4608462021FFF7D7FC627A4F
S11331C002F00702237E42EAC322237A1B0203F49D
S11331D0E0631A43637EDB00DBB21343EB802368B6
S11331E02B606389AB80E369AB602369EB60636840
S11331F02B61A389AB82E36A1B68EB8294F82030CD
S113320013B1636AAB6101E06369AB6194F8283080
S1133210002B14BF0223002394F82020002A14BF9B
S1133220102200221343AB83E36A1B68EB8338BD8F
S1133230704700BF2DE9F04383B00C4600F00F0542
S11332406F4F3846294600F0E9F922686E0106F10D
S1133250804303F5004803F510431A6062683E4456
S113326041F2100306EB0309F250227E637E217AB9
S11332700091617A01913846294600F0FFF962898C
S113328041F2040328F80320A389A9F80430236930
S113329006F58056F36094F8203073B1384607EB96
S11332A0451303F580539A8B92B242F010029A832D
S11332B02946626A00F04AFA0FE06A0102F180428C
S11332C002F5004241F218015018838823F01003DC
S11332D01B041B0C8380636953506A01494B9B5A3E
S11332E023F002031B041B0C94F82820002A14BFAB
S11332F00222002213436901424A5352E36A002B1B
S113330075D019793E4B1B6813F0800F17D06B01F1
S113331003F1804303F5004341F208029A5822F076
S11333200043002914BF4FF0004200221A436B01EE
S113333003F1804303F5004341F208015A50E36A64
S113334059792F4B1B6813F0800F17D06B0103F1D1
S1133350804303F5004341F208029A5822F0804367
S1133360002914BF4FF0804200221A436B0103F17D
S1133370804303F5004341F208015A50204EE36AAA
S1133380304629469A6800F0BFF930462946E2697A
S113339000F08CF9E36A304629465A7B1B7B00F027
S11333A0DBF9E26A917B06EB451000F58050838BD4
S11333B09BB2D27B120202F4706223F47063134353
S11333C08383838B23F020031B041B0C002914BF6D
S11333D0202200221343304606EB451202F58052A8
S11333E09383E36A29461A6800F0EEF904E004487E
S11333F02946E26900F05AF903B0BDE8F08300BF42
S1133400008000401C90004010B50446064A136832
S113341043F080031360FFF70DFF044B1B6853F860
S113342024300020187310BD008000402C000020C0
S11334302DE9F04F97B0059092461F46209D219CA0
S11334409DF8883001931F3121F01F065C4B1B68E7
S113345053F820304FF0000883F80C804FF0010936
S113346009FA0AF20292BDF80820B7FBF2F302FB54
S11334701373B3EB080118BF0121039106A830218F
S1133480FFF774FB0DF1480B58461021FFF76EFB54
S1133490CDF82880CDF82C808DF830808DF83180DF
S11334A08DF820A08DF821A00D978DF840908DF80F
S11334B03890CDF844B08DF84C808DF84D808DF85F
S11334C054808DF856800198002875D003990029FE
S11334D072D12B680693236807936B6862689342E2
S11334E059D1297A227A914258D1A6F1200800268E
S11334F0B246BDF80820049200F1FF3B5FFA8BFB53
S113350013E0D9F80C3006932146E3680793D9F801
S113351010302269934244D10C350C3408F1200850
S113352099F814000A7D90423ED1B3FBF7F3119A47
S11335301360A9462B7A032B1BD8DFE803F002099A
S11335401016ADF822A0BDF80830ADF8243010E014
S1133550BDF80830ADF82230ADF824A009E0049B92
S1133560ADF82230ADF8243003E0ADF822A0ADF878
S113357024A0B3450EBFCDF83CA008F120030F935F
S113358026B9059806A9FFF755FE10E006A841469E
S1133590FFF70AFE0BE0012303930DE001230393DD
S11335A00AE00123039307E00123039304E00136B7
S11335B0F6B2019B9E42A4D1039817B0BDE8F08FE8
S11335C02C000020024B1B6853F82030187B7047F6
S11335D02C0000200048704700800040036843F43A
S11335E000330360036813F4003FFBD1704700BF4E
S11335F0036843F480330360036813F4803FFBD112
S1133600704700BF0AB1417670470176704700BF2A
S11336100AB1C17670478176704700BF00EB411153
S113362041F20802881800238B5001F58052136080
S113363041F204028B5241F206028B52436041F282
S113364010000A180B509380D38041F218000A1816
S11336500B509380D380704738B50546036823F434
S1133660403323F0C603036000242846E1B2FFF789
S1133670D5FF0134102CF8D138BD00BF10B4DB00E5
S1133680DCB29DF8083003F00703234343EAC22267
S11336909DF80440240204F4E064224392B2803191
S11336A000EB4110C2805DF8044B7047036813F0CF
S11336B0800F13D010B400EB411341F208041B59DE
S11336C0002B11DB00EB41131B5913F0804F0BD17E
S11336D022F0404200EB4110025112E000EB411095
S11336E041F20803C250704700EB411041F2080157
S11336F0435823F47F7323F00303C2F309021A43EC
S113370042505DF8044B704730B4046814F0800FE5
S113371016D000EB411341F208041D591B5913F054
S1133720804F01D1002D0BDA00EB411041F2080467
S11337300159044B0B40044901EA8222134303510B
S113374030BC7047FF0300C000FCFF3F00EB411199
S113375041F21803CA50704710B400EB411404F549
S113376080541834E488C4F30E045BB900EB4110B0
S113377000F58053DC8300F58050C38AC3F30E0345
S1133780C3821EE044F4004400EB411101F5805073
S1133790C48301F58051CB8A6FEA43436FEA5343F4
S11337A09BB2CB82C38B9BB2520202F4F05223F43D
S11337B0F0531343C383CB8A9BB223F4F0531A43CD
S11337C0CA825DF8044B704700EB411303F5805344
S11337D01833DB881BB2002B12DA00EB411000F522
S11337E08051CB8BC2F3080203F47E431343CB8393
S11337F000F58050C38A03F47E431A43C2827047A3
S113380000EB411101F58050C38BC2F30E0203F4A7
S113381000431343C38301F58051CB8A03F400436F
S11338201A43CA82704700BF00EB411303F580536B
S11338301833DB881BB2002B08DA00EB411000F5CB
S113384080501030C088C0F30800704700EB41116D
S113385001F58051C88AC0F30E00704700231A4650
S1133860C2540133102BFBD1704700BF08B50020B0
S1133870FFF7D2F908BD00BF08B50120FFF7CCF966
S113388008BD00BF08B50220FFF7C6F908BD00BF98
S113389008B50320FFF7C0F908BD00BF08B5042030
S11338A0FFF7BAF908BD00BF08B50520FFF7B4F962
S11338B008BD00BF08B50620FFF7AEF908BD00BF7C
S11338C008B50720FFF7A8F908BD00BF08B5082010
S11338D0FFF7A2F908BD00BF08B50920FFF79CF95E
S11338E008BD00BF08B50A20FFF796F908BD00BF60
S11338F008B50B20FFF790F908BD00BF08B50C20F0
S1133900FFF78AF908BD00BF08B50D20FFF784F959
S113391008BD00BF08B50E20FFF77EF908BD00BF43
S113392008B50F20FFF778F908BD00BF38B50020AF
S1133930FFF750FEC56A002415F0010F02D020469F
S1133940FFF780F96D080134E4B2102CF4D138BDCE
S113395008B500F09DFD08BD10B4531EDCB242B1A1
S11339604B1E0138214413F8012F00F8012F8B421C
S1133970F9D15DF8044B704730B4551EEDB252B125
S11339804B1E421E294413F8014F02F8014F8B428B
S1133990F9D10135284430BC704700BF70B4561EBD
S11339A0F6B252B14B1E421E8D1913F8014F02F8A4
S11339B0014FAB42F9D101363144084670BC70471F
S11339C008B50222FFF7EAFF08BD00BF08B50422CC
S11339D0FFF7E4FF08BD00BF00B583B002AB23F8D6
S11339E0021D19460222FFF7C7FF03B05DF804FB6E
S11339F000B583B002AB43F8041D19460422FFF757
S1133A00BBFF03B05DF804FB70B48D18561EF6B20C
S1133A1072B101360E4415F8013B047824EA03041C
S1133A2011F8012B1340234300F8013BB142F2D1BA
S1133A3070BC7047014B1870704700BF3000002005
S1133A4000B583B00191074B1B7823B101A904226F
S1133A50FFF792FF03E001A90222FFF78DFF03B0F5
S1133A605DF804FB3000002008B5054B1B781BB142
S1133A700422FFF793FF08BD0222FFF78FFF08BD62
S1133A803000002070B590B0224DB5F85E40A4001F
S1133A9004F1804404F5CA24236843F0804323607E
S1133AA01D4E30460621022202F090FF236843F0A7
S1133AB08043236030460721022202F087FFB5F8D5
S1133AC096204FF08C41154B43F822104FF4E1330C
S1133AD0009300238DF806308DF804308DF80530FE
S1133AE0012003A96A4601F0F9FE0D4A936943F4E3
S1133AF000239361936913F4002FFBD0084A936960
S1133B0043F480239361936913F4802FFBD010B0A6
S1133B1070BD00BFE485000000B0044000500640C2
S1133B2000B0064008B521200F2100F005FE212039
S1133B300349002200F0BAFD212000F0CFFD08BDAA
S1133B405139000008B500F0C3FB00F08FF900F014
S1133B5081FD003018BF012008BD00BF10B500234F
S1133B6003700322427083700122C2700222027128
S1133B7043713A238371C41D00F0D8FA01462046EC
S1133B80FFF72AFF4FF48041FFF726FF00F11901E8
S1133B90044A137800F8013B03B101328842F8D19A
S1133BA0084610BD4C87000030B583B004468578C4
S1133BB001A8E11CFFF758FF3A2D04D920468423BD
S1133BC000F8013B07E02046002300F8013B01997F
S1133BD02A46FFF7D1FE03B030BD00BF70B582B0F6
S1133BE005460E46441C01A82146FFF73DFF00236D
S1133BF02B70204601993246FFF7BEFE02B070BD1D
S1133C0030B583B00446857801A8E11CFFF72CFF8A
S1133C10014601982A46FFF7C1FE2046002300F81A
S1133C20013B03B030BD00BF70B582B005460E46FF
S1133C30441C01A82146FFF717FF014601983246AC
S1133C40FFF7ACFE00232B70204602B070BD00BF0E
S1133C5030B583B00446857801A8E11CFFF704FF62
S1133C60014601982A46FFF7CFFE2046002300F8BC
S1133C70013B03B030BD00BF10B504460020FFF780
S1133C80D9FE2378C12B4CD00ED8062B66D004D88D
S1133C90042B30D0052B5AD06BE00B2B49D0C02B12
S1133CA063D00A2B65D12DE0C92B49D005D8C32B8D
S1133CB033D03AD3C52B2CD05BE0E12B0BD0E22BD5
S1133CC011D0E02B55D10120FFF7B4FE204601218D
S1133CD0FFF784FF51E00120FFF7ACFE20460221EC
S1133CE0FFF77CFF49E00120FFF7A4FE20460421F2
S1133CF0FFF774FF41E00120FFF79CFE2046FFF729
S1133D0053FF3AE00120FFF795FE204600F0E2FA67
S1133D1033E0204600F01CFB2FE0204600F0F2F9CF
S1133D202BE0204600F09EF927E0204600F0D0F971
S1133D3023E00120FFF77EFE204600F0ABF81CE0F4
S1133D400120FFF777FE204600F004FA15E0012079
S1133D50FFF770FE2046FFF753FF0EE00120FFF748
S1133D6069FE2046FFF774FF07E02046FFF7F6FEE2
S1133D7003E02046812300F8013BA04206D0011B4A
S1133D802046C9B200F01EFB012010BD002010BD6A
S1133D9070B582B005460E46441C01A82146FFF7C3
S1133DA063FE014601983246FFF72EFE00232B7076
S1133DB0204602B070BD00BF431C02783AB1002017
S1133DC0013080B213F8012B002AF9D1704700208A
S1133DD0704700BF054B1A6892F9000093F904304C
S1133DE09842B4BF00200120704700BF3400002077
S1133DF0044B1A6810781B79984234BF00200120C4
S1133E00704700BF34000020054B1A68B2F9000067
S1133E10B3F904309842B4BF00200120704700BFBA
S1133E2034000020044B1A6810889B88984234BFE1
S1133E3000200120704700BF34000020044B1A68A2
S1133E4010685B689842B4BF00200120704700BF2F
S1133E5034000020044B1A6810685B68984234BF31
S1133E6000200120704700BF340000200022034BD3
S1133E701A70034B03F10C029A607047100600207D
S1133E80340000200022014B1A70704710060020F5
S1133E90704700BF2DE9F04707460022564B1A70C1
S1133EA0564C04F10C03A3608278554B1A705548A4
S1133EB0F91CFFF785FD01465348FFF781FD0146D4
S1133EC05248FFF77DFD01462046FFF7CDFD014630
S1133ED0037884F80C34437884F80D34201D0231BF
S1133EE0FFF774FD02784A4B1A70531EDBB2072B9E
S1133EF069D8002A71D0013000252E46DFF83091B0
S1133F00DFF83081DFF808A1014611F8014B09F808
S1133F1005402644F6B208EB8500FFF7A5FD013CF9
S1133F20E4B2072C51D80135EDB29AF80030AB4217
S1133F30EAD80022314BC3F81024314B1B78002BF4
S1133F402DD000E000262D4B93F80D3413F0020F12
S1133F503DD12A4A92F80C24022A0DD0042A15D005
S1133F60012A36D12B492C4A002B14BF13460B4689
S1133F70224AC2F8103412E02849294A002B14BFFF
S1133F8013460B461D4AC2F8103408E02549264A58
S1133F90002B14BF13460B46184AC2F81034194BB1
S1133FA01B8813FB06F6B6B2B6F5806F13D8134B15
S1133FB09B681E441D4B1E600F4A137843F0010397
S1133FC01370002313E0852311E086230FE0902370
S1133FD00DE086230BE0862309E00022074BC3F89B
S1133FE01024074B1B78002BACD11646DFE738466C
S1133FF000F8013BBDE8F0871006002034000020E3
S11340000C060020040600201606002014060020DA
S113401006060020F13D0000D53D0000253E0000CD
S1134020093E0000553E00003D3E0000F80500201A
S1134030FC050020D4050020074B1B6813F0040F77
S113404008D1054A137843F004031370034B1A880C
S1134050034B1A80704700BF10060020160600208C
S11340600A060020154B1B6813F0010F1FD0134BD9
S11340701B6813F0020F1CD1114B9A68114B1A6084
S11340800023114A1380114A13800C4A117863F3F8
S113409082011170117863F304111170117841F0E9
S11340A008011170117841F00201117002E08823B7
S11340B000E0012300F8013B704700BF1006002018
S11340C03400002018060020F40500200806002013
S11340D010B504460A4B1B6813F0010F08D0084BB7
S11340E01B6813F0020F05D0FFF7A6FF002302E0C0
S11340F0882300E00223204600F8013B10BD00BFE6
S113410010060020084B1B68C3F34003002B14BFA8
S113411001230223044A126802F00102002A08BFA4
S1134120882300F8013B7047100600204FF480609C
S1134130704700BF064B9B68834207D8084403F5C9
S11341408063834234BF0020012070470020704701
S113415034000020124B1B6813F0010F03D1882395
S113416000F8013B70470E4B1B6813F0020F03D09D
S1134170872300F8013B704700B583B0002300F8A3
S1134180013B01900198074B9968FFF759FC019096
S11341900198054B1988FFF71FFC03B05DF804FB79
S11341A01006002034000020F40500203C4B1B685E
S11341B013F0020F05D03B4B1B881BB1013B394A5E
S11341C0138070472DE9F041374B1A88354B1A801C
S11341D0364B1B78ABB10024DFF8F080344E354FFA
S11341E018F80450306857F824102A46FFF7B4FB37
S11341F033681D4435600134E4B22C4B1B78A34270
S1134200EED82D4A138801331380294B1A682B4B9F
S11342101B689A420BD32A4B9A68254B1A60204A92
S113422013786FF3C30313700022234B1A801C4BC3
S11342301B6813F0080F30D1194B1B6813F0040FDF
S113424019D11F4BD3F81034ABB198471D4B1B78D1
S1134250022B04BFB0FA80F0400938B1104B1B6840
S113426013F0100F07D0FFF7E7FE04E00C4A1378B1
S113427043F0100313700A4B1B6813F0040F0CD0A7
S1134280114B1B8833B9064A13786FF3410313703B
S1134290BDE8F081013B0C4A1380BDE8F08100BF0A
S11342A01006002008060020140600200606002040
S11342B018060020D4050020F4050020F80500208D
S11342C0340000200C0600200A060020FC05002013
S11342D0704700BF2DE9F84300221C4B1A7090F878
S11342E0029009F1FF37FFB2072F04D88046B9F1D5
S11342F0000F05D120E0852300F8013BBDE8F883D9
S11343000330124DEE1C0C35013705EB87070146CF
S113431011F8014B06F8014F2846FFF7A5FB013CB5
S1134320E4B2072C05D94046862300F8013BBDE8DA
S1134330F8830435BD42EAD1044B83F8009040462B
S1134340002300F8013BBDE8F88300BF48040020C7
S113435038B50E4B1B781BB9882300F8013B38BDD8
S1134360002300F8013B094B1B786BB10024074D77
S113437005EB84022B19D1681A79FFF7FDFA013491
S1134380E4B22B78A342F3D838BD00BF4804002020
S11343900A4B002119701A7961F300021A711A7913
S11343A061F341021A71064B1A6822F400021A6082
S11343B01A6842F400121A60704700BF74040020A7
S11343C018B0064010B483B01A4B98600C4659B12B
S11343D00139C9B201310144002310F8012B1344FF
S11343E0DBB28842F9D101E0014600235B420B7045
S11343F0104B01341C731A7942F001021A711A79B4
S11344006FF341021A711A796FF382021A710A4B1F
S11344101B6801932B22094B1A60043B1A6822F48F
S113442000121A601A6842F400021A6003B05DF8C0
S1134430044B70477404002014B006401CB00640BE
S113444010B5124B1B7BD3B1104A926811780170DE
S11344502B290DD10D484168C1F3800181F0010180
S1134460047961F382040471416811F0040F0AD1E4
S11344700649013B0B7301328A60002010BDFFF72F
S113448087FF012010BD002010BD00BF7404002070
S113449010B582B01A4B1C6804F420021A60194B40
S11344A05B6813F0010F14D014F4000F08D00DF161
S11344B00600FFF7C5FF18B99DF80620124B1A60D5
S11344C014F4001F1AD0104B1B68DBB2ADF8063091
S11344D014E014F4001F11D00B4B1B68D9B2094A25
S11344E052F8300F431C9342084A28BF1346103A2F
S11344F0526B9A4202D00170024A136302B010BD9B
S113450014B00640740400201CB00640840400204B
S113451008B503462B280FD14B494A68C2F3C002A1
S113452082F00102087962F3C30008714A6812F04C
S1134530080F00F082806CE0434A526812F0080FC2
S113454022D0414A02F13D01916382F83C0082F895
S1134550790000211170117941F010011171C243E9
S113456012F0C00F09D138490A796FF304120A71A5
S113457000F03003DB0801330B70334A13796FF317
S1134580C3031371002008BD2F4A526812F0100FA4
S113459006D02D499A1C0A700A796FF304120A7125
S11345A0294A107800284ED0114692F879201A44EE
S11345B0D2B281F879200138C0B20870C8B98B6BC7
S11345C043B90846832300F83C3F0121FFF7FAFE74
S11345D0012008BD42B11C48822300F83C3F012160
S11345E0FFF7F0FE012008BD1848FFF745FB012046
S11345F008BD154A926B72B115498A4205D2501C06
S1134600763988631370002008BD00200E4B986330
S113461008BD002008BD002008BD0B4B03F13D027E
S11346209A632B2283F83C2083F8792000221A70A5
S11346301A7942F010021A719FE7034A526812F085
S1134640080FEAD1A0E708BD74040020B0040020DC
S1134650EA04002008B5064B00221A711A7303F10C
S113466010025A631A63FFF793FE012008BD00BFCE
S11346707404002038B50C4C04F130050DE05A1CCC
S11346801878AA4234BF134604F11003626812F08A
S1134690010F04D16363FFF73BFF636B216B994206
S11346A0EDD1014A536338BD7404002072B110B4D3
S11346B0144600F11003084A52F8233023601030E6
S11346C0054B43F820105DF8044B70471030024B43
S11346D043F82010704700BF0080FF1F410900F01D
S11346E01F0001238340024A42F82130704700BF73
S11346F000E100E0430900F01F0001228240203362
S1134700014941F82320704700E100E0054B1B6894
S1134710002B05DD013B034A1360002B00DC62B66D
S1134720704700BFF004002072B6024A13680133D8
S113473013607047F0040020002819DAC0B2C0F3F7
S11347408103012B07D010B40F4C104A022B0CBF6D
S11347501346234606E00E4B00F003000901C9B2DC
S11347601954704700F003000901C9B2195408E054
S11347700901C9B200F1604000F5614080F80013FE
S113478070475DF8044B704720ED00E01CED00E03D
S113479018ED00E0002811DAC0B2C0F38103012B48
S11347A006D00A490A4A022B0CBF13460B4600E006
S11347B0084B00F00300185C0009704700F16040EA
S11347C000F5614090F800030009704720ED00E017
S11347D01CED00E018ED00E0430900F01F00012289
S11347E082406033014941F82320704700E100E032
S11347F0430900F01F00012282404033014941F87F
S11348002320704700E100E043094033044A52F892
S1134810232000F01F0322FA03F000F00100704788
S113482000E100E043098033044A52F8232000F0F9
S11348301F0322FA03F000F00100704700E100E0DA
S113484000230370437070470023037001224270F9
S1134850044941600372C360037443748374C37472
S11348600275704740420F0070B582B006460C4690
S1134870264D452005EB8601FEF770F9002002A9BC
S113488041F8040DFEF76AF955F82620019B03EB65
S11348905203B3FBF2F213461D48816841F0020152
S11348A081602AB1013B00BF00BF00BF002BF9D1DA
S11348B017498B6823F002038B601346886840F025
S11348C0010088602AB1013B00BF00BF00BF002B7C
S11348D0F9D121780E4B9A6822F008029A609B68FD
S11348E0002914BF082200221A43094B9A606178F8
S11348F09A6822F004029A609B68002914BF04227B
S113490000221343024A936002B070BDF4040020F5
S113491000700340024A936823F0010393607047D8
S113492000700340024A536919435161704700BF44
S113493000700340024A936919439161704700BFB4
S113494000700340F8B506460C461746244D452032
S113495005EB8601FEF702F955F82600A0FB0701D6
S1134960204A002303F01CFA10F1FF3641F1FF370F
S1134970230103F1804303F55C339B6AC3F3810392
S1134980012B1BD0022B25D1012F08BF002E1BD3D6
S11349900120F8BD144A0023BB4208BFB2420BD326
S11349A0002F08BFB6F5803F0ED3B0F1011002040A
S11349B04FF6FF76164307E00120F8BD012F08BF2C
S11349C0002EE7D30120F8BD02342401074B1E5109
S11349D00020F8BD012F08BF002EF5D30120F8BD3B
S11349E0F404002040420F00FEFF01000070034069
S11349F070B582B006465D4B186801900D4621B92A
S1134A00D37C002B00F0A780A3E0D07C0B0103F142
S1134A10804303F55C33996A21F002019962996A33
S1134A20002814BF022300231446304641EA03023F
S1134A302B0103F1804303F55C339A622278996A6F
S1134A4021F00C019962996A920002F00C020A4367
S1134A509A626378012B07D129466268FFF772FFD7
S1134A60034600287FD104E06168AB1C1B01404A67
S1134A70D150227A2B0103F1804303F55C33996A08
S1134A8021F400019962996AD20502F400020A43F2
S1134A909A62E268996A21F070619962996A1206D1
S1134AA002F070620A439A62217C9A6A22F480229C
S1134AB09A629B6A002914BF4FF4802200221A4391
S1134AC02B0103F1804303F55C339A62617C9A6A9B
S1134AD022F400329A629B6A002914BF4FF4003218
S1134AE000221A432B0103F1804303F55C339A62DD
S1134AF0A17C9A6A22F480329A629B6A002914BFCC
S1134B004FF4803200221A432B0103F1804303F552
S1134B105C339A62237D6BB115490A690123AB406A
S1134B2013430B6102AB1D4415F9040CFFF7D6FDCA
S1134B30002318E00E490A690123AB4022EA03036B
S1134B400B6102AB1D4415F9040CFFF7D3FD0023E0
S1134B5009E0012307E0064B996A21F002019962FA
S1134B60996A002360E7184602B070BD0887000008
S1134B70007003402DE9F8430546884616469946D9
S1134B801B4C452004EB8501FDF7E8FF54F8254054
S1134B90A4FB0601174A002303F002F910F1FF36C3
S1134BA041F1FF37002F08BFB6F5803F1AD2A4FBAE
S1134BB00901104A002303F0F3F810F1FF3041F12A
S1134BC0FF31002908BFB0F5803F0ED23204024302
S1134BD008F102084FEA0818074B43F808200020A0
S1134BE0BDE8F8830120BDE8F8830120BDE8F8831F
S1134BF0F404002040420F0000700340F8B504465E
S1134C000D4645203E4901EB8401FDF7A7FF3D49D0
S1134C10AB1C1B01CA581646002701EB05118B6A11
S1134C20C3F38103012B4BD1002F08BFB2F5803FA2
S1134C3026D392B20023300C002112184B415D029E
S1134C40500245EAD2514F0147EAD0674601361A6D
S1134C5067EB0107B6185F41B90141EA9661B001FB
S1134C60861B61EB070792197B41274800218018B6
S1134C705941234B53F82420002303F091F8F8BD45
S1134C80561C47F100077B02700243EAD6514B01E0
S1134C9043EAD0634201121A63EB010392197B4188
S1134CA0990141EA92619001801A61EB0301801934
S1134CB07941134B53F82420002303F071F8F8BD15
S1134CC0561C47F100077B02700243EAD6514B01A0
S1134CD043EAD0634201121A63EB010392197B4148
S1134CE0990141EA92619001801A61EB03018019F4
S1134CF07941034B53F82420002303F051F8F8BD05
S1134D00F40400200070034080841E002DE9F84361
S1134D100646364B8A1C03EB021257683C460025B4
S1134D2003EB01139B6AC3F38103012B23D0002BF4
S1134D3054D145202E4901EB8601FDF70FFF600297
S1134D40E10D4B0143EAD0634201121A63EB010304
S1134D5012196B41990141EA92619001801A61EB49
S1134D60030100196941224B53F82620002303F064
S1134D7017F8BDE8F8831E4D452005EB8601FDF7C5
S1134D80EDFEB8B200214FEA17484FF0000918EBC6
S1134D90000849EB01094FEA49234FEA482043EA56
S1134DA0D8514B0143EAD0634201121A63EB010369
S1134DB012EB080243EB0903990141EA9261900165
S1134DC0801A61EB030110EB080041EB090155F86F
S1134DD02620002302F0E4FFBDE8F88345200449BF
S1134DE001EB8601FDF7BAFEA9E700BF007003409E
S1134DF0F404002002310901014B5A50704700BFEE
S1134E000070034043EA0243023109010148435060
S1134E10704700BF00700340074B8A1C120198586A
S1134E2003EB01139B6AC3F38103012B04BF83B219
S1134E3003EB1040704700BF00700340074B8A1C0F
S1134E4003EB0212506803EB01139B6AC3F3810363
S1134E50012B04BF83B203EB104070470070034082
S1134E60024A136919431161704700BF007003407F
S1134E70024A136923EA010111617047007003407B
S1134E80014BD8680840704700700340014BD9605B
S1134E90DB6870470070034010B5104B53F8204096
S1134EA00F4B53F82030187C10F0FF0F14D1196009
S1134EB09A6001221A740222DA85A36943F400235A
S1134EC0A361A36913F4002FFBD0204605490122F6
S1134ED000F050FF002010BD022010BD0C87000020
S1134EE0F804002017000300F0B585B01C4B53F8FC
S1134EF020401C4B53F82060337C13F0FF0F2BD160
S1134F0013460A46054631600027B7600121317413
S1134F100220F08596F82A000097019102930391EC
S1134F2004F11C03FDF740FF96F82A000E492A46B7
S1134F30FDF724FE96F82A00FDF764FFA36943F405
S1134F400023A361A36913F4002FFBD0236943F466
S1134F5000032361002000E0022005B0F0BD00BF83
S1134F600C870000F80400203D50000038B5154BB4
S1134F7053F82040144B53F82050EB8D9BB2022B76
S1134F8002D10023EB8504E020461049002200F002
S1134F90F1FE20460E49002200F0ECFEA36923F442
S1134FA00023A361A36913F4002FFBD100232B7406
S1134FB0AB7C13F0FF0F03D005F12C0001F03CF99A
S1134FC038BD00BF0C870000F80400201700030060
S1134FD01600030038B5164B53F82040154B53F810
S1134FE02050236923F40003236195F82A00FDF778
S1134FF015FF20461049002200F0BCFEA36923F4EB
S11350000023A361A36913F4002FFBD1AB7C13F03D
S1135010FF0F03D005F12C0001F00EF9EB8D9BB2CC
S1135020022B04BF0023EB8500232B7438BD00BF83
S11350300C870000F80400201600030038B5194B53
S113504053F82040184B53F8205001290AD101236A
S1135050E385FFF7BFFF236A13B320460321626A87
S1135060984738BD236A1BB120460121626A9847DC
S1135070A36883B194F82A002168FDF7B1FFA16801
S113508094F82A00FEF71AF80023A36094F82A0083
S1135090FDF7B8FE38BD28460449012200F06AFE37
S11350A038BD00BFF80400200C8700001600030080
S11350B008B50E4B53F820300D4A52F820001A68F8
S11350C01B7D13B91378037708BD012B06D1137820
S11350D0517843EA012100F015FE08BD1378517898
S11350E043EA012100F01AFE08BD00BFF8040020C5
S11350F00C87000010B5124B53F82030114C54F8B3
S11351002040587C10F0FF0F18D1012058745960CA
S1135110DA6002221A86A36943F48023A361A36997
S113512013F4802FFBD02046012100F03BFF2046E2
S11351300549012200F01EFE002010BD022010BD12
S1135140F80400200C870000150003002DE9F0434B
S113515085B0214C54F82040204D55F82060757CD2
S113516015F0FF0F33D10F46804696F829004FF013
S11351700009CDF800900125019502920395494656
S113518004F11C023B46FDF70FFE96F82900144972
S11351904246FDF7F3FC96F82900FDF733FE7760ED
S11351A0C6F80C90757402233386A36943F48023F4
S11351B0A361A36913F4802FFBD02046012100F0E2
S11351C0F1FE236943F400132361002000E0022070
S11351D005B0BDE8F08300BF0C870000F804002090
S11351E0B152000038B5154B53F82050144B53F806
S11351F02040A36923F48023A361A36913F4802FBF
S1135200FBD12046002100F0CDFEE36920460D4984
S1135210002200F0AFFDEB7C13F0FF0F05D005F189
S11352202B0001F009F80023EB7400236B742B8E20
S11352309BB2022B04BF00232B8638BDF804002048
S11352400C8700001500030038B5174B53F82040B5
S1135250164B53F82050A36923F48023A361A36958
S113526013F4802FFBD12046002100F09BFE23691C
S113527023F400132361E36995F82900FDF7CEFDBB
S1135280EB7C13F0FF0F05D005F12B0000F0D4FFE9
S11352900023EB742B8E9BB2022B04BF00232B86BE
S11352A000236B7438BD00BF0C870000F804002095
S11352B070B50546244B53F82040244B53F8206026
S11352C0012911D101232386FFF7BEFFA3691BB176
S11352D020460321E2699847736923F0C02323F42D
S11352E0F81343F470237361238E9BB2022B29D1EC
S11352F0A3691BB120460021E2699847E36883B1A2
S113530094F829006168FDF7A7FEE16894F8290084
S1135310FDF7D4FE0023E36094F82900FDF772FD45
S113532070BD2846FFF790FFA3691BB120460221F8
S1135330E2699847736923F0C02323F4F81343F414
S11353407023736170BD00BFF80400200C87000057
S113535010B582B0134B53F82030134A52F8200092
S11353605C681B7D13B9C369237018E0012B0BD152
S11353700DF1060100F0E4FCBDF806302370BDF821
S113538006301B0A63700AE00DF1060100F0E2FC2E
S1135390BDF806302370BDF806301B0A637002B0F6
S11353A010BD00BFF80400200C8700000123C37166
S11353B04FF4165303600023037143718371037226
S11353C043727047F0B583B00646164B53F820502D
S11353D0154A52F820700344187B01A9FDF7BEFB5F
S11353E0124C2846214600F01DFD0028F9D007F193
S11353F02B0000F03FFF07F12C0000F03BFF094BAE
S1135400334493F910402046FFF774F920460849C5
S11354100022FFF74BF90020034B43F8260003B0AA
S1135420F0BD00BF0C870000F80400201600020045
S1135430C9040000034B53F8203098699961DA617C
S1135440704700BFF8040020034B53F82030186A5B
S113545019625A62704700BFF804002070B505460F
S11354601E46144B53F820400123A37494F82830AB
S1135470012B02D1FFF710FD01E0FFF735FDA8B9BC
S113548004F12C00314600F095FE03280ED10023D0
S1135490A3740323E38594F82830012B03D1284611
S11354A0FFF764FD02E02846FFF794FDE08D80B22B
S11354B070BD00BFF80400202DE9F84381461D4B60
S11354C053F820401C4B53F8208098F8103013F008
S11354D0FF0F2BD10F461646A36943F40023A361A3
S11354E0A36913F4002FFBD0AEB1144D2046294616
S11354F000F098FC0028F9D0C8F800704846FFF77F
S1135500D7FD98F8143013B90137013E01E0023792
S1135510023E002EEAD1A36923F40023A361A36908
S113552013F4002FFBD10020BDE8F8830220BDE86E
S1135530F88300BF0C870000F80400201700020065
S113554010B5074B53F8203000249C7493F828308E
S1135550012B02D1FFF7A0FC10BDFFF7C5FC10BD65
S1135560F804002038B50D4B53F8204099B1227C43
S113557012F0FF0F0DD094F82820012A02D1A2685E
S11355800A6008E00D4694F82A00FDF7A1FD2860A2
S113559001E000220A60E08D80B238BDF8040020EA
S11355A008B50A4B53F820301A7C12F0FF0F0BD0C9
S11355B040F20262DA8593F82830012B02D1FFF71A
S11355C0D5FC01E0FFF706FD002008BDF80400202B
S11355D070B505461E46144B53F820400123E3746E
S11355E094F82830012B02D1FFF784FD01E0FFF786
S11355F0ADFDA8B904F12B00314600F0DBFD032812
S11356000ED10023E3740323238694F82830012B5E
S113561003D12846FFF7E6FD02E02846FFF714FE13
S1135620208E80B270BD00BFF80400202DE9F04741
S113563081464A4B53F82040494B53F8208098F850
S1135640113013F0FF0F40F083800F461646A36914
S113565043F48023A361A36913F4802FFBD066E095
S1135660404DDFF804A12046294600F0DBFB00286A
S1135670F9D0C8F804704846FFF76AFE98F8143069
S113568013B90137013E01E00237023E204651467C
S113569000F0C8FB70B1A36923F48023A361A3695C
S11356A013F4802FFBD120462F4900F0DFFB40F29A
S11356B0036050E020462D4900F0B4FB70B1A369AB
S11356C023F48023A361A36913F4802FFBD1204624
S11356D0264900F0CBFB40F205603CE0204624491B
S11356E000F0A0FB70B1A36923F48023A361A36934
S11356F013F4802FFBD120461D4900F0B7FB40F284
S1135700046028E020461B4900F08CFB90B1A3699B
S113571023F48023A361A36913F4802FFBD12046D3
S1135720144900F0A3FB3EB140F201600DE0002EED
S113573096D101E0002E96D1A36923F48023A361BE
S1135740A36913F4802FFBD10020E369BDE8F0873F
S11357500220BDE8F0870028F7D1EDE70C870000B0
S1135760F8040020150002001100020012000200DB
S1135770100002001300020010B5074B53F820304C
S11357800024DC7493F82830012B02D1FFF7B2FC1B
S113579010BDFFF7DBFC10BDF804002038B50D4B3D
S11357A053F8204099B1627C12F0FF0F0DD094F8A9
S11357B02820012A02D1E2680A6008E00D4694F824
S11357C02900FDF785FC286001E000220A60208E94
S11357D080B238BDF804002008B50A4B53F82030D5
S11357E05A7C12F0FF0F0BD040F202621A8693F833
S11357F02830012B02D1FFF7F5FC01E0FFF724FD6F
S1135800002008BDF8040020F0B583B0314B1A180D
S1135810167B53F82050304B53F820303BB11A7CA0
S113582012F0FF0F4AD15B7C13F0FF0F48D10C46F6
S1135830304601A9FDF792F9019E4FEA840EB6FBAA
S1135840FEFE1FFA8EFE4FEA8E07B6FBF7F7BC4248
S113585034BF3F1BE71B35E0B6FBF1F083B203FB1B
S113586002F3B6FBF3F39C4234BF1B1BE31ABB42A7
S113587003D81FFA80FE1F46944621440132212A90
S1135880EAD1BCF1070F03D82B6943F400332B6131
S11358902B6923F0F8520CF1FF331B0603F0F85385
S11358A013432B612B6923F4FF5323F01F03CEF31F
S11358B00C0E4EEA03032B61002009E0022007E0EE
S11358C0022005E004EB840105224FF0040CC3E739
S11358D003B0F0BD0C870000F8040020F0B583B0DD
S11358E006460C461546324B53F820700344187B89
S11358F001A9FDF733F9631E04F13301002203F813
S1135900012F8B42FBD12B4B43F82640EB7984F8D3
S11359102830AB7923752B7A84F829306B7A84F894
S11359202A30384600F0B4F930462968FFF76CFF96
S11359302B792BB13846A979012200F0BBF904E098
S11359403846A979002200F0B5F93846297900F0E3
S1135950C9F93B696A7923F4005343EA42333B6152
S11359600025E585258604F12B00294600F078FC06
S1135970074604F12C00294600F072FC012F11D0D7
S1135980012811D00A4B334493F9104020460A4BA6
S113599053F826102A46FEF789FE2046FEF79EFE9F
S11359A0284602E0012000E0012003B0F0BD00BF62
S11359B00C870000F8040020A084FF1F30B583B0DA
S11359C00C460B4B53F820501844007B01A9FDF7FB
S11359D0C5F82A692B69C3F30C03C2F3046202FB02
S11359E00333019AB2FBF3F3236003B030BD00BF6D
S11359F00C870000034B53F8203019609A60002094
S1135A00704700BFF8040020034B53F8203059605E
S1135A10DA600020704700BFF8040020F8B506469D
S1135A208E4B53F820408E4B53F8205020468D491E
S1135A3000F0F8F9E0B140F201632B8695F82830C4
S1135A40012B03D13046FFF7CDFB02E03046FFF7D0
S1135A50FBFBAB691BB128460321EA6998476369DC
S1135A6023F0C02323F4F81343F47023636167E045
S1135A7020467D4900F0D6F9E0B140F203632B865D
S1135A8095F82830012B03D13046FFF7ABFB02E039
S1135A903046FFF7D9FBAB691BB128460321EA69FD
S1135AA09847636923F0C02323F4F81343F4702365
S1135AB0636145E020466D4900F0B4F9E0B140F27D
S1135AC004632B8695F82830012B03D13046FFF769
S1135AD089FB02E03046FFF7B7FBAB691BB12846F0
S1135AE00321EA699847636923F0C02323F4F81378
S1135AF043F47023636123E020465D4900F092F98A
S1135B00E0B140F205632B8695F82830012B03D1D0
S1135B103046FFF767FB02E03046FFF795FBAB69C1
S1135B201BB128460321EA699847636923F0C0231F
S1135B3023F4F81343F47023636101E04D4B636174
S1135B4020464D4900F04AF960B320464B4900F025
S1135B5069F938B3424B53F826503046FFF7F8FB47
S1135B602B7D33B96B6801336B60EB68013BEB60F1
S1135B7005E06B6802336B60EB68023BEB60EB683B
S1135B802BB9AB691BB128460021EA699847EB6839
S1135B9043B93046FFF726FBAB691BB12846022107
S1135BA0EA6998472046364900F018F9002833D0AE
S1135BB02046344900F036F900282DD0284B53F8FC
S1135BC02650264B53F82670AB682BB33046FFF7AC
S1135BD06FFA2B7D33B92B6801332B60AB68013B23
S1135BE0AB6005E02B6802332B60AB68023BAB6013
S1135BF0AB688BB92B6A1BB1284601216A6A9847A6
S1135C00AB684BB938461E49002200F0B3F8384659
S1135C101D49012200F0AEF820461B4900F0DEF8D1
S1135C20D0B12046194900F0FDF8A8B10C4B53F847
S1135C302640A36883B994F82830012B03D1304659
S1135C40FFF794F902E03046FFF7C4F9236A1BB169
S1135C5020460221626A9847F8BD00BF0C87000005
S1135C60F8040020130002001100020010000200DA
S1135C701200020000C01FC015000300150002003E
S1135C8017000300170002001600030016000200AC
S1135C90064B0361064B4361002383610362436245
S1135CA04FF470328262C362704700BF0400000F79
S1135CB000C01FC010B40C4602B14C1C022C04D10D
S1135CC0036943F00053036109E0836923F010037F
S1135CD043EA04138361036923F0005303615DF80D
S1135CE0044B7047836901F0FE0223F0020313435F
S1135CF08361836901F0010123F001031943816188
S1135D00704700BF8369C1F3002223F0804343EA54
S1135D1082738361C9B20177704700BF836923F03E
S1135D208043C1F3002243EA827323F00043C1F3AA
S1135D30402243EAC2738361C9B20177704700BF4E
S1135D408369DB0F1B029BB20B80C269D2B213437F
S1135D500B8070478369C3F380735B029AB20A8035
S1135D608369DB0F42EA03230B80C269D2B2134377
S1135D700B80704710B48BB2090C013906292AD85C
S1135D80DFE801F004290D2929161F000469012107
S1135D90994024EA01019A400A4302611BE08469A4
S1135DA00121994024EA01019A400A43826112E0E8
S1135DB0446A0121994024EA01019A400A4342625B
S1135DC009E0816A21F440340121994024EA010167
S1135DD09A400A4382625DF8044B70470B0C013B06
S1135DE0062B1DD8DFE803F0041C0A1C1C10160047
S1135DF0006989B2C84000F001007047806989B227
S1135E00C84000F001007047406A89B2C84000F001
S1135E1001007047806A89B2C84000F001007047F1
S1135E20002070470B0C023B052B1CD8DFE803F065
S1135E30031B091B0F15406989B2C84000F001001B
S1135E407047C06989B2C84000F001007047406AD9
S1135E5089B2C84000F001007047806A89B2C84026
S1135E6000F0010070470020704700BF494B994281
S1135E702ED011D8033B994248D006D8023B994210
S1135E806CD0013399425FD082E0434B994233D0C6
S1135E900133994226D07BE0404B994240D006D84A
S1135EA00B3B99420AD00A33994243D070E03C4BF1
S1135EB0994265D0013399425AD069E0436923F08D
S1135EC0C02323F4F81343F4801343610020704784
S1135ED0436923F0C02323F4F81343F400234361FC
S1135EE000207047436923F0C02323F4F81343F4DC
S1135EF08023436100207047436923F0C02323F4C7
S1135F00F81343F40033436100207047436923F0DE
S1135F10C02323F4F81343F4803343610020704713
S1135F20436923F0C02323F4F81343F0004343618F
S1135F3000207047436923F0C02323F4F81343F08F
S1135F408043436100207047436923F0C02323F456
S1135F50F81343F40043436100207047436923F07E
S1135F60C02323F4F81343F48043436100207047B3
S1135F70836A23F4403343F4003383620020704780
