S01300006770696F5F7333326B3134342E6D6F7484
S1130000007000206D040000C9040000C904000051
S1130010C9040000C9040000C90400000000000075
S1130020000000000000000000000000C9040000FF
S1130030C904000000000000C9040000C904000055
S1130040C9040000C9040000C9040000C904000078
S1130050C9040000C9040000C9040000C904000068
S1130060C9040000C9040000C9040000C904000058
S1130070C9040000C9040000C9040000C904000048
S1130080C9040000C9040000C9040000C904000038
S1130090C9040000C9040000C9040000C904000028
S11300A0C9040000C9040000C9040000C904000018
S11300B0C9040000C9040000C9040000C904000008
S11300C0C9040000C9040000C9040000C9040000F8
S11300D0C9040000C9040000C9040000C9040000E8
S11300E0C9040000C9040000C9040000C9040000D8
S11300F0C9040000C9040000C9040000C9040000C8
S1130100DD290000C9040000C9040000C90400007E
S1130110C9040000C9040000C9040000C9040000A7
S1130120C9040000C9040000C9040000C904000097
S1130130C9040000C9040000C9040000C904000087
S1130140C9040000C9040000C9040000C904000077
S11303F0C9040000C9040000C9040000FFFFFFFF96
S1130400FFFFFFFFFFFFFFFFFFFFFFFFFE7FFFFF79
S113041010B5054C237833B9044B13B10448AFF33A
S113042000800123237010BD0000002000000000A4
S1130430FC410000084B10B51BB108480849AFF354
S113044000800848036803B910BD074B002BFBD09C
S1130450BDE81040184700BF00000000FC41000048
S113046004000020D088FF1F0000000072B610496D
S11304700F4A0F4B0E4C0E4D0D4E0D4FB846B9465C
S1130480BA46BB46BC460B490B4A521A013A05DD33
S11304900020042308601944043AFBDA074885461F
S11304A0074880470748804762B602F0E1FAFEE752
S11304B0000000000080FF1F00700020007000207A
S11304C0C9370000F1360000FFF7FEBF074B5B6938
S11304D0DBB2042B06D0802B06D0012B0CBF0120ED
S11304E004207047022070470320704700E0074053
S11304F0044BD3F8003113F0807F1ABF024B186805
S113050000207047004006404000002010B584B031
S11305100B46A1B900238DF804308DF80C3001226C
S11305208DF808208DF809208DF805208DF8063007
S113053002238DF8073004AB3A4A43F8102D3A4AA7
S1130540D2F8002112F0007F67D1374AD2F80011A7
S113055021F40001C2F800114FF08061C2F80011CB
S11305600021324A1160002859D05A7A120202F44A
S1130570E0611A7A02F007020A432B48C0F804210A
S11305809979C90001F00801DA79120102F0300208
S113059011435A79920002F004020A43C0F8082178
S11305A01A79012A0FD012B1022A18D023E01A7B3B
S11305B0002A14BF4FF40002002242F001021A493B
S11305C0C1F8002117E01A7B002A14BF4FF400027F
S11305D0002242F001121449C1F800210BE01A7BF9
S11305E0002A14BF4FF403024FF4403242F00102D8
S11305F00D49C1F800211A680C4B1A600C4C00E03C
S1130600013CFFF775FF18B9002CF9D1032007E06E
S1130610002C14BF0020032002E0022000E0002090
S113062004B010BD00127A000040064040000020D3
S113063088E73000084BD3F8003213F0807F09D0EC
S1130640054BD3F8083203F00103002B034808BF1D
S113065000207047002070470040064000127A00D6
S113066010B582B00B4671B900238DF80430012215
S11306708DF805208DF806308DF801208DF80220C4
S113068002AB03F8082D254AD2F8002212F0007FAD
S11306903FD1224AD2F8001221F40001C2F800121C
S11306A00021C2F80012002835D09A78120202F410
S11306B0E0615A7802F007020A431849C1F804229B
S11306C01A7802F00102C1F808225A7999791B7943
S11306D0002B14BF03230123002A14BF0422002289
S11306E01A43002914BF4FF40003002313430B4A99
S11306F0C2F80032642400E0013CFFF79BFF18B904
S1130700002CF9D1032007E0002C14BF00200320A3
S113071002E0022000E0002002B010BD00400640CC
S1130720054BD3F8003313F0807F1DBF024BD3F881
S1130730083302480020704700400640006CDC0289
S113074010B582B00B4661B901238DF80530002243
S11307508DF806208DF801308DF8023002AB03F8D5
S1130760082D224AD2F8002312F0007F38D11F4A04
S1130770D2F8001321F40001C2F800134FF0806195
S1130780C2F8001370B39A78120202F4E0615A7846
S113079002F007020A431549C1F804231A7802F04B
S11307A00302C1F808239A795B79002B14BF012353
S11307B00923002A14BF4FF4000200221343C1F896
S11307C00033142400E0013CFFF7AAFF18B9002C01
S11307D0F9D1032007E0002C14BF0020032002E01D
S11307E0022000E0002002B010BD00BF004006401F
S11307F008B50F4BD3F8003613F0807F14D0FFF701
S113080077FE034688B10A49D1F80826C2F30222CA
S11308100132B0FBF2F3D1F80826C2F304421032DD
S113082002FB03F35B0800E00023184608BD00BF89
S11308300040064010B584B00C4689B900238DF8F9
S113084004308DF80B3001228DF808208DF8092032
S11308508DF8053007228DF806208DF8073001AC9D
S1130860354BD3F8003613F0007F5FD1324BD3F809
S1130870002622F40002C3F800264FF08062C3F879
S11308800026002854D0FFF733FE63791B0203F4DB
S1130890E062237903F0070313432749C1F80436C0
S11308A0A3781B0403F4F81263781B0203F4E063D7
S11308B01343C1F808362378012B11D013B1022B4E
S11308C01AD00AE0E379002B14BF4FF4000300238D
S11308D043F00103184AC2F800364FF47A7419E061
S11308E0E379002B14BF4FF40003002343F00113FA
S11308F0114AC2F80036F0E7E379002B14BF4FF435
S113090003034FF4403343F001030B4AC2F80036AB
S1130910E3E7013CFFF76CFF18B9002CF9D1032081
S113092007E0002C14BF0020032002E0022000E0B6
S1130930002004B010BD00BF004006402DE9F04186
S113094007460D468C7801344E7806FB04460B7836
S113095003FB0448CB78013B052B10D8DFE803F0F8
S11309600306090F0F0CFFF7C3FD09E0FFF762FE52
S113097006E0FFF7D5FE03E0FFF73AFF00E00020B2
S11309800009022F3BD0032F6ED0012F40F0A4802A
S1130990EA7802EB42015F4B53F821301B0903FB59
S11309A004F4A04200F29B800B465A4901EB8303F6
S11309B05B681B0903FB06F6B04200F2938002EB6E
S11309C0420301EB83039B681B0903FB08F3984272
S11309D000F28B80120602F07062AB781B0403F401
S11309E070231A432B7803F00F031A436B781B010F
S11309F0DBB21343484A53610020BDE8F081EA7832
S1130A0002EB4201434B03EB81035B6D1B0903FBC8
S1130A1004F4A0426CD80B463E4901EB83039B6D62
S1130A201B0903FB06F6B04265D802EB420301EB57
S1130A308303DB6D1B0903FB08F398425ED812069F
S1130A4002F07062AB781B0403F470231A432B7812
S1130A5003F00F031A436B781B01DBB213432E4AD6
S1130A6093610020BDE8F081EA7802EB4201294B52
S1130A7003EB8103D3F8A8301B0903FB04F4A04261
S1130A803FD80B46234901EB8303D3F8AC301B0951
S1130A9003FB06F6B04237D802EB420301EB8303B3
S1130AA0D3F8B0301B0903FB08F398422FD8120681
S1130AB002F07062AB781B0403F470231A432B78A2
S1130AC003F00F031A436B781B01DBB21343124A82
S1130AD0D3610020BDE8F0810020BDE8F081012051
S1130AE0BDE8F0810120BDE8F0810120BDE8F0817E
S1130AF00120BDE8F0810120BDE8F0810120BDE8BE
S1130B00F0810120BDE8F0810120BDE8F0810120E1
S1130B10BDE8F081C43F00000040064038B50546FA
S1130B20FFF7D4FC2946FFF709FF044678B9E878B3
S1130B300A220849013A0B69C3F30363984203D0BC
S1130B40002AF7D1032402E0002A08BF0324204628
S1130B5038BD00BF0040064010B504461B4B1B695E
S1130B60C3F30363013B052B10D8DFE803F003064E
S1130B70090F0F0CFFF7BCFC09E0FFF75BFD06E073
S1130B80FFF7CEFD03E0FFF733FE00E000200F4B3C
S1130B901B69C3F303430133B0FBF3F0012C04D00E
S1130BA094B1022C09D0002010BD084B1B69C3F37B
S1130BB003130133B0FBF3F010BD044B1B6903F0C6
S1130BC00F030133B0FBF3F010BD00BF004006403B
S1130BD008B50F4B1B6AC3F30363062B15D8DFE874
S1130BE003F004080B0E141411000220FFF7B4FFE5
S1130BF008BDFFF77DFC08BDFFF71CFD08BDFFF72E
S1130C008FFD08BDFFF7F4FD08BD002008BD00BF3F
S1130C100040064008B511B1012927D04DE0043841
S1130C2003284DD8DFE800F00A02121AFFF778FD16
S1130C30294BD3F8043303F0070346E0FFF7FAFC2B
S1130C40254BD3F8043203F007033EE0FFF750FCD2
S1130C50214BD3F8043103F0070336E0FFF7C8FD56
S1130C601D4BD3F8043603F007032EE004380328A1
S1130C7029D8DFE800F00A02121AFFF751FD164BDB
S1130C80D3F80433C3F302231FE0FFF7D3FC124B62
S1130C90D3F80432C3F3022317E0FFF729FC0E4B09
S1130CA0D3F80431C3F302230FE0FFF7A1FD0A4B8D
S1130CB0D3F80436C3F3022307E00023184604E004
S1130CC00023184601E00023184613B1013BD84025
S1130CD008BD002008BD00BF0040064008B5114B08
S1130CE01B69C3F30113032B1AD8DFE803F00207CF
S1130CF0111406200021FFF78DFF08BD094B1B6965
S1130D00C3F34003002B14BF4FF4FA40002008BD86
S1130D10054B186808BD05200021FFF77BFF08BDBF
S1130D20002008BD008004404400002038B51E4B5C
S1130D3003EB4000B0F8FC309B0003F1804303F563
S1130D40CA231868C0F3C0051C6804F00704A54250
S1130D5025D81A6812F0804F23D01B68C3F30263AE
S1130D60013B052B14D8DFE803F003070B13130F23
S1130D700620FFF74FFF0CE00420FFF74BFF08E0CD
S1130D800520FFF747FF04E00720FFF743FF00E0DB
S1130D9000200134B0FBF4F005FB000038BD002056
S1130DA038BD002038BD00BFC43F0000104B1B6994
S1130DB0C3F38103022B07D0032B0FD0002B0CBFEE
S1130DC04FF4FA3000207047094B1B69C3F340030A
S1130DD0002B14BF4FF4FA4000207047044B1B69EA
S1130DE0C3F34003002B14BF4FF4FA4000207047B4
S1130DF00080044008B5244B5B6813F4006F40D0B6
S1130E00214B5B68C3F303130E2B09D8DFE803F00F
S1130E100A080D081208171C20252F0829082C0081
S1130E20002026E0FFF7D4FE23E006200121FFF78F
S1130E30F1FE1EE004200121FFF7ECFE19E005207D
S1130E400121FFF7E7FE14E00020FFF785FE10E024
S1130E5007200121FFF7DEFE0BE00120FFF77CFEF7
S1130E6007E0FFF7A3FF04E0FFF738FF01E04FF4CA
S1130E70FA30054B5B68C3F302230133B0FBF3F094
S1130E8008BD002008BD00BF0080044030B583B019
S1130E900546FFF7ADFC88B1062D51D006238DF829
S1130EA0073002238DF8063001238DF8053002A89F
S1130EB000F8043DFFF732FE044600E00124FFF78A
S1130EC02FFC88B1032D40D074B103238DF8073073
S1130ED000228DF8062001228DF8052002A800F8D2
S1130EE0043DFFF71BFE0446FFF702FB90B1012D02
S1130EF001D12FE001246CB101238DF807300022C9
S1130F008DF806208DF8053002A800F8043DFFF79F
S1130F1005FE0446FFF78EFB58B3022D29D044B3D7
S1130F2002238DF8073000238DF806308DF8053044
S1130F3002A8012300F8043DFFF7F0FD044618E081
S1130F40FFF7EEFB0028C0D109E0FFF7D1FA002833
S1130F50D1D10AE0FFF76EFB0028E0D109E0FFF7EA
S1130F60C7FA0028C6D10124D4E7FFF763FB0028A1
S1130F70D5D1204603B030BD174B1B69C3F30363BF
S1130F80013B052B0FD8DFE803F00306090E0E0C16
S1130F900123C37007E00223C37004E00323C3707A
S1130FA001E00623C3700C4B1A690C49C2F3031207
S1130FB00A4492F89C2142701A69C2F303420A441B
S1130FC092F89C2182701B6903F00F030B4493F881
S1130FD09C310370704700BF00400640C43F0000CE
S1130FE001383F282DD8DFE800F02A282C262C2CA5
S1130FF02C242C2C2C2C2C2C2C222C2C2C2C2C2C3F
S11310002C2C2C2C2C2C2C2C2C202C2C2C2C2C2C28
S11310102C2C2C2C2C2C2C2C2C2C2C2C2C2C2C2C0C
S11310202C2C2C2C2C2C2C2C2C2E06207047052000
S11310307047042070470320704702207047012046
S11310407047002070470720704700BFF0B5A1B07B
S11310500446002840F09D8001238DF80B300022C7
S11310608DF80C208DF80D308DF80E208DF8083099
S11310708DF809308DF80A308DF816308DF814305B
S11310808DF815208DF80F208DF810308DF8113063
S11310908DF838300D928DF82530924906918DF8EF
S11310A01C208DF824208DF81D308DF81E20022080
S11310B08DF81F008DF820308DF821308DF83030F8
S11310C08DF828208DF82F208DF829200C218DF8FB
S11310D02A108DF82B208DF82C308DF82D308DF8BA
S11310E03D3003218DF83C108DF84B308DF84110C4
S11310F08DF840208DF83F308DF83E308DF8450056
S11311008DF844308DF843208DF8421006208DF878
S113111049008DF848208DF847308DF84610724903
S11311201E9120211D918DF84C308DF84D208DF8A5
S11311304E208DF84F208DF850308DF854308DF8B6
S113114053308DF852208DF851208DF868308DF889
S113115069308DF86A308DF86B308DF86C308DF80D
S11311606D308DF873308DF85830179218921992AB
S11311708DF86E308DF86F308DF870208DF87120F9
S11311808DF872208DF87C308DF87D308DF87E20BE
S113119002AC2646002C00F0F580544B1B69C3F3C7
S11311A00363032B1CD0FFF7BBFA38B901200021DD
S11311B0FFF7C6FA0546002840F0018203238DF8A4
S11311C0073000228DF8062001228DF8052020A882
S11311D000F87C3DFFF7A2FC0546002840F0EF81B3
S11311E0E0783146FFF73CFA0546002840F0C48118
S11311F0607F04F11001FFF789F90546002840F0EB
S1131200BB8194F8280004F12001FFF713FB054685
S1131210FFF75CF9022806D0032807D0012808D17B
S113122004F1360606E004F13A0603E004F13E0652
S113123000E00026002D70D1F378032B58D194F8E8
S11312402830002B00F0A48106238DF807300223F8
S11312508DF8063001238DF8053020A800F87C3D78
S1131260FFF75CFC0546637F7BB1012820D1012395
S11312708DF8073000228DF806208DF8053020A85F
S113128000F87C3DFFF74AFC0546E37883B1012D65
S11312900ED102238DF8073000238DF806308DF827
S11312A0053020A8012300F87C3DFFF737FC0546F4
S11312B0002D32D1A07BE11DFFF742FA054660BB49
S11312C0F3788DF80730B3788DF8063073788DF89D
S11312D00530337820A800F87C3DFFF71FFC054655
S11312E01BE000BF00127A000084FF1F004006408C
S11312F08DF80730B3788DF8063073788DF80530A3
S1131300337820A800F87C3DFFF708FC054620B997
S1131310A07BE11DFFF714FA0546002D40F04F8134
S113132094F8303013B1E26AA64B1A6094F8353061
S113133053B1A5490B6A23F0706294F834301B064C
S113134003F0706313430B6294F84330D3B101206C
S113135004F13601FFF7F2FA0546002840F02F8128
S1131360022004F13A01FFF7E9FA0546002840F0AB
S11313702681032004F13E01FFF7E0FA0546002828
S113138040F01D8114F16C0F3AD0236F002B37D03D
S1131390E36E002B34D000218C488D4D01EB81028B
S11313A0236F9B5C00EB4303B3F8FC309B0003F119
S11313B0804303F5CA231E6826F080461E60236F0F
S11313C09E189F5CB3781B0603F0E062F378DB00A1
S11313D003F008031343327902F0070213437278CF
S11313E0002A14BF4FF080420022134300EB47074A
S11313F0B7F8FC2045F822300131E36E9942CDD391
S113140094F84430C3B194F8460094F84720714BE3
S11314105B6823F47F6194F84530002B14BF4FF4CC
S1131420006500250301DBB2120202F4E0621343FB
S11314300B432B43674A536094F84830DBB194F86C
S11314404A1094F84920634B1B6923F03F0394F836
S11314504C00034394F84B00002814BF02200020E2
S1131460890001F00C010B43120102F03002134316
S11314700343584A136194F86030002B00F09A80BB
S1131480544A136C23F0010394F861100B43136462
S1131490136C23F0020394F86220002A14BF022282
S11314A0002213434B4A1364136C23F0040394F88F
S11314B06320002A14BF042200221343454A136404
S11314C0136C23F0080394F86420002A14BF082244
S11314D0002213433F4A1364136C23F0100394F85F
S11314E06520002A14BF102200221343394A1364D2
S11314F060E094F86630EBB1364B9A6E0020986643
S11315005A6822F4805194F86820120302F480523D
S11315100A435A60986694F867305BB194F86A306D
S113152043F0805294F869305B0003F00E031343D8
S1131530284A936694F87430E3B127498B7803F012
S11315407F0294F8753083F0010342EAC313DBB2DF
S11315508B7094F8763013F0800F1CBF2033DBB20D
S11315601D490A7903F01F0302F0E00213430B71D3
S1131570002524E0002522E0FEF7A8FF02283FF41E
S113158052AE03283FF452AE01287FF4C6AE47E6BC
S1131590637F002B7FF46BAEE378002B7FF479AE8E
S11315A0012585E60D4B626D1A60A26D5A60E26DED
S11315B09A609EE794F85030002BF3D199E72846BF
S11315C021B0F0BD4400002000400640C43F0000AC
S11315D0005006400080044000D00740480000202E
S11315E070B504460D4611287FD8112876D8DFE857
S11315F000F0090F151B20252A2F34383D444B5287
S11316005960676E0020FFF7A7FA0346002067E0E1
S11316100120FFF7A1FA0346002061E00220FFF752
S11316209BFA034600205BE0FFF7E4FB034600203F
S113163056E0FEF7FFFF0346002051E0FFF770F885
S1131640034600204CE0FEF753FF0346002047E02A
S1131650FFF7CEF80346002042E0A74B1B680020AA
S11316603EE0FFF7B5FA0346002039E004200021EC
S1131670FFF7D0FA0346002032E004200121FFF7EF
S1131680C9FA034600202BE005200021FFF7C2FA27
S11316900346002024E005200121FFF7BBFA03469E
S11316A000201DE006200021FFF7B4FA03460020C5
S11316B016E006200121FFF7ADFA034600200FE0F3
S11316C007200021FFF7A6FA0346002008E00720C0
S11316D00121FFF79FFA0346002001E000230420C4
S11316E0002D00F056812B6070BD232800F2D180BC
S11316F0A0F115040E2C00F29680DFE804F0081423
S11317001F2A34393E47535F677079828B007B4BC5
S1131710DB68C3F30163022B00F28880784A52F835
S113172023300020B0E0754BDB68C3F38163022BE8
S11317307FD8734A52F823300020A5E06F4BDB6852
S1131740C3F30173022B77D86D4A52F8233000207B
S11317509AE06A4BDB689B0F022B70D8684A52F8F8
S11317602330002090E0FFF745FB034600208BE088
S1131770FFF7B4FA0346002086E0624B9B78DB094E
S113178060D1FFF713FB034600207DE05D4B9B789F
S1131790DB095AD1594B1B6913F0010F58D10023AF
S11317A0184671E0574B9B78DB0955D1534B1B69A5
S11317B013F0020F53D10023184665E0514B9B7878
S11317C0DB0950D14FF4FA3300205DE04B4B1B6C26
S11317D013F0100F4AD100234FF4807054E0474BAC
S11317E01B6C13F0080F44D100234FF480704BE0BE
S11317F0424B1B6C13F0040F3ED100234FF4807056
S113180042E03E4B1B6C13F0020F38D100234FF41F
S1131810807039E0394B1B6C13F0010F32D1002377
S11318204FF4807030E0002304202DE0002318469C
S11318302AE00023184627E00023184624E000236A
S1131840184621E0002318461EE0002318461BE03A
S11318504FF47A73002017E00023184614E04FF485
S1131860FA43002010E0002318460DE00023184638
S11318700AE00023184607E00023184604E000238A
S1131880184601E000231846002D00F082802B60EA
S113189070BD4D2854D8242854D900F0F703332BB5
S11318A052D0392852D0402852D04D2852D0164B0D
S11318B003EB4003B3F8FC20144B53F8223013F02D
S11318C0804F49D04CE00120FFF746F9002855D05D
S11318D04EE016F0400F05D00020FFF73DF9002838
S11318E04CD045E016F0800F42D00220FFF734F9C7
S11318F0002843D03CE000BF4400002000800440A6
S11319004800002000D00740C43F000000500640BB
S113191016F0080F36D020460021FFF707FA0346D9
S113192016F0100F04D020460121FFF7FFF90346FB
S1131930002B14BF00204FF4807055B32B6070BD92
S1131940042070BD042009E0042007E0042005E021
S1131950042003E0042001E04FF480700023ECE74E
S11319600C4B034493F8AC6116F0200FB1D0AAE7F6
S113197016F0180FCCD100231846DEE700234FF4ED
S11319808070DAE716F0100FCDD100234FF4807089
S1131990D3E770BDC43F000070B582B0044608466A
S11319A0F9B901238DF80030FEF744FE60B9FEF763
S11319B0B7FE58B9FEF71CFF50B9FEF799FD002891
S11319C014BF06234F2304E0042302E0052300E0B0
S11319D007238DF801300123ADF80230ADF804304F
S11319E06846484B234493F8AC3113F0010F47D1B8
S11319F013F0180F0FD04278043A032A0DD8DFE809
S1131A0002F002040608022608E0032606E0012686
S1131A1004E0062602E0002600E0002613F0040F8E
S1131A201ABF818801F1FF31002113F0020F1ABFA0
S1131A30428802F1FF320022324B03EB4403B3F835
S1131A40FC309B0003F1804303F5CA231D6825F095
S1131A5080451D600378002B51D0360646F0804641
S1131A6001F007013143D20002F008020A43254B7A
S1131A7003EB4404B4F8FC10234B43F821203EE06C
S1131A8003781F3C042C3AD8DFE804F02E22160A0F
S1131A9003001E490A6C22F0010213430B642EE07A
S1131AA01A4A126C22F00202002B14BF02230023F4
S1131AB01343164A136422E0144A126C22F00402FF
S1131AC0002B14BF042300231343104A136416E0AD
S1131AD00E4A126C22F00802002B14BF08230023C4
S1131AE013430A4A13640AE0084A126C22F01002F3
S1131AF0002B14BF102300231343044A136402B0C1
S1131B0070BD00BFC43F0000005006400080044088
S1131B1070B582B005460C46FEF7D8FC06465DB1AA
S1131B202B68022B06D0042B08D0012B0CBF0125F7
S1131B30042504E0022502E0054600E00325D4BBA9
S1131B40FEF7EEFD58B103238DF8073000228DF81F
S1131B50062001228DF805208DF8043051E0FEF7AF
S1131B6047FE58B106238DF8073002238DF806305E
S1131B7001238DF805308DF8043042E0FEF7B8FCFF
S1131B8050B101238DF8073000228DF806208DF81E
S1131B9005308DF8043034E0FEF74CFD88B30223A1
S1131BA08DF8073000238DF806308DF805300123B9
S1131BB08DF8043025E02378043B032B09D8DFE8B3
S1131BC003F00A020406032306E0012304E00623CB
S1131BD002E0FF2300E002238DF807300F4A6388F8
S1131BE0134493F8FC318DF80630A388134493F81A
S1131BF0FC318DF80530E388134493F8FC318DF8FB
S1131C000430B54203D101A8FEF788FF03E028465B
S1131C1001A9FEF793FE02B070BD00BFC43F0000EF
S1131C20154B1B69C3F30363013B052B10D8DFE895
S1131C3003F00306090F0F0C062303700AE00423C4
S1131C40037007E00523037004E00723037001E039
S1131C5004230370084A1369C3F303430133438025
S1131C601369C3F3031301338380136903F00F0370
S1131C700133C380704700BF004006402DE9F041A6
S1131C8086B004460D4649B18889FFF7A9F9804614
S1131C90E889FFF7A5F907462E7802E00127B84640
S1131CA03E46201F172800F23381DFE810F01800A9
S1131CB053008B00E1003101310131013101310167
S1131CC03101310131013101310131013101310180
S1131CD03101310131013101310131011A018F4BDF
S1131CE01B69C3F30363022B0CD18EB301A8FFF766
S1131CF043F90220FFF7CAF80346002840F009819F
S1131D00012400E000242DB901200021FEF7A8FCE5
S1131D10034612E001238DF80D308DF80C300022BB
S1131D208DF80E208DF809808DF80A7006A901F847
S1131D30103D3046FEF794FC0346002B40F0E9804A
S1131D40002C00F0E68001A8FEF7E8FE0346E0E080
S1131D500123DEE0714B1B69C3F30363032B0CD136
S1131D6076B301A8FFF708F90320FFF78FF80346BD
S1131D70002840F0CE80012400E000242DB9304634
S1131D800021FEF7DDFC03460FE000238DF80E3042
S1131D908DF809808DF80A708DF808308DF80D30B3
S1131DA0304602A9FEF7CCFC0346002B40F0B1807C
S1131DB0002C00F0AE8001A8FEF7B0FE0346A8E0B8
S1131DC00123A6E0554B1B69C3F30363012B0DD11B
S1131DD0002E4BD001A8FFF7CFF80120FFF756F8EB
S1131DE00346002840F09580012400E000242DB92A
S1131DF030460021FEF78AFB03462EE06B6802930F
S1131E0000228DF80C208DF814208DF810808DF8A8
S1131E1011706A78012A14BF002201228DF80D2066
S1131E2000228DF80E20A3F57412A2F510623C492D
S1131E308A4203D802238DF80F3009E0A3F5F40396
S1131E40A3F59053374A93429CBF03238DF80F3078
S1131E50304602A9FEF75AFB0346002B59D1002C49
S1131E6057D001A8FEF75AFE034652E0012350E082
S1131E702A4B1B69C3F30363062B0BD17EB301A862
S1131E80FFF77AF80620FFF701F80346002840D14F
S1131E90012400E000242DB930460021FEF7CAFCDD
S1131EA0034615E000238DF808308DF80F308DF8C7
S1131EB00C808DF80D70AB7A013B8DF809302B7ACC
S1131EC0103B8DF80A30304602A9FEF7B3FC0346F6
S1131ED0FBB9F4B101A8FEF721FE034619E0012382
S1131EE017E076B1104A136923F03F0343F003036C
S1131EF0136102F55432937803F07F039370002347
S1131F0007E00A4A937843F080039370002300E0CB
S1131F100023184606B0BDE8F08100BF004006402B
S1131F2000093D000048E8010080044000D007405B
S1131F3010B4054C20602171A260237363730020E8
S1131F405DF8044B704700BF1C000020F0B583B05F
S1131F5007460E468DF804008DF8051000F086F94A
S1131F60314A137B537301228DF80620002B46D08F
S1131F7000242D4DAB6853F8243053B11A79022A4A
S1131F8007D01A6801A89968904710B16C73002EA5
S1131F9041D00134E4B22B7BA342EBD830E00223DE
S1131FA08DF80630204B1B7B002B37D000241E4FAE
S1131FB0BB6853F824304BB11A79012A06D01A6849
S1131FC001A89968904708B17C73AEB10134E4B2BA
S1131FD03B7BA342ECD821E000238DF80630124E5F
S1131FE0B36853F824301BB11A6801A89968904764
S1131FF0A4B1013CE4B2F3E74FF482750EE000248F
S1132000094D2B6853F82700FFF720F86F71054638
S11320100028C4D0E0E740F20315DDE700F018F92A
S1132020284603B0F0BD00BF1C000020014B5879C6
S1132030704700BF1C000020054B5A7B1B7993425C
S113204083BF034B9B6853F822000020704700BFF6
S11320501C00002008B5FFF7C3FA08BD08B5FEF759
S1132060F5FF08BD08B51C4800F0BCFDC0F3003006
S11320701A4B187080F00100587020B118480121E3
S113208000F0AAFD03E01648012100F0A7FD154B5E
S11320901B7833B9134A0123137053700F4A93709A
S11320A014E0104B5B78012B0BD100220B4B9A7080
S11320B002220C4B5A700A484FF4803100F08EFD16
S11320C008BD0123074A5370044A937004484FF42F
S11320D0803100F081FD08BD80F00F4054000020E5
S11320E0C0F00F405C0000202DE9F04786B00024CA
S11320F0364B1C60364F3B4603F8014B7C705C70DA
S1132100DFF8DC8088F8004088F80140314EB6F8EA
S11321105E309B0003F1804303F5CA231A6842F042
S113212080421A600294039405942B4B00930C2371
S1132130019301258DF808508DF80B508DF80E5041
S1132140264B04932846694600F0A6FCB6F8606066
S1132150B60006F1804606F5CA26336843F080438C
S113216033600194029403940594DFF878A0CDF8C9
S113217000A08DF80B508DF80E50DFF86C90CDF860
S113218010908DF814502846694600F085FC336899
S113219043F080433360029403940594CDF800A087
S11321A0102301938DF80B508DF80E50CDF810903C
S11321B08DF814502846694600F06EFC88F80040FB
S11321C088F80140BC7006B0BDE8F08758000020D4
S11321D054000020C040000000B0044080F00F40D4
S11321E05C00002000C00440C0F00F40704700BFF6
S11321F072B110B4144600F11003084A52F82330A7
S113220023601030054B43F820105DF8044B7047F1
S11322101030024B43F82010704700BF0080FF1FAE
S1132220410900F01F0001238340024A42F8213093
S1132230704700BF00E100E0430900F01F000122E5
S113224082402033014941F82320704700E100E037
S1132250054B1B68002B05DD013B034A1360002B73
S113226000DC62B6704700BF2C00002072B6024A40
S113227013680133136070472C000020002819DA1A
S1132280C0B2C0F38103012B07D010B40F4C104A25
S1132290022B0CBF1346234606E00E4B00F003004E
S11322A00901C9B21954704700F003000901C9B209
S11322B0195408E00901C9B200F1604000F5614019
S11322C080F8001370475DF8044B704720ED00E080
S11322D01CED00E018ED00E0002811DAC0B2C0F3F4
S11322E08103012B06D00A490A4A022B0CBF13466C
S11322F00B4600E0084B00F00300185C000970472F
S113230000F1604000F5614090F800030009704757
S113231020ED00E01CED00E018ED00E0430900F0C2
S11323201F00012282406033014941F82320704795
S113233000E100E0430900F01F0001228240403325
S1132340014941F82320704700E100E0430940338C
S1132350044A52F8232000F01F0322FA03F000F08D
S11323600100704700E100E043098033044A52F859
S1132370232000F01F0322FA03F000F0010070474D
S113238000E100E0002303704370704700230370F2
S113239001224270044941600372C36003744374B0
S11323A08374C3740275704740420F0070B582B0E5
S11323B006460C46264D452005EB8601FFF74AFEEE
S11323C0002002A941F8040DFFF744FE55F8262029
S11323D0019B03EB5203B3FBF2F213461D488168E1
S11323E041F0020181602AB1013B00BF00BF00BF80
S11323F0002BF9D117498B6823F002038B60134635
S1132400886840F0010088602AB1013B00BF00BF2A
S113241000BF002BF9D121780E4B9A6822F00802F4
S11324209A609B68002914BF082200221A43094BB2
S11324309A6061789A6822F004029A609B68002985
S113244014BF042200221343024A936002B070BDF9
S11324503000002000700340024A936823F0010317
S11324609360704700700340024A536919435161F5
S1132470704700BF00700340024A93691943916199
S1132480704700BF00700340F8B506460C46174677
S1132490244D452005EB8601FFF7DCFD55F82600A9
S11324A0A0FB0701204A002301F0F8F910F1FF36E0
S11324B041F1FF37230103F1804303F55C339B6A49
S11324C0C3F38103012B1BD0022B25D1012F08BF9D
S11324D0002E1BD30120F8BD144A0023BB4208BFC1
S11324E0B2420BD3002F08BFB6F5803F0ED3B0F134
S11324F0011002044FF6FF76164307E00120F8BDF1
S1132500012F08BF002EE7D30120F8BD02342401B7
S1132510074B1E510020F8BD012F08BF002EF5D334
S11325200120F8BD3000002040420F00FEFF0100F2
S11325300070034070B582B006465D4B1868019088
S11325400D4621B9D37C002B00F0A780A3E0D07CFA
S11325500B0103F1804303F55C33996A21F0020116
S11325609962996A002814BF022300231446304656
S113257041EA03022B0103F1804303F55C339A62C1
S11325802278996A21F00C019962996A920002F00A
S11325900C020A439A626378012B07D129466268C8
S11325A0FFF772FF034600287FD104E06168AB1C8B
S11325B01B01404AD150227A2B0103F1804303F5D9
S11325C05C33996A21F400019962996AD20502F494
S11325D000020A439A62E268996A21F07061996282
S11325E0996A120602F070620A439A62217C9A6A1E
S11325F022F480229A629B6A002914BF4FF480223D
S113260000221A432B0103F1804303F55C339A62E1
S1132610617C9A6A22F400329A629B6A002914BF90
S11326204FF4003200221A432B0103F1804303F5D7
S11326305C339A62A17C9A6A22F480329A629B6A21
S1132640002914BF4FF4803200221A432B0103F1F6
S1132650804303F55C339A62237D6BB115490A69A3
S11326600123AB4013430B6102AB1D4415F9040C69
S1132670FFF7D6FD002318E00E490A690123AB4099
S113268022EA03030B6102AB1D4415F9040CFFF7A6
S1132690D3FD002309E0012307E0064B996A21F0EA
S11326A002019962996A002360E7184602B070BD7E
S11326B0D4410000007003402DE9F84305468846E4
S11326C0164699461B4C452004EB8501FFF7C2FCD6
S11326D054F82540A4FB0601174A002301F0DEF854
S11326E010F1FF3641F1FF37002F08BFB6F5803FE8
S11326F01AD2A4FB0901104A002301F0CFF810F10B
S1132700FF3041F1FF31002908BFB0F5803F0ED200
S11327103204024308F102084FEA0818074B43F851
S113272008200020BDE8F8830120BDE8F8830120DB
S1132730BDE8F8833000002040420F0000700340E1
S1132740F8B504460D4645203E4901EB8401FFF7E8
S113275081FC3D49AB1C1B01CA581646002701EBFE
S113276005118B6AC3F38103012B4BD1002F08BFE2
S1132770B2F5803F26D392B20023300C0021121808
S11327804B415D02500245EAD2514F0147EAD067FE
S11327904601361A67EB0107B6185F41B90141EAF1
S11327A09661B001861B61EB070792197B412748AC
S11327B0002180185941234B53F82420002301F0B1
S11327C06DF8F8BD561C47F100077B02700243EA1E
S11327D0D6514B0143EAD0634201121A63EB010361
S11327E092197B41990141EA92619001801A61EB4F
S11327F0030180197941134B53F82420002301F07D
S11328004DF8F8BD561C47F100077B02700243EAFD
S1132810D6514B0143EAD0634201121A63EB010320
S113282092197B41990141EA92619001801A61EB0E
S1132830030180197941034B53F82420002301F04C
S11328402DF8F8BD300000200070034080841E0085
S11328502DE9F8430646364B8A1C03EB02125768EF
S11328603C46002503EB01139B6AC3F38103012B50
S113287023D0002B54D145202E4901EB8601FFF7CC
S1132880E9FB6002E10D4B0143EAD0634201121AF5
S113289063EB010312196B41990141EA92619001C2
S11328A0801A61EB030100196941224B53F8262079
S11328B0002300F0F3FFBDE8F8831E4D452005EB2F
S11328C08601FFF7C7FBB8B200214FEA17484FF063
S11328D0000918EB000849EB01094FEA49234FEAC4
S11328E0482043EAD8514B0143EAD0634201121A0B
S11328F063EB010312EB080243EB0903990141EA7C
S113290092619001801A61EB030110EB080041EB26
S1132910090155F82620002300F0C0FFBDE8F88324
S11329204520044901EB8601FFF794FBA9E700BFAA
S1132930007003403000002002310901014B5A505D
S1132940704700BF0070034043EA024302310901AB
S113295001484350704700BF00700340074B8A1C76
S11329601201985803EB01139B6AC3F38103012BF3
S113297004BF83B203EB1040704700BF00700340F4
S1132980074B8A1C03EB0212506803EB01139B6A8A
S1132990C3F38103012B04BF83B203EB10407047E0
S11329A000700340024A136919431161704700BF64
S11329B000700340024A136923EA01011161704760
S11329C000700340014BD868084070470070034012
S11329D0014BD960DB6870470070034008B5FFF70E
S11329E041FB00200121FFF7F3FF08BD08B5FFF705
S11329F07BFB08BD08B5FFF735FB08BD10B582B0F9
S1132A00164BB3F88A204FF08C41154B43F8221033
S1132A10144A936843F001039360452001A9FFF72A
S1132A2019FB114C00202146FFF7C0FC0020014691
S1132A30221DFFF77FFD30200F21FFF71FFC302000
S1132A400A490022FFF7D4FB064B5969002041F0E4
S1132A500101FFF709FD02B010BD00BFC040000036
S1132A600050064000700340D8410000DD290000FA
S1132A7008B54FF0E022D2F8883D43F47003C2F861
S1132A80883DFFF7F3FB00F0A9FDFFF72DFBFFF7EF
S1132A90B5FFFFF7DDFBFEE760B170B506460C46F7
S1132AA00025204600F0DAF801351834B542F8D193
S1132AB0002070BD00207047012A0AD012B1022AFA
S1132AC010D0704750F8213023F0020340F8213031
S1132AD0704750F8213023F0010343F0020340F81B
S1132AE02130704750F8213043F0030340F821307F
S1132AF0704700BF08B500F039F908BD50F821301F
S1132B0023F47023120402F47022134340F821309A
S1132B10704700BF50F82100C0F30340704700BF66
S1132B2050F8213043F0807340F82130704700BFE3
S1132B30D0F8C03001228A401343C0F8C030704737
S1132B40D0F8C03001228A4023EA0203C0F8C03022
S1132B50704700BF0B7803F00103C0F8C4304B7812
S1132B6003F01F03C0F8C830704700BFD0F8A000BE
S1132B70704700BF4FF0FF33C0F8A030704700BF6C
S1132B804069704710B4446901238B4024EA03036D
S1132B908A401A4342615DF8044B704741617047B3
S1132BA0816170478069704708B500F007F908BD76
S1132BB008B500F019F908BD10B4046801238B406E
S1132BC024EA03038A401A4302605DF8044B704709
S1132BD001607047006870474160704781607047CA
S1132BE0C1607047006970471A4B98421ED1102982
S1132BF029D8DFE801F0090C2828282828282828C3
S1132C002828280F1215180042F00100704742F0DE
S1132C100200704742F00400704742F00800704719
S1132C2002F00E00704702F00D0070470A4B984204
S1132C300BD111B1012903D009E002F00B00704758
S1132C4002F007007047FF207047FF207047FF2005
S1132C50704700BF00A0044000B0044070B50446B3
S1132C600068616850F82120237A012B06D013B143
S1132C70022B08D009E022F0020206E022F0010251
S1132C8042F0020201E042F00302637A1D0105F002
S1132C90100322F050051D43A37A9B0103F0400367
S1132CA01D4325F4E065E37A082B14D12E4B5A68B2
S1132CB002F00F02FFF798FFFF280BD02A4B5A6847
S1132CC022F00F025A605A6800F00F001043586057
S1132CD0002300E000231B0203F4E0631D43237B75
S1132CE0DB039BB225F478251D43637B1B0403F4AB
S1132CF070231D43A37B0BB145F080752368626884
S1132D0043F822502068D0F8C01065680123AB4016
S1132D1021EA0302E37BAB401343C0F8C030E37AFB
S1132D20012B1FD121694B69227D12B1012A06D0E2
S1132D300AE0616801228A4023EA020310E0606825
S1132D4001228240134301E0012A09D10D6866681B
S1132D500122B24025EA0200627DB24002430A60C9
S1132D602269536170BD00BF0080044070B5054600
S1132D700E4650F82140082A14D10F4B5A6802F02D
S1132D800F02FFF731FFFF280BD00B4B5A6822F0DC
S1132D900F025A605A6800F00F0010435860002276
S1132DA000E0002224F4E064120202F4E062224310
S1132DB045F8262070BD00BF0080044022F4F14293
S1132DC022F02C0292B21BB110B4012B05D008E002
S1132DD042EA0142C0F88020704742EA0142C0F84A
S1132DE084205DF8044B7047120402F470221BB176
S1132DF010B4012B04D006E00A43C0F888207047C1
S1132E000A43C0F88C205DF8044B70472DE9F04F5D
S1132E1083B08379012B03D073B1022B06D011E068
S1132E20204B1E7B022740F2031B0FE01D4B1E7B31
S1132E3001274FF4827B09E01A4B1E7B022740F2E4
S1132E40031B03E001274FF0000B5E4600230B70C9
S1132E5006B391460C4680469A46124DCDF804B00E
S1132E60AA6852F8233073B11A79BA420BD01A689F
S1132E7040469968904730B123786B73B9F1010FDC
S1132E800BD1DDF804A023780133DBB223709E421A
S1132E90E6D803E04FF0000A00E0DA46504603B0FB
S1132EA0BDE8F08F6000002010B5094C206021714E
S1132EB00021A17322B11146A1602373637304E05E
S1132EC0034B00229A601A735A7300F0DDF810BDA8
S1132ED06000002008B5044B00221A601A719A6041
S1132EE01A7300F011F908BD60000020044B9A7BAE
S1132EF00270587B1B7BC01A18BF0120704700BFAB
S1132F0060000020054B1A68997B52F8212002606A
S1132F10587B1B7BC01A18BF01207047600000203B
S1132F20014B587B704700BF60000020054B5A7B63
S1132F301B7B934283BF034B9B6853F82200002002
S1132F40704700BF60000020F0B585B006460C460F
S1132F5000238DF80F301B4B1A6852F820701A7B2F
S1132F605A738DF809108DF80800019701238DF824
S1132F700A3001A80DF10F012246FFF747FF012C8B
S1132F8001D0054688B9384600F0D2F8054660B944
S1132F900C4B9E7302238DF80A3001A80DF10F012A
S1132FA00122FFF733FF054608E000238DF80A30BD
S1132FB001A80DF10F010122FFF728FF284605B0F3
S1132FC0F0BD00BF600000200123037000234370A4
S1132FD0704700BF124BD3F8003623F00103114AA7
S1132FE012780AB143F001030D4AC2F80036D2F850
S1132FF0003323F001030B4A52780AB143F0010372
S1133000074AC2F80033D2F8003123F00103054A1D
S113301092780AB143F00103014AC2F800317047C3
S11330200040064034000020094BD3F8002622F06B
S11330300102C3F80026D3F8002122F00102C3F8EC
S11330400021D3F8002322F00102C3F800237047C3
S1133050004006400378042B11D000B583B004234C
S11330608DF800300123ADF802300223ADF80430AE
S1133070ADF8063000206946FEF74AFD01E0002065
S1133080704703B05DF804FB30B583B000238DF8BE
S113309005308DF80430184B1C79A4B11968043933
S11330A00023012551F8042F107808B98DF8055034
S11330B01278022A01D0052A01D18DF80450013377
S11330C0DAB29442EED80D4801A900F07BFA0C4A1A
S11330D0D2F800160B4B01F001011970D2F800135D
S11330E001F001015970D2F8002102F001029A7036
S11330F0002003B030BD00BF6000002000E00740A6
S1133100004006403400002000207047074B5B69F4
S1133110DBB2042B06D0802B06D0012B0CBF012080
S113312006207047022070470020704700E00740E7
S113313030B583B005460378022B00F2C680AE4A50
S11331405269D2B2042A00F0378106D8012A00F06D
S11331504881022A00F02E8158E1102A00F054819F
S1133160802A40F05381012B4CD0002B00F0A18029
S1133170022B6BD004245DE102A9012301F8083D70
S11331809D4800F0C5F90446002840F053819B4B4C
S1133190DB69C3F30363062B14BF00230123984A9E
S11331A0127832B9964A5278002A40F00F810124ED
S11331B040E113B9924B5B7803B3914BDB78A3B135
S11331C0FFF708FF00208F49FEF7A2FC0446002801
S11331D040F0308100238A4AD37002A901F8043DEB
S11331E0854800F095F9044624E102A9002301F87A
S11331F0043D814800F08CF904461BE1012419E1E7
S1133200012417E1802302E0042300E00123012BC1
S11332100AD002A9012301F8083D774800F078F9A3
S11332200446002840F00681754BDB78002B42D021
S1133230FFF7D0FE00207349FEF76AFC044600281D
S113324040F0F88000226E4BDA70F3E0802202E056
S1133250042200E00122042A2FD0674B5B69DBB211
S1133260012B0AD002A9012301F8083D624800F0AD
S11332704FF90446002840F0DD80614BDB7813B938
S11332806048FEF7CDFC5F48FFF7E4FE04460028E3
S113329040F0D08001225A4BDA7002AC022304F8C9
S11332A0083DFFF7C1FE5448214600F031F90446B9
S11332B0C0E00024BEE00024BCE00024BAE0042402
S11332C0B8E00424B6E00424B4E04B4A5269D2B214
S11332D0012A03D0042A40F0A4807BE0032B63D3AB
S11332E0042B0BD9052B14D05EE002A9012301F8AD
S11332F0043D414800F00CF9044600E000242B781A
S11333008DF80430032B0CBF012302238DF8053004
S11333102BE0012300E00423012B0AD0042B08D066
S113332002A9012301F8043D334800F0F1F80446F2
S1133330C0B9FFF7EBFE012813D1314BDB7813B989
S11333403048FEF76DFC2F48FFF784FE044648B969
S113335001222B4BDA7005238DF80430FFF764FE4D
S113336000E0002405238DF80430002C62D16B7832
S113337043B14FF0E022D2F8103D43F00203C2F80B
S1133380103D07E04FF0E022D2F8103D23F0020395
S1133390C2F8103D184801A900F0BAF840F2011330
S11333A0002818BF1C4645E0042443E0042441E0FF
S11333B004243FE002222AE0012B3FF425AF002B36
S11333C03FF4DAAE022B3FF443AF78E7002B7FF4EF
S11333D017AFF2E6032BE9D3042B86D9052B9AD039
S11333E0E4E7012B3FF412AF002B3FF4D0AE022BE5
S11333F03FF430AF65E700BF00E0074000400640FF
S11334003400002038000020102200E0FF22012BAD
S11334103FF4FFAE002B3FF4AFAE022B3FF41BAFE3
S113342051E7032BC4D3042B7FF65FAF052B3FF486
S113343077AFBDE7204603B030BD00BF80680139D7
S11334400C2929D8DFE801F0070A0D2810131619F2
S11334501C1F22282500C0F340007047C0F38000E1
S11334607047C0F3C0007047C0F340107047C0F30A
S113347080107047C0F3C0107047C0F3002070473D
S1133480C0F340207047C0F380207047C0F3C020D1
S11334907047C0F340307047002070472DE9F04179
S11334A0802902D000246AB303E06423013BFDD1E8
S11334B0F8E700244FF004084FF0FF0C4FF0100E13
S11334C08027012602254369DBB2042B0CD004D8E3
S11334D0012B11D0022B05D00CE0102B06D0802B31
S11334E006D007E02B4608E0434606E0734604E0B6
S11334F03B4602E0634600E03346994202D0013481
S11335009442E0D194422CBF00200120BDE8F08118
S113351008B50B78052B52D8DFE803F023031232E9
S11335203232C36823F06003C36001214FF47A721E
S1133530FFF7B4FF002840F2011018BF002008BDB7
S1133540C36823F0600343F04003C36004214FF4D5
S11335507A72FFF7A3FF002840F2011018BF002081
S113356008BDC36843F06003C36080214FF47A72DE
S1133570FFF794FF002840F2011018BF002008BD97
S1133580033BDBB2012B09D8036923F0C0024B785B
S11335909B01DBB213430361002200E00222C368F3
S11335A023F007031343C3604FF0E022D2F8103D29
S11335B043F00403C2F8103D30BF002008BD0420CE
S11335C008BD00BF0B78002B0CBF002320234A78D2
S11335D00AB143F080038360704700BF30B5A5B0E3
S11335E006AD28460021782200F026FC01248DF83F
S11335F018408DF819408DF81A408DF81B408DF84D
S11336001D408DF820408DF821408DF824408DF820
S11336102640304B0A938DF82D4003238DF82F302C
S11336208DF830408DF831408DF8354004228DF806
S11336303A208DF83C408DF83D308DF840408DF8AF
S113364048408DF84C308DF84D408DF84E308DF853
S11336504F4006228DF851208DF852308DF8544099
S113366002218DF855108DF856308DF857408DF89D
S113367059208DF85B408DF85C408DF860408DF8E2
S113368061408DF863408DF864408DF88C408DF86E
S11336908D4005950025049505A8214604AA2B46CE
S11336A0FEF746FC28462946FEF750FC8DF80C40F0
S11336B08DF80D5003AB0293019502A8214601AA8F
S11336C02B46FFF7F1FB28462946FFF73DFC25B0C2
S11336D030BD00BF00127A00013820F07F40034B58
S11336E0586000229A6007221A60704710E000E0D8
S11336F0264B274A9A4208D01346264A234813F8F1
S1133700011B02F8011B8342F9D1234B234A9A423D
S113371008D01346224A204813F8011B02F8011B63
S11337208342F9D11F4B204A9A4206D01346002106
S11337301C4A03F8011B9342FBD11C4B1C4A9A42BE
S113374008D013461B4A194813F8011B02F8011B41
S11337508342F9D1184B194A9A4210D010B4184C2C
S1133760A40808D01946002351F8040B42F8040BAE
S11337700133A342F8D1134B104A1A6003E0114BF2
S11337800D4A1A6070475DF8044B7047FC46000010
S1133790284200000084FF1FFC460000FC46000095
S11337A0D488FF1F7000002000000020FC460000A9
S11337B0FC46000000000020000000000080FF1F05
S11337C00004000008ED00E04FF0E023D3F8882D5A
S11337D042F47002C3F8882DD3F8342F22F08042CB
S11337E0C3F8342F054B064A5A605A6842F2201235
S11337F01A604FF6FF729A60704700BF00200540C0
S113380020C528D91B4B1A691B69C3F30363013B09
S1133810052B2DD8DFE803F024030D2C2C12154BB7
S1133820D3F8083203F00103002B134B08BF002325
S113383017E0104BD3F80833104B12E00D4BD3F8BC
S11338400806D3F80816C1F3044110310A4B03FBF0
S113385001F1C0F3022301335B00B1FBF3F300E099
S1133860054BC2F303420132B3FBF2F2044B1A607C
S1133870704700BF0040064000127A00006CDC0272
S1133880A084FF1F4FF0E021D1F80C2D92B2024B1F
S11338901343C1F80C3D70470400FA0553B94AB903
S11338A0002908BF00281CBF4FF0FF314FF0FF3044
S11338B000F03CB882B0EC462DE9005000F01EF850
S11338C0DDF804E002B00CBC704700BF2DE9F04104
S11338D0069C154606460F46984600F029F805FB57
S11338E001F300FB0838A5FB0023B21A434467EB3D
S11338F00303C4E90023BDE8F08100BF2DE9F041D2
S1133900069C904606460F461D4600F05FF900FBF4
S113391005F5A0FB082308FB0155B21A2B4467EBFD
S11339200303C4E90023BDE8F08100BF704700BF72
S113393000292DE9F043C0F2A6800026002BC0F236
S11339409C80884694469E46154604460F46002BA6
S11339503DD18A4259D9B2FA82F33BB1C3F1200274
S11339609F4020FA02F29D4017439C40290C220CF0
S1133970B7FBF1FEA8B201FB1E7742EA074700FB42
S11339800EF3BB420AD97F190EF1FF3280F0058194
S1133990BB4240F20281AEF1020E2F44FF1AA4B2E0
S11339A0B7FBF1F301FB137744EA074700FB03F08D
S11339B0B84208D97F1903F1FF3280F0F080B84291
S11339C040F2ED80023B43EA0E43002203E08B42C7
S11339D00FD900221346341C18BF012460424FF053
S11339E0000565EB45015840514000196941BDE8A7
S11339F0F083B3FA83F2002A40F086808B4202D32C
S1133A00844500F2DB800123E5E712B90123B3FB0F
S1133A10F2F5B5FA85F000283BD1781B4FEA154E34
S1133A201FFA85FC0122B0FBFEF8210C0EFB1807DF
S1133A3041EA07470CFB08F3BB4207D97F1908F199
S1133A40FF3102D2BB4200F2BD808846FF1AA4B205
S1133A50B7FBFEF30EFB137744EA07470CFB03FCAA
S1133A60BC4507D97F1903F1FF3102D2BC4500F2EE
S1133A70A7800B4643EA0843ADE752426FEA0606C5
S1133A8063EB43035DE7404261EB41014FF0FF36D6
S1133A9054E7C0F1200224FA02F107FA00F385404A
S1133AA04FEA154ED7401943B7FBFEF20B0C0EFB41
S1133AB012771FFA85FC43EA07430CFB02F79F4287
S1133AC004FA00F407D95B1902F1FF3074D29F4263
S1133AD072D9023A2B44DF1B89B2B7FBFEF80EFB06
S1133AE0187341EA03430CFB08F79F4208D95B199A
S1133AF008F1FF315CD29F425AD9A8F102082B4445
S1133B00D81B48EA02428EE7C2F120032CFA03F1E3
S1133B100EFA02FE20FA03F741EA0E0E08FA02F04A
S1133B2028FA03F14FEA1E453843B1FBF5F8030CBC
S1133B3005FB18111FFA8EF743EA014107FB08F34E
S1133B408B420CFA02FC09D911EB0E0108F1FF3982
S1133B5030D28B422ED9A8F102087144C91A80B21E
S1133B60B1FBF5F305FB131140EA014107FB03F731
S1133B708F4208D911EB0E0103F1FF3016D28F42A8
S1133B8014D9023B714443EA0843C91BA3FB0C89C3
S1133B90494509D305D000221DE79646FEE61346A3
S1133BA011E794404445F6D2013BF4E70346EAE7C3
S1133BB08846A5E7C846D1E702468CE713460AE7DC
S1133BC0023B57E7A8F102082F443FE72DE9F041F3
S1133BD0002B44D18A42154604464FD9B2FA82F7E3
S1133BE00E464FB1C7F12003B94020FA03F602FA9A
S1133BF007F50E4300FA07F44FEA154E230CB6FB03
S1133C00FEF0AFB20EFB106143EA014307FB00F183
S1133C10994209D95B1900F1FF3280F0EC80994296
S1133C2040F2E98002382B445A1AA4B2B2FBFEF3E4
S1133C300EFB132244EA024207FB03F7974208D91A
S1133C40521903F1FF3180F0D880974240F2D580B9
S1133C50023B43EA004000263146BDE8F0818B4236
S1133C6047D8B3FA83F6002E48D18B4202D382425E
S1133C7000F2CD8001203146BDE8F08112B9012562
S1133C80B5FBF2F5B5FA85F8B8F1000F77D14A1B08
S1133C904FEA154EAFB20126B2FBFEF0230C0EFB29
S1133CA0102143EA014107FB00F38B4207D949196C
S1133CB000F1FF3202D28B4200F2BA801046C91AD8
S1133CC0A4B2B1FBFEF30EFB131144EA014407FB5B
S1133CD003F7A74208D9641903F1FF3280F08F80FB
S1133CE0A74240F28C80023B43EA00403146BDE8E3
S1133CF0F081002630463146BDE8F081C6F120044B
S1133D0022FA04F5B3402B4320FA04FC01FA06F727
S1133D1021FA04F54FEA134E4CEA0707B5FBFEF807
S1133D20390C0EFB18551FFA83FC41EA05450CFBC0
S1133D3008F1A94202FA06F204D9ED1808F1FF3499
S1133D4067D3A0466D1ABFB2B5FBFEF40EFB145543
S1133D5047EA05410CFB04FC8C4504D9C91804F15D
S1133D60FF355CD32C4644EA0844CCEB0101A4FBA8
S1133D700223994248D344D0204600266CE7C8F178
S1133D80200401FA08F305FA08F520FA04F7E140E3
S1133D904FEA154E1F43B1FBFEF63A0C0EFB16110B
S1133DA01FFA85FC42EA01430CFB06F29A4200FA30
S1133DB008F407D95B1906F1FF3137D29A4235D995
S1133DC0023E2B449B1ABFB2B3FBFEF00EFB103332
S1133DD047EA03430CFB00F1994207D95B1900F150
S1133DE0FF3221D299421FD902382B445A1A40EA91
S1133DF00646674650E7104616E70B4629E7134682
S1133E0072E7B0409042B7D2601E002624E73046E5
S1133E1022E7A94295D9A8F102081D4492E78C45EE
S1133E20A0D9023C19449EE71046DFE70E46C9E7D5
S1133E300238294443E700BF70B4840746D0541EB7
S1133E40002A41D0CDB2034602E0621EE4B3144618
S1133E5003F8015B9A07F8D1032C2ED9CDB245EAB9
S1133E6005250F2C45EA054519D903F1100226460C
S1133E70103E0F2E42F8105C42F80C5C42F8085CCD
S1133E8042F8045C02F11002F2D8A4F1100222F00C
S1133E900F0204F00F041032032C13440DD91E46F4
S1133EA02246043A032A46F8045BFAD8221F22F079
S1133EB003020432134404F003042CB1C9B21C44B9
S1133EC003F8011BA342FBD170BC704714460346A0
S1133ED0C2E700BF024B13B1024800F005B87047B7
S1133EE000000000F53E00000146002002460346A3
S1133EF000F016B838B5084B084DED1AAC1018BFD1
S1133F00ED1805D0013C55F8043D9847002CF9D133
S1133F10BDE8384000F078B924420000284200008F
S1133F202DE9F047254C2568D5F8484106468846D2
S1133F3092469946CCB360681F2818DC431C7EB1B6
S1133F4004EB80050121C5F888A0D4F8887101FA32
S1133F5000F21743022EC4F88871C5F808911ED0E8
S1133F600230636044F820800020BDE8F087144BE1
S1133F7003B34FF4C870AFF300800446D0B1D5F852
S1133F804831002780E88800C5F8484138460123B5
S1133F90C4F88871C4F88C71002EE1D0D0E7D4F84D
S1133FA08C110A43C4F88C21DAE705F5A674C5F828
S1133FB04841C0E74FF0FF30BDE8F087F84100000A
S1133FC000000000000000000000000000000000ED
S1133FD000B4C404006CDC02B0F3960100B4C40461
S1133FE0006CDC02B0F3960100B4C404006CDC0283
S1133FF0B0F3960100000000000000000000000083
S113400000000000000000000000000000B4C40430
S1134010005A6202B0F396010000000000000000A4
S11340200000000000093D0000093D0040420F006F
S113403000093D0000093D0040420F0000093D0019
S113404000093D0040420F00000000000000000095
S1134050000000000000000000000000000000005C
S113406000093D0000093D0040420F00000000002F
S1134070000000000000000000FCAC06007E5603B7
S1134080003FAB0100FCAC06007E5603003FAB01D1
S113409000FCAC06007E5603003FAB0100000000AC
S11340A0000000000000000000000000000000000C
S11340B00000000000FCAC06007E5603003FAB018C
S11340C000000000000000000000000000000000EC
S11340D000000000000000000000000000000000DC
S11340E000000000000000000000000000000000CC
S11340F000000000000000000000000000000000BC
S113410000000000000000000000000000000000AB
S11341100000730032002100610049004A004B0096
S11341204C004D003D000000240025002B0036000B
S11341303100000020000000380039003A00260059
S113414000003B0027005A00660037002C002D00B9
S11341502E0040006A006B006C00000000000000AC
S1134160000102030405060708090A0B0C0D0E0FD3
S1134170000000000000000000000000000000003B
S113418000000000000000000000000000000041EA
S11341904141414100000000002020202020202037
S11341A020202000404040404000800048484848CB
S11341B000303030303030303036303030000000B5
S11341C000000102030405060708090A0B0C0D0E82
S11341D00F00000030313233000100000001000004
S11341E0A0860100010000000100000000000000A2
S11341F00100000043000000A884FF1FF8B500BFC1
S1134200F8BC08BC9E467047F8B500BFF8BC08BCB3
S10742109E4670470B
S10B42141CF7FF7F010000000C
S10B421CD53E0000350400004A
S1074224110400007D
S11342284101020000420102000029010000002AA5
S1134238010000002B010000002C010000003401E3
S113424800000035010000003601000000430102AF
S113425800003A010000003C010200003D01020098
S1134268003E010200003F01020000440102000078
S1134278450102000046010200004701020000480F
S11342880102000049010200004A010200004B013A
S11342980200004C01020000370100000038010050
S11342A800002D010000002E010000002F01000075
S11342B8003001000000310100000032010000005C
S11342C8006CDC0200000000000000009487FF1F5F
S11342D8FC87FF1F6488FF1F000000000000000027
S11342E800000000000000000000000000000000C2
S11342F8000000000000000000000000F44100007D
S113430800000000000000000000000000000000A1
S11343180000000000000000000000000000000091
S11343280000000000000000000000000000000081
S11343380000000000000000000000000000000071
S11343480000000000000000000000000000000061
S11343580000000000000000000000000000000051
S11343680000000000000000000000000000000041
S113437801000000000000000E33CDAB34126DE6DE
S1134388ECDE05000B000000000000000000000047
S11343980000000000000000000000000000000011
S11343A80000000000000000000000000000000001
S11343B800000000000000000000000000000000F1
S11343C800000000000000000000000000000000E1
S10746F800000000BA
S903046D8B
