S01B0000666C657863616E5F6563686F5F7333326B3134782E6D6F7408
S1130000007000206D040000C9040000C904000051
S1130010C9040000C9040000C90400000000000075
S1130020000000000000000000000000C9040000FF
S1130030C904000000000000C9040000615B000066
S1130040652D0000712D00007D2D0000892D00001C
S1130050952D0000A12D0000AD2D0000B92D00004C
S1130060C52D0000D12D0000DD2D0000E92D00007C
S1130070F52D0000012E00000D2E0000192E0000A9
S1130080252E0000C9040000C9040000C9040000B2
S1130090C9040000C9040000C9040000C904000028
S11300A0C9040000C9040000C9040000C904000018
S11300B0C9040000C9040000C9040000C904000008
S11300C0C9040000C9040000C9040000C9040000F8
S11300D0C9040000C9040000C9040000C9040000E8
S11300E0C9040000C9040000C9040000C9040000D8
S11300F0C9040000C9040000C9040000C9040000C8
S1130100A55A0000C9040000C9040000C904000085
S1130110C9040000C9040000C9040000C9040000A7
S1130120C9040000C9040000C9040000C904000097
S1130130C9040000C9040000C9040000C904000087
S1130140C9040000C9040000C9040000C904000077
S1130150C9040000C9040000C9040000C904000067
S1130160C9040000C9040000C9040000C904000057
S1130170C9040000C90400001D52000029520000F7
S113018035520000415200004D520000C9040000E5
S1130190C90400005952000065520000C90400005F
S11301A071520000C9040000C9040000C904000021
S11301B08952000095520000C9040000A1520000B9
S11301C0C9040000C9040000C9040000C9040000F7
S11301D0C9040000C9040000C9040000C9040000E7
S11301E0C9040000C9040000C9040000C9040000D7
S11301F0C9040000C9040000C9040000C9040000C7
S11303F0C9040000C9040000C9040000FFFFFFFF96
S1130400FFFFFFFFFFFFFFFFFFFFFFFFFE7FFFFF79
S113041010B5054C237833B9044B13B10448AFF33A
S113042000800123237010BD0000002000000000A4
S1130430B4740000084B10B51BB108480849AFF369
S113044000800848036803B910BD074B002BFBD09C
S1130450BDE81040184700BF00000000B47400005D
S113046004000020D088FF1F0000000072B610496D
S11304700F4A0F4B0E4C0E4D0D4E0D4FB846B9465C
S1130480BA46BB46BC460B490B4A521A013A05DD33
S11304900020042308601944043AFBDA074885461F
S11304A0074880470748804762B605F045FBFEE7EA
S11304B0000000000080FF1F00700020007000207A
S11304C0D1690000F9680000FFF7FEBF074B5B69C4
S11304D0DBB2042B06D0802B06D0012B0CBF0120ED
S11304E004207047022070470320704700E0074053
S11304F0044BD3F8003113F0807F1ABF024B186805
S113050000207047004006405400002010B584B01D
S11305100B46A1B900238DF804308DF80C3001226C
S11305208DF808208DF809208DF805208DF8063007
S113053002238DF8073004AB3A4A43F8102D3A4AA7
S1130540D2F8002112F0007F67D1374AD2F80011A7
S113055021F40001C2F800114FF08061C2F80011CB
S11305600021324A1160002859D05A7A120202F44A
S1130570E0611A7A02F007020A432B48C0F804210A
S11305809979C90001F00801DA79120102F0300208
S113059011435A79920002F004020A43C0F8082178
S11305A01A79012A0FD012B1022A18D023E01A7B3B
S11305B0002A14BF4FF40002002242F001021A493B
S11305C0C1F8002117E01A7B002A14BF4FF400027F
S11305D0002242F001121449C1F800210BE01A7BF9
S11305E0002A14BF4FF403024FF4403242F00102D8
S11305F00D49C1F800211A680C4B1A600C4C00E03C
S1130600013CFFF775FF18B9002CF9D1032007E06E
S1130610002C14BF0020032002E0022000E0002090
S113062004B010BD00127A000040064054000020BF
S113063088E73000084BD3F8003213F0807F09D0EC
S1130640054BD3F8083203F00103002B034808BF1D
S113065000207047002070470040064000127A00D6
S113066010B582B00B4671B900238DF80430012215
S11306708DF805208DF806308DF801208DF80220C4
S113068002AB03F8082D254AD2F8002212F0007FAD
S11306903FD1224AD2F8001221F40001C2F800121C
S11306A00021C2F80012002835D09A78120202F410
S11306B0E0615A7802F007020A431849C1F804229B
S11306C01A7802F00102C1F808225A7999791B7943
S11306D0002B14BF03230123002A14BF0422002289
S11306E01A43002914BF4FF40003002313430B4A99
S11306F0C2F80032642400E0013CFFF79BFF18B904
S1130700002CF9D1032007E0002C14BF00200320A3
S113071002E0022000E0002002B010BD00400640CC
S1130720054BD3F8003313F0807F1DBF024BD3F881
S1130730083302480020704700400640006CDC0289
S113074010B582B00B4661B901238DF80530002243
S11307508DF806208DF801308DF8023002AB03F8D5
S1130760082D224AD2F8002312F0007F38D11F4A04
S1130770D2F8001321F40001C2F800134FF0806195
S1130780C2F8001370B39A78120202F4E0615A7846
S113079002F007020A431549C1F804231A7802F04B
S11307A00302C1F808239A795B79002B14BF012353
S11307B00923002A14BF4FF4000200221343C1F896
S11307C00033142400E0013CFFF7AAFF18B9002C01
S11307D0F9D1032007E0002C14BF0020032002E01D
S11307E0022000E0002002B010BD00BF004006401F
S11307F008B50F4BD3F8003613F0807F14D0FFF701
S113080077FE034688B10A49D1F80826C2F30222CA
S11308100132B0FBF2F3D1F80826C2F304421032DD
S113082002FB03F35B0800E00023184608BD00BF89
S11308300040064010B584B00C4689B900238DF8F9
S113084004308DF80B3001228DF808208DF8092032
S11308508DF8053007228DF806208DF8073001AC9D
S1130860354BD3F8003613F0007F5FD1324BD3F809
S1130870002622F40002C3F800264FF08062C3F879
S11308800026002854D0FFF733FE63791B0203F4DB
S1130890E062237903F0070313432749C1F80436C0
S11308A0A3781B0403F4F81263781B0203F4E063D7
S11308B01343C1F808362378012B11D013B1022B4E
S11308C01AD00AE0E379002B14BF4FF4000300238D
S11308D043F00103184AC2F800364FF47A7419E061
S11308E0E379002B14BF4FF40003002343F00113FA
S11308F0114AC2F80036F0E7E379002B14BF4FF435
S113090003034FF4403343F001030B4AC2F80036AB
S1130910E3E7013CFFF76CFF18B9002CF9D1032081
S113092007E0002C14BF0020032002E0022000E0B6
S1130930002004B010BD00BF004006402DE9F04186
S113094007460D468C7801344E7806FB04460B7836
S113095003FB0448CB78013B052B10D8DFE803F0F8
S11309600306090F0F0CFFF7C3FD09E0FFF762FE52
S113097006E0FFF7D5FE03E0FFF73AFF00E00020B2
S11309800009022F3BD0032F6ED0012F40F0A4802A
S1130990EA7802EB42015F4B53F821301B0903FB59
S11309A004F4A04200F29B800B465A4901EB8303F6
S11309B05B681B0903FB06F6B04200F2938002EB6E
S11309C0420301EB83039B681B0903FB08F3984272
S11309D000F28B80120602F07062AB781B0403F401
S11309E070231A432B7803F00F031A436B781B010F
S11309F0DBB21343484A53610020BDE8F081EA7832
S1130A0002EB4201434B03EB81035B6D1B0903FBC8
S1130A1004F4A0426CD80B463E4901EB83039B6D62
S1130A201B0903FB06F6B04265D802EB420301EB57
S1130A308303DB6D1B0903FB08F398425ED812069F
S1130A4002F07062AB781B0403F470231A432B7812
S1130A5003F00F031A436B781B01DBB213432E4AD6
S1130A6093610020BDE8F081EA7802EB4201294B52
S1130A7003EB8103D3F8A8301B0903FB04F4A04261
S1130A803FD80B46234901EB8303D3F8AC301B0951
S1130A9003FB06F6B04237D802EB420301EB8303B3
S1130AA0D3F8B0301B0903FB08F398422FD8120681
S1130AB002F07062AB781B0403F470231A432B78A2
S1130AC003F00F031A436B781B01DBB21343124A82
S1130AD0D3610020BDE8F0810020BDE8F081012051
S1130AE0BDE8F0810120BDE8F0810120BDE8F0817E
S1130AF00120BDE8F0810120BDE8F0810120BDE8BE
S1130B00F0810120BDE8F0810120BDE8F0810120E1
S1130B10BDE8F081CC7100000040064038B50546C0
S1130B20FFF7D4FC2946FFF709FF044678B9E878B3
S1130B300A220849013A0B69C3F30363984203D0BC
S1130B40002AF7D1032402E0002A08BF0324204628
S1130B5038BD00BF0040064010B504461B4B1B695E
S1130B60C3F30363013B052B10D8DFE803F003064E
S1130B70090F0F0CFFF7BCFC09E0FFF75BFD06E073
S1130B80FFF7CEFD03E0FFF733FE00E000200F4B3C
S1130B901B69C3F303430133B0FBF3F0012C04D00E
S1130BA094B1022C09D0002010BD084B1B69C3F37B
S1130BB003130133B0FBF3F010BD044B1B6903F0C6
S1130BC00F030133B0FBF3F010BD00BF004006403B
S1130BD008B50F4B1B6AC3F30363062B15D8DFE874
S1130BE003F004080B0E141411000220FFF7B4FFE5
S1130BF008BDFFF77DFC08BDFFF71CFD08BDFFF72E
S1130C008FFD08BDFFF7F4FD08BD002008BD00BF3F
S1130C100040064008B511B1012927D04DE0043841
S1130C2003284DD8DFE800F00A02121AFFF778FD16
S1130C30294BD3F8043303F0070346E0FFF7FAFC2B
S1130C40254BD3F8043203F007033EE0FFF750FCD2
S1130C50214BD3F8043103F0070336E0FFF7C8FD56
S1130C601D4BD3F8043603F007032EE004380328A1
S1130C7029D8DFE800F00A02121AFFF751FD164BDB
S1130C80D3F80433C3F302231FE0FFF7D3FC124B62
S1130C90D3F80432C3F3022317E0FFF729FC0E4B09
S1130CA0D3F80431C3F302230FE0FFF7A1FD0A4B8D
S1130CB0D3F80436C3F3022307E00023184604E004
S1130CC00023184601E00023184613B1013BD84025
S1130CD008BD002008BD00BF0040064008B5114B08
S1130CE01B69C3F30113032B1AD8DFE803F00207CF
S1130CF0111406200021FFF78DFF08BD094B1B6965
S1130D00C3F34003002B14BF4FF4FA40002008BD86
S1130D10054B186808BD05200021FFF77BFF08BDBF
S1130D20002008BD008004405800002038B51E4B48
S1130D3003EB4000B0F8FC309B0003F1804303F563
S1130D40CA231868C0F3C0051C6804F00704A54250
S1130D5025D81A6812F0804F23D01B68C3F30263AE
S1130D60013B052B14D8DFE803F003070B13130F23
S1130D700620FFF74FFF0CE00420FFF74BFF08E0CD
S1130D800520FFF747FF04E00720FFF743FF00E0DB
S1130D9000200134B0FBF4F005FB000038BD002056
S1130DA038BD002038BD00BFCC710000104B1B695A
S1130DB0C3F38103022B07D0032B0FD0002B0CBFEE
S1130DC04FF4FA3000207047094B1B69C3F340030A
S1130DD0002B14BF4FF4FA4000207047044B1B69EA
S1130DE0C3F34003002B14BF4FF4FA4000207047B4
S1130DF00080044008B5244B5B6813F4006F40D0B6
S1130E00214B5B68C3F303130E2B09D8DFE803F00F
S1130E100A080D081208171C20252F0829082C0081
S1130E20002026E0FFF7D4FE23E006200121FFF78F
S1130E30F1FE1EE004200121FFF7ECFE19E005207D
S1130E400121FFF7E7FE14E00020FFF785FE10E024
S1130E5007200121FFF7DEFE0BE00120FFF77CFEF7
S1130E6007E0FFF7A3FF04E0FFF738FF01E04FF4CA
S1130E70FA30054B5B68C3F302230133B0FBF3F094
S1130E8008BD002008BD00BF0080044030B583B019
S1130E900546FFF7ADFC88B1062D51D006238DF829
S1130EA0073002238DF8063001238DF8053002A89F
S1130EB000F8043DFFF732FE044600E00124FFF78A
S1130EC02FFC88B1032D40D074B103238DF8073073
S1130ED000228DF8062001228DF8052002A800F8D2
S1130EE0043DFFF71BFE0446FFF702FB90B1012D02
S1130EF001D12FE001246CB101238DF807300022C9
S1130F008DF806208DF8053002A800F8043DFFF79F
S1130F1005FE0446FFF78EFB58B3022D29D044B3D7
S1130F2002238DF8073000238DF806308DF8053044
S1130F3002A8012300F8043DFFF7F0FD044618E081
S1130F40FFF7EEFB0028C0D109E0FFF7D1FA002833
S1130F50D1D10AE0FFF76EFB0028E0D109E0FFF7EA
S1130F60C7FA0028C6D10124D4E7FFF763FB0028A1
S1130F70D5D1204603B030BD174B1B69C3F30363BF
S1130F80013B052B0FD8DFE803F00306090E0E0C16
S1130F900123C37007E00223C37004E00323C3707A
S1130FA001E00623C3700C4B1A690C49C2F3031207
S1130FB00A4492F89C2142701A69C2F303420A441B
S1130FC092F89C2182701B6903F00F030B4493F881
S1130FD09C310370704700BF00400640CC71000094
S1130FE001383F282DD8DFE800F02A282C262C2CA5
S1130FF02C242C2C2C2C2C2C2C222C2C2C2C2C2C3F
S11310002C2C2C2C2C2C2C2C2C202C2C2C2C2C2C28
S11310102C2C2C2C2C2C2C2C2C2C2C2C2C2C2C2C0C
S11310202C2C2C2C2C2C2C2C2C2E06207047052000
S11310307047042070470320704702207047012046
S11310407047002070470720704700BFF0B5A1B07B
S11310500446002840F09D8001238DF80B300022C7
S11310608DF80C208DF80D308DF80E208DF8083099
S11310708DF809308DF80A308DF816308DF814305B
S11310808DF815208DF80F208DF810308DF8113063
S11310908DF838300D928DF82530924906918DF8EF
S11310A01C208DF824208DF81D308DF81E20022080
S11310B08DF81F008DF820308DF821308DF83030F8
S11310C08DF828208DF82F208DF829200C218DF8FB
S11310D02A108DF82B208DF82C308DF82D308DF8BA
S11310E03D3003218DF83C108DF84B308DF84110C4
S11310F08DF840208DF83F308DF83E308DF8450056
S11311008DF844308DF843208DF8421006208DF878
S113111049008DF848208DF847308DF84610724903
S11311201E9120211D918DF84C308DF84D208DF8A5
S11311304E208DF84F208DF850308DF854308DF8B6
S113114053308DF852208DF851208DF868308DF889
S113115069308DF86A308DF86B308DF86C308DF80D
S11311606D308DF873308DF85830179218921992AB
S11311708DF86E308DF86F308DF870208DF87120F9
S11311808DF872208DF87C308DF87D308DF87E20BE
S113119002AC2646002C00F0F580544B1B69C3F3C7
S11311A00363032B1CD0FFF7BBFA38B901200021DD
S11311B0FFF7C6FA0546002840F0018203238DF8A4
S11311C0073000228DF8062001228DF8052020A882
S11311D000F87C3DFFF7A2FC0546002840F0EF81B3
S11311E0E0783146FFF73CFA0546002840F0C48118
S11311F0607F04F11001FFF789F90546002840F0EB
S1131200BB8194F8280004F12001FFF713FB054685
S1131210FFF75CF9022806D0032807D0012808D17B
S113122004F1360606E004F13A0603E004F13E0652
S113123000E00026002D70D1F378032B58D194F8E8
S11312402830002B00F0A48106238DF807300223F8
S11312508DF8063001238DF8053020A800F87C3D78
S1131260FFF75CFC0546637F7BB1012820D1012395
S11312708DF8073000228DF806208DF8053020A85F
S113128000F87C3DFFF74AFC0546E37883B1012D65
S11312900ED102238DF8073000238DF806308DF827
S11312A0053020A8012300F87C3DFFF737FC0546F4
S11312B0002D32D1A07BE11DFFF742FA054660BB49
S11312C0F3788DF80730B3788DF8063073788DF89D
S11312D00530337820A800F87C3DFFF71FFC054655
S11312E01BE000BF00127A000084FF1F004006408C
S11312F08DF80730B3788DF8063073788DF80530A3
S1131300337820A800F87C3DFFF708FC054620B997
S1131310A07BE11DFFF714FA0546002D40F04F8134
S113132094F8303013B1E26AA64B1A6094F8353061
S113133053B1A5490B6A23F0706294F834301B064C
S113134003F0706313430B6294F84330D3B101206C
S113135004F13601FFF7F2FA0546002840F02F8128
S1131360022004F13A01FFF7E9FA0546002840F0AB
S11313702681032004F13E01FFF7E0FA0546002828
S113138040F01D8114F16C0F3AD0236F002B37D03D
S1131390E36E002B34D000218C488D4D01EB81028B
S11313A0236F9B5C00EB4303B3F8FC309B0003F119
S11313B0804303F5CA231E6826F080461E60236F0F
S11313C09E189F5CB3781B0603F0E062F378DB00A1
S11313D003F008031343327902F0070213437278CF
S11313E0002A14BF4FF080420022134300EB47074A
S11313F0B7F8FC2045F822300131E36E9942CDD391
S113140094F84430C3B194F8460094F84720714BE3
S11314105B6823F47F6194F84530002B14BF4FF4CC
S1131420006500250301DBB2120202F4E0621343FB
S11314300B432B43674A536094F84830DBB194F86C
S11314404A1094F84920634B1B6923F03F0394F836
S11314504C00034394F84B00002814BF02200020E2
S1131460890001F00C010B43120102F03002134316
S11314700343584A136194F86030002B00F09A80BB
S1131480544A136C23F0010394F861100B43136462
S1131490136C23F0020394F86220002A14BF022282
S11314A0002213434B4A1364136C23F0040394F88F
S11314B06320002A14BF042200221343454A136404
S11314C0136C23F0080394F86420002A14BF082244
S11314D0002213433F4A1364136C23F0100394F85F
S11314E06520002A14BF102200221343394A1364D2
S11314F060E094F86630EBB1364B9A6E0020986643
S11315005A6822F4805194F86820120302F480523D
S11315100A435A60986694F867305BB194F86A306D
S113152043F0805294F869305B0003F00E031343D8
S1131530284A936694F87430E3B127498B7803F012
S11315407F0294F8753083F0010342EAC313DBB2DF
S11315508B7094F8763013F0800F1CBF2033DBB20D
S11315601D490A7903F01F0302F0E00213430B71D3
S1131570002524E0002522E0FEF7A8FF02283FF41E
S113158052AE03283FF452AE01287FF4C6AE47E6BC
S1131590637F002B7FF46BAEE378002B7FF479AE8E
S11315A0012585E60D4B626D1A60A26D5A60E26DED
S11315B09A609EE794F85030002BF3D199E72846BF
S11315C021B0F0BD5800002000400640CC7100005E
S11315D0005006400080044000D007405C0000201A
S11315E070B504460D4611287FD8112876D8DFE857
S11315F000F0090F151B20252A2F34383D444B5287
S11316005960676E0020FFF7A7FA0346002067E0E1
S11316100120FFF7A1FA0346002061E00220FFF752
S11316209BFA034600205BE0FFF7E4FB034600203F
S113163056E0FEF7FFFF0346002051E0FFF770F885
S1131640034600204CE0FEF753FF0346002047E02A
S1131650FFF7CEF80346002042E0A74B1B680020AA
S11316603EE0FFF7B5FA0346002039E004200021EC
S1131670FFF7D0FA0346002032E004200121FFF7EF
S1131680C9FA034600202BE005200021FFF7C2FA27
S11316900346002024E005200121FFF7BBFA03469E
S11316A000201DE006200021FFF7B4FA03460020C5
S11316B016E006200121FFF7ADFA034600200FE0F3
S11316C007200021FFF7A6FA0346002008E00720C0
S11316D00121FFF79FFA0346002001E000230420C4
S11316E0002D00F056812B6070BD232800F2D180BC
S11316F0A0F115040E2C00F29680DFE804F0081423
S11317001F2A34393E47535F677079828B007B4BC5
S1131710DB68C3F30163022B00F28880784A52F835
S113172023300020B0E0754BDB68C3F38163022BE8
S11317307FD8734A52F823300020A5E06F4BDB6852
S1131740C3F30173022B77D86D4A52F8233000207B
S11317509AE06A4BDB689B0F022B70D8684A52F8F8
S11317602330002090E0FFF745FB034600208BE088
S1131770FFF7B4FA0346002086E0624B9B78DB094E
S113178060D1FFF713FB034600207DE05D4B9B789F
S1131790DB095AD1594B1B6913F0010F58D10023AF
S11317A0184671E0574B9B78DB0955D1534B1B69A5
S11317B013F0020F53D10023184665E0514B9B7878
S11317C0DB0950D14FF4FA3300205DE04B4B1B6C26
S11317D013F0100F4AD100234FF4807054E0474BAC
S11317E01B6C13F0080F44D100234FF480704BE0BE
S11317F0424B1B6C13F0040F3ED100234FF4807056
S113180042E03E4B1B6C13F0020F38D100234FF41F
S1131810807039E0394B1B6C13F0010F32D1002377
S11318204FF4807030E0002304202DE0002318469C
S11318302AE00023184627E00023184624E000236A
S1131840184621E0002318461EE0002318461BE03A
S11318504FF47A73002017E00023184614E04FF485
S1131860FA43002010E0002318460DE00023184638
S11318700AE00023184607E00023184604E000238A
S1131880184601E000231846002D00F082802B60EA
S113189070BD4D2854D8242854D900F0F703332BB5
S11318A052D0392852D0402852D04D2852D0164B0D
S11318B003EB4003B3F8FC20144B53F8223013F02D
S11318C0804F49D04CE00120FFF746F9002855D05D
S11318D04EE016F0400F05D00020FFF73DF9002838
S11318E04CD045E016F0800F42D00220FFF734F9C7
S11318F0002843D03CE000BF580000200080044092
S11319005C00002000D00740CC710000005006406D
S113191016F0080F36D020460021FFF707FA0346D9
S113192016F0100F04D020460121FFF7FFF90346FB
S1131930002B14BF00204FF4807055B32B6070BD92
S1131940042070BD042009E0042007E0042005E021
S1131950042003E0042001E04FF480700023ECE74E
S11319600C4B034493F8AC6116F0200FB1D0AAE7F6
S113197016F0180FCCD100231846DEE700234FF4ED
S11319808070DAE716F0100FCDD100234FF4807089
S1131990D3E770BDCC71000070B582B00446084630
S11319A0F9B901238DF80030FEF744FE60B9FEF763
S11319B0B7FE58B9FEF71CFF50B9FEF799FD002891
S11319C014BF06234F2304E0042302E0052300E0B0
S11319D007238DF801300123ADF80230ADF804304F
S11319E06846484B234493F8AC3113F0010F47D1B8
S11319F013F0180F0FD04278043A032A0DD8DFE809
S1131A0002F002040608022608E0032606E0012686
S1131A1004E0062602E0002600E0002613F0040F8E
S1131A201ABF818801F1FF31002113F0020F1ABFA0
S1131A30428802F1FF320022324B03EB4403B3F835
S1131A40FC309B0003F1804303F5CA231D6825F095
S1131A5080451D600378002B51D0360646F0804641
S1131A6001F007013143D20002F008020A43254B7A
S1131A7003EB4404B4F8FC10234B43F821203EE06C
S1131A8003781F3C042C3AD8DFE804F02E22160A0F
S1131A9003001E490A6C22F0010213430B642EE07A
S1131AA01A4A126C22F00202002B14BF02230023F4
S1131AB01343164A136422E0144A126C22F00402FF
S1131AC0002B14BF042300231343104A136416E0AD
S1131AD00E4A126C22F00802002B14BF08230023C4
S1131AE013430A4A13640AE0084A126C22F01002F3
S1131AF0002B14BF102300231343044A136402B0C1
S1131B0070BD00BFCC71000000500640008004404E
S1131B1070B582B005460C46FEF7D8FC06465DB1AA
S1131B202B68022B06D0042B08D0012B0CBF0125F7
S1131B30042504E0022502E0054600E00325D4BBA9
S1131B40FEF7EEFD58B103238DF8073000228DF81F
S1131B50062001228DF805208DF8043051E0FEF7AF
S1131B6047FE58B106238DF8073002238DF806305E
S1131B7001238DF805308DF8043042E0FEF7B8FCFF
S1131B8050B101238DF8073000228DF806208DF81E
S1131B9005308DF8043034E0FEF74CFD88B30223A1
S1131BA08DF8073000238DF806308DF805300123B9
S1131BB08DF8043025E02378043B032B09D8DFE8B3
S1131BC003F00A020406032306E0012304E00623CB
S1131BD002E0FF2300E002238DF807300F4A6388F8
S1131BE0134493F8FC318DF80630A388134493F81A
S1131BF0FC318DF80530E388134493F8FC318DF8FB
S1131C000430B54203D101A8FEF788FF03E028465B
S1131C1001A9FEF793FE02B070BD00BFCC710000B5
S1131C20154B1B69C3F30363013B052B10D8DFE895
S1131C3003F00306090F0F0C062303700AE00423C4
S1131C40037007E00523037004E00723037001E039
S1131C5004230370084A1369C3F303430133438025
S1131C601369C3F3031301338380136903F00F0370
S1131C700133C380704700BF004006402DE9F041A6
S1131C8086B004460D4649B18889FFF7A9F9804614
S1131C90E889FFF7A5F907462E7802E00127B84640
S1131CA03E46201F172800F23381DFE810F01800A9
S1131CB053008B00E1003101310131013101310167
S1131CC03101310131013101310131013101310180
S1131CD03101310131013101310131011A018F4BDF
S1131CE01B69C3F30363022B0CD18EB301A8FFF766
S1131CF043F90220FFF7CAF80346002840F009819F
S1131D00012400E000242DB901200021FEF7A8FCE5
S1131D10034612E001238DF80D308DF80C300022BB
S1131D208DF80E208DF809808DF80A7006A901F847
S1131D30103D3046FEF794FC0346002B40F0E9804A
S1131D40002C00F0E68001A8FEF7E8FE0346E0E080
S1131D500123DEE0714B1B69C3F30363032B0CD136
S1131D6076B301A8FFF708F90320FFF78FF80346BD
S1131D70002840F0CE80012400E000242DB9304634
S1131D800021FEF7DDFC03460FE000238DF80E3042
S1131D908DF809808DF80A708DF808308DF80D30B3
S1131DA0304602A9FEF7CCFC0346002B40F0B1807C
S1131DB0002C00F0AE8001A8FEF7B0FE0346A8E0B8
S1131DC00123A6E0554B1B69C3F30363012B0DD11B
S1131DD0002E4BD001A8FFF7CFF80120FFF756F8EB
S1131DE00346002840F09580012400E000242DB92A
S1131DF030460021FEF78AFB03462EE06B6802930F
S1131E0000228DF80C208DF814208DF810808DF8A8
S1131E1011706A78012A14BF002201228DF80D2066
S1131E2000228DF80E20A3F57412A2F510623C492D
S1131E308A4203D802238DF80F3009E0A3F5F40396
S1131E40A3F59053374A93429CBF03238DF80F3078
S1131E50304602A9FEF75AFB0346002B59D1002C49
S1131E6057D001A8FEF75AFE034652E0012350E082
S1131E702A4B1B69C3F30363062B0BD17EB301A862
S1131E80FFF77AF80620FFF701F80346002840D14F
S1131E90012400E000242DB930460021FEF7CAFCDD
S1131EA0034615E000238DF808308DF80F308DF8C7
S1131EB00C808DF80D70AB7A013B8DF809302B7ACC
S1131EC0103B8DF80A30304602A9FEF7B3FC0346F6
S1131ED0FBB9F4B101A8FEF721FE034619E0012382
S1131EE017E076B1104A136923F03F0343F003036C
S1131EF0136102F55432937803F07F039370002347
S1131F0007E00A4A937843F080039370002300E0CB
S1131F100023184606B0BDE8F08100BF004006402B
S1131F2000093D000048E8010080044000D007405B
S1131F3010B4054C20602171A260237363730020E8
S1131F405DF8044B704700BF1C000020F0B583B05F
S1131F5007460E468DF804008DF8051003F0EAF9E3
S1131F60314A137B537301228DF80620002B46D08F
S1131F7000242D4DAB6853F8243053B11A79022A4A
S1131F8007D01A6801A89968904710B16C73002EA5
S1131F9041D00134E4B22B7BA342EBD830E00223DE
S1131FA08DF80630204B1B7B002B37D000241E4FAE
S1131FB0BB6853F824304BB11A79012A06D01A6849
S1131FC001A89968904708B17C73AEB10134E4B2BA
S1131FD03B7BA342ECD821E000238DF80630124E5F
S1131FE0B36853F824301BB11A6801A89968904764
S1131FF0A4B1013CE4B2F3E74FF482750EE000248F
S1132000094D2B6853F82700FFF720F86F71054638
S11320100028C4D0E0E740F20315DDE703F07CF9C3
S1132020284603B0F0BD00BF1C000020014B5879C6
S1132030704700BF1C000020054B5A7B1B7993425C
S113204083BF034B9B6853F822000020704700BFF6
S11320501C00002008B5FFF7C3FA08BD08B5FEF759
S1132060F5FF08BD29B14118002300F8013B88425F
S1132070FBD1704710B4064B1B6853F820406160D5
S113208053F820309A6000205DF8044B704700BF7D
S11320902C00002070B50446094D2B6853F82060CD
S11320A0084804F00F01002200F02EFD30461021F4
S11320B0FFF7D8FF2B68002043F8240070BD00BF51
S11320C02C0000200080004038B5102003F018F9DF
S11320D00D4B1B68A3B100240B4D2B6853F824301F
S11320E013B11878FFF7D6FF0134102CF5D1074D42
S11320F06C1E0F3514F9010F03F002F9AC42F9D14B
S11321000020014B186038BD2C000020DC73000057
S113211008B5084B1B6853F8203000F00F00064A3E
S11321201077D07723B15A6812B1197B9868904719
S113213008BD00BF2C0000200080004038B50546D3
S113214000F00F040A482146002200F0DDFC094B90
S11321501B6853F8253053B1054A1477D477947724
S113216001221A735A6812B1197B9868904738BDD6
S1132170008000402C0000202DE9F04F87B09DF82E
S11321804080119E012505FA08F5EFB2B6FBF7F47D
S113219007FB1464003418BF0124002C73D1059389
S11321A004920391814600F00F07DFF8ECA050463B
S11321B0394600F0AFFCDAF8003023F08003CAF8A7
S11321C000307B0103F1804202F5004B02F510421E
S11321D004981060534441F2100205989850CDF8C9
S11321E00080CDF80480504639460022134600F0A2
S11321F0C1FC039B032B2CD8DFE803F0020D192349
S1132200002241F204032BF803206DB2ADB27A012F
S11322101F4B9D521DE06DB2ADB241F204032BF889
S113222003507A011B4B134400229A8011E06DB2D3
S1132230ADB241F204032BF803507A01144B9D52C2
S113224007E0002141F204032BF803107A01104B3C
S11322509952114D28463946324600F0A3FC2846CF
S11322603946012200F02CFD05EB471707F580578E
S1132270BB8B9BB243F00203BB83084B1B6853F830
S1132280293000221A73204607B0BDE8F08F00BF42
S11322901490004010900040008000402C0000206A
S11322A070B582B004469DF818500095079D0195BD
S11322B0FFF762FF0646D0B904F00F040D4D28461F
S11322C02146089A00F0FCFC05EB441000F5805010
S11322D0838B23F008031B041B0C9DF82420002A85
S11322E014BF0822002213436401034A13533046E7
S11322F002B070BD008000401C90004008B500F0A2
S11323000F010348012200F0FFFB002008BD00BFBD
S11323100080004008B500F00F010348002200F0DF
S1132320F3FB002008BD00BF0080004010B40F4B39
S11323301C5C04F07F041C541C5C04F0C00401F019
S11323403F01214319541B5C03F0BF03002A14BF4F
S1132350402200221343054A1354135C43F08003C4
S1132360135400205DF8044B704700BF0010024076
S11323702DE9F04180460C464D7805F00F061021FA
S1132380FFF770FE6078A178227BFFF7CFFF074646
S11323901C48314600F0BEFB8FBB1B4B1B6843F847
S11323A0258053F82520157053F8253000221A7320
S11323B0144D28463146012200F0A0FB2B6813F08F
S11323C0040F11D12378FF2B0ED086F0030606F1FB
S11323D0804606F5004696F8002102F0F00203F06C
S11323E00F03134386F800316568A1686278064BD1
S11323F01B6853F82200456053F822309960384630
S1132400BDE8F081008000402C0000202DE9F84355
S11324100C4616469946089F264B18604021FFF744
S113242021FE254D284600F093FB2B6823F004027F
S113243023789B0003F0040313432B602B6823F0E1
S113244010036278002A14BF1022002213432B6069
S1132450102002F049FF194D6C1E0F3514F9010FBD
S113246002F042FFAC42F9D11AE0B9F1000F13D0E7
S1132470A7B1A6F10408A9F1040600252C4658F8D2
S1132480040F56F8041FFFF773FF002818BF054612
S11324900134BC42F3D109E0002507E0002505E042
S11324A0074800F057FC002EDFD100252846BDE880
S11324B0F88300BF2C00002000800040DC73000083
S11324C00010024008B500F00F01024800F022FBA2
S11324D008BD00BF0080004000F00F0080304001C4
S11324E0014B1950704700BF0080004000F00F00FE
S11324F089B2400100F1804000F5104081807047AE
S113250000F00F00400100F1804000F5004041F26E
S11325100602835A9BB2090201F4E06123F4E063EA
S11325200B438352704700BF00F00F004001014B82
S1132530195070470C90004000F00F00400100F16A
S1132540804000F5004041F21803C150704700BFBD
S113255000F00F00400100F1804000F5004041F21E
S11325601003C150704700BF00F00F0089B2400152
S1132570014B1952704700BF1490004000F00F0047
S1132580400100F1804000F5004041F20602835A08
S11325909BB201F0070123F007030B4383527047FA
S11325A008B50A4600F00F01014800F0FBFA08BD27
S11325B00080004008B50A4600F00F01014800F011
S11325C07FFB08BD0080004008B500F00F01024801
S11325D000F0A6FB08BD00BF0080004008B50A4615
S11325E000F00F01014800F02DFB08BD0080004001
S11325F000F00F004201074B9B5A23F008031B0411
S11326001B0C002914BF0822002213434001014A75
S1132610135270471C90004008B500F00F030129C5
S113262008D011B1022914D008BD1148194600F090
S113263065FA08BD58010F49095A21F0040109043B
S1132640090C002A14BF042200221143094A115222
S113265008BD58010749095A21F002010904090C6F
S1132660002A14BF022200221143024A115208BD5B
S1132670008000401C90004008B518B1034800F0E9
S113268033FA08BD014800F025FA08BD0080004077
S113269000F00F00014B5877704700BF00800040E6
S11326A0002841D038B5044600293CD00D460846E0
S11326B02021FFF7D7FC627A02F00702237E42EA68
S11326C0C322237A1B0203F4E0631A43637EDB0014
S11326D0DBB21343EB8023682B606389AB80E3692F
S11326E0AB602369EB6063682B61A389AB82E36A07
S11326F01B68EB8294F8203013B1636AAB6101E08C
S11327006369AB6194F82830002B14BF02230023C3
S113271094F82020002A14BF102200221343AB8314
S1132720E36A1B68EB8338BD704700BF2DE9F043B3
S113273083B00C4600F00F056F4F3846294600F071
S1132740E9F922686E0106F1804303F5004803F5B8
S113275010431A6062683E4441F2100306EB030919
S1132760F250227E637E217A0091617A019138468B
S1132770294600F0FFF9628941F2040328F8032096
S1132780A389A9F80430236906F58056F36094F808
S1132790203073B1384607EB451303F580539A8B09
S11327A092B242F010029A832946626A00F04AFA11
S11327B00FE06A0102F1804202F5004241F2180181
S11327C05018838823F010031B041B0C8380636957
S11327D053506A01494B9B5A23F002031B041B0C00
S11327E094F82820002A14BF02220022134369010E
S11327F0424A5352E36A002B75D019793E4B1B6849
S113280013F0800F17D06B0103F1804303F50043ED
S113281041F208029A5822F00043002914BF4FF0F5
S1132820004200221A436B0103F1804303F5004385
S113283041F208015A50E36A59792F4B1B6813F08F
S1132840800F17D06B0103F1804303F5004341F27D
S113285008029A5822F08043002914BF4FF08042A6
S113286000221A436B0103F1804303F5004341F254
S113287008015A50204EE36A304629469A6800F00F
S1132880BFF930462946E26900F08CF9E36A304624
S113289029465A7B1B7B00F0DBF9E26A917B06EB4D
S11328A0451000F58050838B9BB2D27B120202F458
S11328B0706223F4706313438383838B23F02003B8
S11328C01B041B0C002914BF202200221343304692
S11328D006EB451202F580529383E36A29461A688F
S11328E000F0EEF904E004482946E26900F05AF9E0
S11328F003B0BDE8F08300BF008000401C9000409E
S113290010B50446064A136843F080031360FFF7CA
S11329100DFF044B1B6853F824300020187310BDBE
S1132920008000402C0000202DE9F04F97B0059066
S113293092461F46209D219C9DF8883001931F31AB
S113294021F01F065C4B1B6853F820304FF0000841
S113295083F80C804FF0010909FA0AF20292BDF8DB
S11329600820B7FBF2F302FB1373B3EB080118BFA3
S11329700121039106A83021FFF774FB0DF1480BE8
S113298058461021FFF76EFBCDF82880CDF82C8037
S11329908DF830808DF831808DF820A08DF821A03D
S11329A00D978DF840908DF83890CDF844B08DF89F
S11329B04C808DF84D808DF854808DF856800198A8
S11329C0002875D00399002972D12B6806932368D7
S11329D007936B686268934259D1297A227A9142AB
S11329E058D1A6F120080026B246BDF8082004926A
S11329F000F1FF3B5FFA8BFB13E0D9F80C30069330
S1132A002146E3680793D9F810302269934244D1F0
S1132A100C350C3408F1200899F814000A7D904212
S1132A203ED1B3FBF7F3119A1360A9462B7A032B1B
S1132A301BD8DFE803F002091016ADF822A0BDF898
S1132A400830ADF8243010E0BDF80830ADF822307D
S1132A50ADF824A009E0049BADF82230ADF8243091
S1132A6003E0ADF822A0ADF824A0B3450EBFCDF825
S1132A703CA008F120030F9326B9059806A9FFF797
S1132A8055FE10E006A84146FFF70AFE0BE00123BD
S1132A9003930DE0012303930AE00123039307E06A
S1132AA00123039304E00136F6B2019B9E42A4D1B4
S1132AB0039817B0BDE8F08F2C000020024B1B6870
S1132AC053F82030187B70472C00002000487047D2
S1132AD000800040036843F400330360036813F488
S1132AE0003FFBD1704700BF036843F480330360A9
S1132AF0036813F4803FFBD1704700BF0AB14176ED
S1132B0070470176704700BF0AB1C176704781767D
S1132B10704700BF00EB411141F2080288180023FE
S1132B208B5001F58052136041F204028B5241F242
S1132B3006028B52436041F210000A180B50938036
S1132B40D38041F218000A180B509380D380704749
S1132B5038B50546036823F4403323F0C603036005
S1132B6000242846E1B2FFF7D5FF0134102CF8D138
S1132B7038BD00BF10B4DB00DCB29DF8083003F0B0
S1132B800703234343EAC2229DF80440240204F4C9
S1132B90E064224392B2803100EB4110C2805DF8C0
S1132BA0044B7047036813F0800F13D010B400EB8C
S1132BB0411341F208041B59002B11DB00EB4113B4
S1132BC01B5913F0804F0BD122F0404200EB41100F
S1132BD0025112E000EB411041F20803C250704769
S1132BE000EB411041F20801435823F47F7323F0B2
S1132BF00303C2F309021A4342505DF8044B7047C1
S1132C0030B4046814F0800F16D000EB411341F285
S1132C1008041D591B5913F0804F01D1002D0BDA04
S1132C2000EB411041F208040159044B0B400449E4
S1132C3001EA82221343035130BC7047FF0300C0F2
S1132C4000FCFF3F00EB411141F21803CA507047EA
S1132C5010B400EB411404F580541834E488C4F330
S1132C600E045BB900EB411000F58053DC8300F5E2
S1132C708050C38AC3F30E03C3821EE044F40044AD
S1132C8000EB411101F58050C48301F58051CB8ADA
S1132C906FEA43436FEA53439BB2CB82C38B9BB22D
S1132CA0520202F4F05223F4F0531343C383CB8A49
S1132CB09BB223F4F0531A43CA825DF8044B704765
S1132CC000EB411303F580531833DB881BB2002B50
S1132CD012DA00EB411000F58051CB8BC2F30802ED
S1132CE003F47E431343CB8300F58050C38A03F47B
S1132CF07E431A43C282704700EB411101F58050B4
S1132D00C38BC2F30E0203F400431343C38301F5E0
S1132D108051CB8A03F400431A43CA82704700BF30
S1132D2000EB411303F580531833DB881BB2002BEF
S1132D3008DA00EB411000F580501030C088C0F371
S1132D400800704700EB411101F58051C88AC0F3B7
S1132D500E00704700231A46C2540133102BFBD1D6
S1132D60704700BF08B50020FFF7D2F908BD00BFC7
S1132D7008B50120FFF7CCF908BD00BF08B5022053
S1132D80FFF7C6F908BD00BF08B50320FFF7C0F977
S1132D9008BD00BF08B50420FFF7BAF908BD00BF9D
S1132DA008B50520FFF7B4F908BD00BF08B5062033
S1132DB0FFF7AEF908BD00BF08B50720FFF7A8F973
S1132DC008BD00BF08B50820FFF7A2F908BD00BF81
S1132DD008B50920FFF79CF908BD00BF08B50A2013
S1132DE0FFF796F908BD00BF08B50B20FFF790F96F
S1132DF008BD00BF08B50C20FFF78AF908BD00BF65
S1132E0008B50D20FFF784F908BD00BF08B50E20F2
S1132E10FFF77EF908BD00BF08B50F20FFF778F96A
S1132E2008BD00BF38B50020FFF750FEC56A002476
S1132E3015F0010F02D02046FFF780F96D08013428
S1132E40E4B2102CF4D138BD10B5E1B953F83240D6
S1132E501B4B1A701B4B62681A6094F848201A7452
S1132E605AB1E31D1849013AD2B20832224413F888
S1132E70010F01F8010F9342F9D12268104B5A80D7
S1132E8001F0F8FA10BD012919D10E4B0F4A51680F
S1132E90596092F84810597659B1D31D0C4A01393A
S1132EA053FA81F1013113F8010F02F8010F8B423B
S1132EB0F9D1064B1A68024B9A8001F05DFB10BDF4
S1132EC084000020680000206F0000209000002093
S1132ED0780000202DE9F04186B00C46164698464D
S1132EE0234B53F82050234B53F82070384601F0FD
S1132EF073FC844234D205EBC4056B7913F0FF0FE5
S1132F0031D11F2C04D804F01F02012393403B63EA
S1132F1002236B719DF83430AB71F37AEB717368F3
S1132F20049333788DF80C30337A8DF81430737A37
S1132F308DF81530B37A8DF81630F37A13B11C235B
S1132F40029301E00C2302930C9B00933846214624
S1132F5002AA434601F0B0FE38B100226A7104E0CF
S1132F604FF4407001E00220FFE706B0BDE8F081B5
S1132F7030000020EC7300002DE9F8430D4617469D
S1132F8098461D4B53F820401C4B53F820602046B4
S1132F9001F022FC854222D2236813F0005F06D0A0
S1132FA0636BC3F303635B0007339D421BD906EBDA
S1132FB0C50999F8053013F0FF0F18D1012289F8DB
S1132FC0052046F8357089F806802046294601F028
S1132FD065FD78B1002289F80520BDE8F8834FF437
S1132FE04070BDE8F8834FF44070BDE8F8830220D8
S1132FF0BDE8F883BDE8F883EC73000030000020DE
S11330002DE9F04383B005460F4690463D4B53F8F7
S113301020603D4B53F8204094F81131012B1BD113
S11330206379DBB2032B17D1B36A326B134013F00D
S1133030200F0FD0304601F089FD01233363D6F809
S11330408C30B36A326B134013F0200FF7D1304643
S113305001F06EFD00236371637913F0FF0F46D115
S1133060336813F0005F44D04FF0010984F80590F1
S113307084F806802760304606214A4601F00EFD9A
S1133080304607214A4601F009FD304605214A46EB
S113309001F004FD94F811314B452CD194F8100142
S11330A01A492A46FEF7E6FF18B100236371484621
S11330B024E094F810012368022100911022019267
S11330C006F18002FFF758F818B10023637101205C
S11330D014E094F810010121FFF78AFA94F8100122
S11330E0FFF70CF948B100236371012006E00220C8
S11330F004E0012002E0002000E0002003B0BDE86D
S1133100F08300BFEC73000030000020B1310000F8
S113311070B50546244B53F82060244B53F82040E7
S113312094F811317BB930460521002201F0B6FC38
S113313030460621002201F0B1FC3046072100226E
S113314001F0ACFC21E06379DBB2032B1DD02668CF
S113315094F81001FFF7DEF8336813F4001F02D16E
S11331607268920C7260C3F3034386F84830B36804
S11331701BBAB360F3681BBAF360D4F8006126B1DC
S11331802846082100222346B04700232360A37960
S113319013B1201D02F064FD6379DBB2032B1CBF65
S11331A00023637170BD00BFEC7300003000002089
S11331B038B5044601290BD1074B53F820300322BC
S11331C05A71D3F800511DB1C0B209210022A84799
S11331D0E0B2FFF79DFF38BD3000002070B50E4609
S11331E0094B53F82040094B53F82000002201F00A
S11331F055FC04EBC605AB791BB12846043002F03C
S11332002FFD00236B7170BD30000020EC730000B3
S113321070B50D46254B53F820402668204601F032
S113322095FC16F4006F1FD0236D03F00043236553
S1133230216DAB6803F01F0343EA01022968890288
S113324089B242EA01036A68520102F478721A43AD
S1133250E968174B03EA41531A432B691B0403F42F
S1133260F813134323651DE0636823F007031B046D
S11332701B0C63606368286800F00700EA6840EA92
S113328002600343A968090401F4E0210B436A685E
S1133290D20402F460121A432B699B0503F4400321
S11332A013436360204601F043FC70BDEC730000DF
S11332B00000E07F38B50D46164B53F820402046F9
S11332C001F044FCD4F8042C134B1340C4F8043C20
S11332D0D4F8041CAB6803F0070343EA010229682D
S11332E0890201F4F84142EA01036A685201D2B248
S11332F01A43E968094B03EA01531A432B691B0477
S113330003F4E0231343C4F8043C204601F010FC0A
S113331038BD00BFEC730000188308C00000F03F04
S11333200B4B53F820305A68120ECA605A6802F0E8
S113333007020A605A68C2F3C2424A605A68C2F37A
S113334002428A605B68C3F381530B61704700BF1C
S1133350EC7300000E4B53F82030D3F8042CC2F366
S11333600952CA60D3F8042CC2F384220A60D3F849
S1133370042CC2F342124A60D3F8042C02F0070270
S11333808A60D3F8043CC3F302430B61704700BF67
S1133390EC73000038B50D46094B53F82040204625
S11333A001F0D4FB25B9236823F48033236003E0C0
S11333B0236843F480332360204601F0B9FB38BD11
S11333C0EC73000070B50E4615461E4B53F82040B2
S11333D0204601F0BBFB236813F0005F0ED0236886
S11333E0C3F30123022B16D0032B21D0012B09D0C8
S11333F0304600212A4601F0BFF9A064204601F0BE
S113340097FB70BD304601212A4601F0B5F940EA28
S11334101040A064F2E7304602212A4601F0ACF9DC
S1133420030C43EA1063034343EA1020A064E5E776
S1133430304603212A4601F09FF94FF0FF33A3647D
S1133440DCE700BFEC73000070B50D4616460A4B6E
S113345053F82040204601F079FB25B9074B03EAD5
S11334608646266104E0012D04BF26F060462661ED
S1133470204601F05DFB70BDEC7300000000FC1FF2
S113348070B50D4616460A4B53F82040204601F00D
S11334905DFB25B9074B03EA8646666104E0012D0E
S11334A004BF26F060466661204601F041FB70BD12
S11334B0EC7300000000FC1F70B50D4616460A4B65
S11334C053F82040204601F041FB25B9074B03EA9D
S11334D08646A66104E0012D04BF26F06046A6617D
S11334E0204601F025FB70BDEC7300000000FC1FBA
S11334F0F8B50E4615461F46414B53F8204020466A
S113350001F024FB236803F07F039D4201D81F2DA3
S113351005D9204601F00CFB4FF44070F8BD236838
S113352013F0005F11D13EB9364B03EA874705F526
S1133530087544F8257036E0012E34D127F0604731
S113354005F5087544F825702DE0636BC3F3036338
S11335505B0007331F2B28BF1F239D4212D823680B
S1133560C3F30123022B2FD0032B3DD0012B1FD0FB
S1133570304600213A4601F0FFF805F5087544F895
S1133580250010E03EB91F4B03EA874705F508758F
S113359044F8257007E0012E05D127F0604705F5B2
S11335A0087544F82570204601F0C2FA0020F8BDE1
S11335B0304601213A4601F0DFF840EA104005F5B3
S11335C0087544F82500EEE7304602213A4601F03A
S11335D0D3F8030C43EA1063034343EA102305F5CD
S11335E0087544F82530DEE7304603213A4601F0F9
S11335F0C3F805F508754FF0FF3344F82530D2E7DA
S1133600EC7300000000FC1F2DE9F047814688465A
S11336101746A64B53F820402368002B05DB2046B1
S113362001F094FA204601F001F963687A7A5203B2
S113363002F4005223F4005313436360204601F064
S1133640DFF8204601F082FA204601F0FBF82368F7
S113365023F400633A7A002A40F0198120E11343ED
S1133660236523683A7AC3F3C023934240F002816E
S1133670636B23F48053002A14BF4FF4805200225A
S113368013436363BB79022B03D0236843F40033F1
S113369023607B7933B12046397901F003F900289E
S11336A040F0EB8097F83430012B08D1236813F0F5
S11336B0005F00F0E480236843F40043236097F83C
S11336C034301BB9236823F4004323602046F9797E
S11336D001F0BCFA2046396801F07EFC002840F075
S11336E0D180236813F4006F3FD0F9683A697D698B
S11336F0B869FB69266D06F000462665266D05F05F
S11337001F053543890289B22943520102F47872B4
S11337100A43674901EA40510A431B0403F4F813BE
S113372013432365396A7A6ABD6AF86A3B6BD4F835
S113373004EC604E0EEA0606C4F8046CD4F8046C7B
S113374005F007053543890201F4F8412943520184
S1133750D2B20A43584901EA00510A431B0403F454
S1133760E0231343C4F8043C1DE0FD683A69796919
S1133770B869FB69666826F007063604360C66608D
S1133780666805F0070545EA00603043090401F462
S1133790E0210143D20402F460120A439B0503F4BE
S11337A04003134363602046B97901F01FFABB79E3
S11337B0032B02D0204601F0BBF93C4B4B44187B51
S11337C043B213F1800F02D0184601F08DFD374C3F
S11337D04C4494F9100001F087FD94F9140001F0B1
S11337E083FD207E43B213F1800F02D0184601F00E
S11337F07BFD2E4B4B44D87E43B213F1800F02D095
S1133800184601F071FD08F1040A544600252E46BD
S11338102046314602F038FA60B1ADB35446002672
S1133820204602F03BFA01360834AE42F8D10120BA
S1133830BDE8F087A67044F8046C08EBC5035E711C
S113384001350834202DE3D197F8343088F811314C
S113385097F8353088F810310020C8F80001C8F80E
S11338600401C8F80801C8F80C01144B43F8298076
S1133870BDE8F0870120BDE8F087BDE8F0870120AE
S1133880BDE8F087BDE8F0870120BDE8F08743F488
S113389000632360236D23F000424FF00043DEE613
S11338A02360236D23F000420023D8E6EC7300006C
S11338B00000E07F188308C00000F03F30000020C3
S11338C010B586B00D4C54F8200054680494147854
S11338D08DF80C40947A8DF81640147A8DF81440C3
S11338E0527A8DF8152006AA082442F8104D0024B7
S11338F0009401F0E1F906B010BD00BFEC730000C4
S113390010B586B00B4C54F8200054680494127817
S11339108DF80C200A2202921F2904D801F01F04FA
S11339200122A2400263089A009202AA01F0C4F99B
S113393006B010BDEC7300002DE9F04383B00D46D2
S11339402C4E56F820702C4E56F820600A9C009499
S113395001240194FFF7BEFA0446002845D13046FD
S11339602946012201F09AF807EBC50004300B99AF
S113397002F034F9032838D107EBC5077B7913F03B
S1133980FF0F32D030462946002201F087F805F0B7
S11339901F094FF0010808FA09F81F2D98BFC6F84F
S11339A030803046294601F04BFA3046294601F072
S11339B06BF90368C3F30363082B0BD11F2D0DD8D8
S11339C0336B08EA030323FA09F3DBB2002B08BFC5
S11339D0032404E0092B08BF032400E003241F2D63
S11339E098BFC6F8308000237B71204603B0BDE841
S11339F0F08300BF30000020EC73000070B582B08B
S1133A000D460A4C54F82060069C0094002401944E
S1133A10FFF760FA034628B930462946012201F02F
S1133A203DF80346184602B070BD00BFEC730000B9
S1133A3070B584B00E461D46154C54F820405068AD
S1133A40029010788DF80400127A8DF80C2004AAE4
S1133A500F2042F8100D204601F008FA0346A0B9E1
S1133A6004AA002342F8103D204631462B4601F0BB
S1133A70FDF9034648B904AA042342F8103D204640
S1133A8031462B4601F0F2F90346184604B070BDE6
S1133A90EC73000070B50E461546074B53F82040F2
S1133AA0204601F053F8204631462A4600F020FF14
S1133AB0204601F03DF870BDEC7300002DE9F041A3
S1133AC00E4698461B4B53F820501B4B53F820705E
S1133AD00123FFF751FA044630BB05EBC60004305E
S1133AE0414602F07BF8032813D11F2E0BD8BB6A82
S1133AF03A6B134006F01F02D34003F00103002B7E
S1133B0008BF032400E0032438463146002200F0B5
S1133B10C5FF05EBC6056B7913F0FF0F06D0002334
S1133B206B712046BDE8F081BDE8F0810020BDE85E
S1133B30F08100BF30000020EC73000008B50023C2
S1133B40FFF71AFA08BD00BFF8B516461B4A52F82B
S1133B5020501B4A52F820700122FFF751FA044604
S1133B6048BB281D314602F039F8064603281FD108
S1133B706B79DBB2002B08BF2646384605210022AC
S1133B8000F08CFF38460621002200F087FF3846FB
S1133B900721002200F082FF6B79DBB2012B07D1F1
S1133BA095F81131012B03D195F81001FEF7B2FB02
S1133BB000236B7134462046F8BD00BF300000205E
S1133BC0EC73000008B50022FFF71AFA08BD00BF25
S1133BD0F8B50746354B53F82050354B53F8206061
S1133BE0D6B1D6F80831BBB128464FF48041002243
S1133BF000F074FF28464FF48061002200F06EFF4D
S1133C0028464FF40061002200F068FF28464FF474
S1133C100041002200F062FF244B3B44187B43B276
S1133C2013F1800F02D0184601F06AFB1F4C3C448C
S1133C3094F9100001F064FB94F9140001F060FBA6
S1133C40207E43B213F1800F02D0184601F058FBD6
S1133C50164B3B44D87E43B213F1800F02D0184672
S1133C6001F04EFB2B68002B17DB284600F06EFF9B
S1133C70284600F0DBFD10E0204602F00FF8002893
S1133C8018BF01250834B442F6D16DB900E000250F
S1133C900022074B43F8272006E0002EF7D0341DFE
S1133CA006F582760025E7E72846F8BDEC730000A8
S1133CB03000002070B50E4615460B4B53F82040DB
S1133CC0204600F043FFD4F8002C22F41F422EB10A
S1133CD042F400422D0205F4F8552A43C4F8002C9E
S1133CE0204600F025FF70BDEC730000034B53F831
S1133CF02030D3F8000C00F03F007047EC73000054
S1133D00034B53F82030D3F8000CC0F380307047D5
S1133D10EC730000044B53F82020D2F8003C43F429
S1133D208043C2F8003C7047EC73000010B5074BA9
S1133D3053F82040064B53F82020D2F808310BB139
S1133D400A219847204600F021FF10BDEC730000C3
S1133D5030000020F8B5184B53F82050174B53F897
S1133D6020602B6813F4804F25D00446D5F8083B17
S1133D7013F4003F0CD0D5F8083B43F40033C5F8E6
S1133D80083BD6F800711FB1052100223346B8471D
S1133D90D5F8083B13F4803F0DD0D5F8083B43F425
S1133DA08033C5F8083BD6F8005125B120460621DA
S1133DB000223346A847F8BDEC7300003000002011
S1133DC02DE9F04194B00546664B53F82040664B0C
S1133DD053F82060A36A226B134003F00103002709
S1133DE00BE00137202F00F0A780A36A226B134059
S1133DF007F01F02D34003F00103002BF1D0002B86
S1133E0000F09A80236813F0005F39D0072F37D869
S1133E10052F17D17379DBB2012B58D120463168B5
S1133E2000F0BEFE2846FFF773F920232363D6F87B
S1133E3000C1BCF1000F4AD02846012100223346BC
S1133E40E04744E0062F0CD140232363D6F800C199
S1133E50BCF1000F3BD02846022100223346E04744
S1133E6035E0072F33D180232363D6F800C1BCF19A
S1133E70000F2CD02846032100223346E04726E0D9
S1133E8006EBC7035B79DBB2012B20D12046394610
S1133E9001F09CF82046394656F8372001F04AF8DC
S1133EA0A8B9A36828463946FFF798F91F2F04D804
S1133EB007F01F02012393402363D6F800C1BCF12D
S1133EC0000F04D0284600213A463346E04706EB6B
S1133ED0C70898F80530DBB2022B40D12846394692
S1133EE0FFF77CF998F80730B3B12046394601F062
S1133EF06DF82046394601AA01F01CF8A368019B1D
S1133F00C3F30363042B0ED11F2F0CD807F01F0239
S1133F1001239340236306E01F2F04D807F01F02F8
S1133F20012393402363D6F80041C4B128460421F9
S1133F303A463346A04712E065B9D4F8083BD4F8B2
S1133F40082B13F4003F02D112F4803F02D000206A
S1133F50FFF700FFE36913B12846FFF7E7FE14B04B
S1133F60BDE8F081EC73000030000020084B53F8EA
S1133F70203003EBC1014B7913F0FF0F06D04B79CE
S1133F80DBB2032B0CBF01200220704700207047D6
S1133F9030000020024B53F82030186A704700BFED
S1133FA0EC7300002DE9F041554B53F82040554B7C
S1133FB053F8207004EBC106737913F0FF0F71D02E
S1133FC00D4680467379DBB2022B2DD1FFF706F93B
S1133FD005F01F08012404FA08F41F2D7CD83C6363
S1133FE03846294600F02CFF3846294600F04CFE9E
S1133FF00368C3F30363082B10D11F2D0AD83B6B4E
S1134000234023FA08F3DBB2002B40F2013008BF4F
S1134010002000E000201F2D01D901E000203C63B6
S113402000237371BDE8F0817379DBB2012B23D1D6
S1134030FFF7D4F83B6813F0005F19D07B6BC3F330
S113404003635B0007339D4203D93846294600F0D9
S113405001FF8DB938460521002200F01FFD94F8B8
S11340601131012B2BD194F81001FEF753F926E0FE
S11340703846294600F0EEFE1F2D17D8BB6A05F01E
S11340801F02012696403340D340DBB2012B10D1EE
S113409040462946FFF7A2F81F2D0DD83E630020A5
S11340A0BDE8F08140F20130BDE8F0810020BDE8B8
S11340B0F0810020BDE8F0810020BDE8F081BB6AFA
S11340C005F01F0101268E403340CB40DBB2012BAB
S11340D011D00020BDE8F0813846294600F0B0FE3A
S11340E03846294600F0D0FD0368C3F30363082B68
S11340F083D0002094E740460021FFF76FF8CDE716
S113410030000020EC730000034B53F82030C3F858
S11341100011C3F8042170473000002038B50D4663
S1134120214B53F82040214B53F82030C3F8081199
S1134130C3F80C21204600F009FDC5B120464FF418
S11341408041012200F0CAFC20464FF48061012224
S113415000F0C4FC20464FF40061012200F0BEFCD4
S113416020464FF40041012200F0B8FC17E020463D
S11341704FF48041002200F0B1FC20464FF48061EE
S1134180002200F0ABFC20464FF40061002200F056
S1134190A5FC20464FF40041002200F09FFC20467D
S11341A000F0C6FC38BD00BFEC73000030000020F6
S11341B070B50D4616460D4B53F82040204600F0CE
S11341C0C5FC75B12046314600F056FF236823F440
S11341D080424FF4804313432360204600F0A8FC40
S11341E070BD236823F480420023F4E7EC730000DD
S11341F00E4B53F8203003EB011101F64830D1F88F
S1134200483B1BBA936043681BBAD360D1F8403B68
S1134210136013F4001FD1F8441B08BF890C5160CC
S1134220C3F3034382F84830704700BFEC730000C7
S11342302DE9F04F87B00446062005A9FDF70AFFD3
S1134240DDF814B0DFF844E10026019602960396E7
S11342504FF06408DFF838C10096C246009B591C31
S1134260BBFBFEF2A2F10803112B56D8582303FB23
S113427002F9454BA3FB09394FEA591909F1FF33F8
S1134280C9EB020902E009F10109013B102BFAD83C
S1134290B9F1010FF7D909F1FF37981EC51B6CD08E
S11342A0072D63D9013D072DFCD107385FE0012BB1
S11342B033D9072D31D807282FD803FB0AA3B3FB22
S11342C0F2F3582B8CBFA3F15809C3F1580901FB31
S11342D002F2BBFBF2F22D4B9A4287BFA2F5F42205
S11342E0A2F59072C2F5F42202F59072624503D3EE
S11342F0944512D1C14510D24AB9B9F1010F18D968
S1134300009E019502970390C846944605E0009EDE
S1134310019502970390C84694460EF5F42E0EF5C7
S1134320907E0091B1F5807F98D1019D029F039802
S113433000E0009E022894BF02460322102323605B
S1134340002363712371A3716372E5602061676167
S1134350A661E261E371237225626062A762E6628C
S1134360226384F8343084F835300AE03846A9F101
S11343700209B9F1060F9AD9CFE7A9F10200012584
S1134380F5E707B0BDE8F08F1F85EB5120A10700CA
S113439040420F0000230B704B700370704700BF46
S11343A00B7823B901230B704B70037070474B7863
S11343B0012B04D10023037002234B7070470123A7
S11343C04B700370704700BF034A00239371D3718D
S11343D0024AD376704700BFDC000020680000204A
S11343E030B587B0204BB3F860309B0003F18043B5
S11343F003F5CA231A6842F080421A60002402942A
S113440003940594194B00930F23019301258DF810
S11344100B508DF80E50164B04938DF8145028460B
S1134420694601F03DFC8DF80040082301938DF8A6
S113443008408DF809408DF80A408DF80B4020465D
S11344400E216A4640F2FE33FFF7F2FA204629466F
S1134450FEF7A0FF204621460E224FF0FF33FFF760
S113446047F807B030BD00BFC872000000C0044068
S1134470C0F00F40204B1A6840F2FE339A4239D103
S113448030B587B000248DF80C401B4D2B7C049371
S11344908DF814408DF815408DF816408DF81740AE
S11344A020460F2103AA40F2FF33FFF709FA05F172
S11344B00803009320460F2103AA40F2FF33FFF7BD
S11344C09DFA05F11B000D49FFF76AFFEB7E2BB146
S11344D00B484FF4004101F083FC04E008484FF41A
S11344E0004101F07FFC00200E21064AFFF726FB65
S11344F007B030BD704700BF68000020E200002014
S1134500C0F00F40F8010020034A002313715371D7
S1134510024A9376704700BFDC0000206800002048
S113452000B587B0114BB3F860309B0003F18043B2
S113453003F5CA231A6842F080421A6000230293EA
S1134540039305930A4B00931023019301208DF8E4
S11345500B008DF80E00074B04938DF81400694688
S113456001F09EFB07B05DF804FB00BFC8720000B9
S113457000C00440C0F00F401F4B5A6840F2FD33A6
S11345809A4238D130B587B000248DF80C401A4DCA
S11345906B7E04938DF814408DF815408DF8164009
S11345A08DF8174020460F2103AA40F2FF33FFF78E
S11345B087F905F11103009320460F2103AA40F265
S11345C0FF33FFF71BFA05F11A000C49FFF7E8FE69
S11345D0AB7E2BB10A484FF4803101F001FC04E0BA
S11345E007484FF4803101F0FDFB00200549FFF737
S11345F0E9FA07B030BD704768000020E0000020F1
S1134600C0F00F409000002008B5084B1B685BB950
S11346100122064B1A6000200549FFF7D3FA002057
S11346200E21044AFFF78AFA08BD00BFDC0000200F
S113463090000020F8010020F0B591B00024364B22
S11346401C60364A134643F8044B5460043343F861
S1134650044B43F8044B43F8044B43F8044B1C60ED
S11346602F4B1C605C602F4A134623F8024B548086
S11346705C8002AD2C4E0FCE0FC50FCE0FC50FCEF2
S11346800FC596E8030085E80300284EB6F862508B
S1134690AD0005F1804505F5CA252B6843F080433C
S11346A02B60234F38460421052201F027FB2B6899
S11346B043F080432B60384605210A4601F01EFB77
S11346C0B6F868309B0003F1804303F5CA231A68E7
S11346D042F080421A602046164902AAFEF794FF6F
S11346E08DF800408DF8014040F2FD3301932046DF
S11346F021466A46FFF7CEF9FFF772FE20460E49BF
S11347002246FFF701FDFFF70BFFFFF75DFEFFF702
S1134710FBFE11B0F0BD00BF8C000020680000203B
S1134720DC000020840000200C740000C87200002B
S113473000D00440E4000020492E0000704700BF70
S1134740082817D90938062813D8DFE800F004062A
S1134750080A0C0E10000C2070471020704714201B
S11347607047182070472020704730207047402041
S113477070470020704700BF012912D011B10229EF
S11347801ED021E002F0404320B9124901EAC2429E
S113479013431CE001281AD1520022F04042134373
S11347A015E002F0404320B9C2F30A0243EAC243CF
S11347B00DE001280BD1C2F30D0243EA024306E0E7
S11347C0012803D8130602E0002300E00023184662
S11347D0704700BF0000F83F074B98420CBF2023EE
S11347E00023064A904208BF102302F5C0429042BB
S11347F014BF184610207047004002400050024089
S1134800036813F4801F0FD0036823F00043036090
S1134810036823F080430360036823F0805303603C
S1134820036813F0006FFBD1704700BF0368002BCF
S113483007DB036843F000430360036813F4801F3D
S1134840FBD0704738B50446036843F00073036037
S1134850236813F0007FFBD12046FFF7BDFF04F16E
S11348608001820007D00B4601EB8201002543F84A
S1134870045B8B42FBD104F5086130B10B460A445A
S1134880002143F8041B9342FBD14FF0FF33236113
S11348906361A3610022A2622363014B236238BDDA
S11348A006003B0038B504460D46FFF795FF014668
S11348B02068C0F3C020D0B9236843F000532360BC
S11348C0636B2D0605F0706523F070631D4365630B
S11348D04FF0FF33A36489B249B100236FF0604500
S11348E003F5087244F8225001338B42F8D138BDE5
S11348F070B400F1E003446BC4F30364032900F2D1
S1134900C980DFE811F004002B006F00C3000168C8
S113491021F4407101600134E40000F0BB801046D2
S113492002EBC4025C4D017800290CBF00214FF05A
S11349300041447844B141F080444168490021F089
S113494040412144196004E0446805EAC4440C442D
S11349501C60083004339042E5D19BE0016821F4E7
S1134960407141F4807101600134E40000F09280F0
S1134970154602EB04122C46297800290CBF0021AD
S11349804FF00041287A00280CBF00204FF400406B
S11349906E7846B141F080416E68C6F3CD3601EBC6
S11349A00641196005E06E68C6F30A0601EBC641CC
S11349B01960617A49B11E6840F48040E168C1F32E
S11349C0CD3108443043186007E01968E468C4F343
S11349D00A0400EBC4000843186010350433954200
S11349E0C9D157E0016821F4407141F400710160BC
S11349F00134E4004ED0104602EB441201464478E0
S1134A003CB11D684468C4F3475445EA04641C601F
S1134A1006E01D684468C4F3C70445EA04641C60E6
S1134A204C7A3CB11D68CC68C4F3475445EA04444D
S1134A301C6006E01D68CC68C4F3C70445EA04445E
S1134A401C604C7C3CB11D684C69C4F3475445EA76
S1134A5004241C6006E01D684C69C4F3C70445EADD
S1134A6004241C604C7E34B11C68C969C1F34751ED
S1134A702143196005E01C68C969C1F3C7012143DA
S1134A801960203004339042B8D103E0036843F442
S1134A904073036070BC70470000F83F036803F084
S1134AA07F038B420DD310B40EE022B1826A13430C
S1134AB0836200200FE0826A22EA030383620020FB
S1134AC009E04FF44070704701F01F040123A34034
S1134AD01F29EAD900205DF8044B7047A2B1B1F553
S1134AE0806F02D0B1F5006F03D1036843F4001363
S1134AF00360B1F5804F03D1436B43F0004343633C
S1134B004368194341607047436823EA01034360E3
S1134B10B1F5804F03D1436B23F0004343634368F3
S1134B2013F4406F03D1036823F400130360704748
S1134B30036823F080530360036823F08043036019
S1134B40036813F0807FFBD1704700BF036843F014
S1134B5080430360036843F0805303600368002BC1
S1134B6005DA036823F000430360002200E0012219
S1134B70036813F0807FFBD03AB9036843F0004325
S1134B800360036813F4801FFBD07047026A034B71
S1134B90134013B1014B0362036A704706003B00E4
S1134BA0F8B507460E4600F1880401F10805D0F86F
S1134BB08000C0F30340FFF7C3FD86F84800D7F830
S1134BC08030336013F4001FD7F8843008BF9B0C87
S1134BD07360064648B10023990854F8212012BA9C
S1134BE045F821200433B342F6D3F8BD08B50429AF
S1134BF02AD8DFE801F00B181D030600FFF7A6FF13
S1134C0008BD036843F00043036008BD036823F450
S1134C1000030360436823F008034360436823F4FC
S1134C208053436008BD436843F00803436008BDF4
S1134C30436843F480534360436823F008034360AC
S1134C40036823F40033036008BD00BF036813F452
S1134C50006F07D0D0F8003C23F4403343EA01410D
S1134C60C0F8001C704700BF036813F4006F07D03E
S1134C70D0F8003CC3F3014303330120984000E023
S1134C800820C0B2704700BF38B504460D46FFF790
S1134C90EBFF0830C0B24FF40073B3FBF0F3DBB2A8
S1134CA0B5FBF3F203FB12538008D20100FB03208F
S1134CB0203004EB800038BD2DE9F84307468946CF
S1134CC014469846089DFFF7DFFF3B6803F07F0317
S1134CD0994500F2A080064698E07B6B4FF4407043
S1134CE0BDE8F8833B6813F4006F07D0A37B2BB1B6
S1134CF0D7F8003C43F00043C7F8003CD4F80890D0
S1134D005FFA89F3402B9ABF4B4AD75CFF27F8B26E
S1134D1075B3FFF715FD39F003030ED0002399088E
S1134D208A00083255F8211009BAB1500433A26838
S1134D3022F003029A42F2D800E0002306F10801AF
S1134D40A26893420AD21D4483F0030215F801EBD2
S1134D5001F802E00133A2689A42F5D80546904270
S1134D6006D982F00303607BC8540132AA42F8D109
S1134D700023336073602379012B0BD1736803F034
S1134D8060437360726828F06043134373604FF4A8
S1134D90001300E0002322796AB9736823F0FF53FB
S1134DA023F4E01373607268244B03EA884842EAF0
S1134DB00803736000233F0407F470273B43226811
S1134DC00F2A1CD01C2A08BF43F4801323F07063FD
S1134DD0217B31B1120602F0706242F000421343AB
S1134DE003E0120602F070621343A27B0AB143F09F
S1134DF080433268134333600020BDE8F883002009
S1134E00BDE8F8834FF44070BDE8F8833B6813F0C5
S1134E10005F09D166E73B6813F0005F7FF45DAF84
S1134E204FF44070BDE8F8837B6BC3F303635B000E
S1134E3007339945E6D955E7487400000000FC1F84
S1134E4008B5FFF721FF036823F0706343F00063A4
S1134E50036008BD08B5FFF717FF036823F070630C
S1134E60036043F08063036008BD00BFF8B50446E7
S1134E700E4615461F46FFF707FF236803F07F031E
S1134E809E4242D848E0636B4FF44070F8BD002363
S1134E90036043602B79012B10D1036843F40013A2
S1134EA00360036823F480030360436803F06043F2
S1134EB04360426827F06043134343602B797BB916
S1134EC0036823F4C0030360436823F0FF5323F40F
S1134ED0E01343604268164B03EA87471743476071
S1134EE02B680F2B0CD0036823F0706303600268F7
S1134EF02B681B0603F07063134303600020F8BDA6
S1134F000020F8BD4FF44070F8BD236813F0005F33
S1134F10B9D14FF44070F8BD236813F0005FB6D0E8
S1134F20636BC3F303635B0007339E42EAD9AEE7C6
S1134F300000FC1FF8B507460E461546FFF7A4FE11
S1134F4004460068C0F30340FFF7FAFB85F8480005
S1134F503B6813F0005F32D07B6BC3F303635B00E9
S1134F6007339E4226D92AE063686B6002E06368D7
S1134F709B0C6B6030F003060DD0002303F0FC02A1
S1134F8002F10801615809BA2A4491600433DBB282
S1134F90B342F3D300E0002398420ED983F0030216
S1134FA00832A15CEA1811720133DBB28342F5D1F5
S1134FB00020F8BD4FF44070F8BD0020F8BD236810
S1134FC02B6013F4001FCFD1D1E700BF08B5FFF762
S1134FD05BFE036808BD00BF2DE9F84306460F4693
S1134FE0FFF742FE04467D1E30462946FFF74CFE7D
S1134FF02044083006F52073984222D8A046304653
S1135000FFF7EAFB874220D826E017B300252C4699
S113501008F108093046FFF737FE04604460B8F130
S1135020000F06D000F10803484403F8014B834203
S1135030FBD10135EDB22946AF42EBD80020BDE8E3
S1135040F8834FF44070BDE8F8834FF44070BDE836
S1135050F8830020BDE8F883336805F07F0523F06A
S11350607F031D4335603168C1F340710029CCD002
S11350700020BDE8F88300BFF0B54E784D8891F864
S113508006E00C7E4A7ED0F8007B634B3B400F78F1
S1135090002F14BF4FF400370027002E14BF4FF425
S11350A0803600260EF0030E4EEA03032D02ADB245
S11350B02B43A40004F00C042343120102F0300239
S11350C013433B431E43C0F8006BD0F8042B8C8879
S11350D0130C1B042343C0F8043B4C7ACB68D0F870
S11350E00C2B02F000420D7A002D40F08A808EE0F5
S11350F042F0804223F06043134303E09B0423F017
S113510060431343C0F80C3B0B7E0BB1032B1FD140
S1135110D0F81C2B02F000420B7C002B14BF4FF084
S1135120804300231A434B7C002B14BF4FF00053E1
S113513000231A430B7A23B14B6923F060431343D2
S113514004E04B699B0423F060431343C0F81C3B09
S11351508B7903F0FD03012B5CD1D0F8102B22F0E6
S11351600F04CB7E03F00F0343EA04028B7E1B047F
S113517003F470231343C0F8103B91F8202091F8F6
S1135180233043EA026391F8212043EA024391F871
S1135190222043EA0223C0F8183B0A7FCB7F43EA6C
S11351A002634A7F43EA02438A7F43EA0223C0F848
S11351B0143B4B7E0BB1032B2CD191F8282091F892
S11351C02B3043EA026391F8292043EA024391F821
S11351D02A2043EA0223C0F8243B91F8242091F8C2
S11351E0273043EA026391F8252043EA024391F809
S11351F0262043EA0223C0F8203BF0BD42F0C0421F
S113520078E7002CFAD173E742F0005276E7002CDD
S1135210FAD173E7F0BD00BFC000FCFF08B5002061
S1135220FEF7CEFD08BD00BF08B50020FEF77EFDE9
S113523008BD00BF08B50020FEF78CFD08BD00BF07
S113524008B50020FEF7BCFD08BD00BF08B500206E
S1135250FEF7B6FD08BD00BF08B50120FEF7B0FD9E
S113526008BD00BF08B50120FEF760FD08BD00BF02
S113527008B50120FEF7A4FD08BD00BF08B5012054
S1135280FEF79EFD08BD00BF08B50220FEF798FD9D
S113529008BD00BF08B50220FEF748FD08BD00BFE9
S11352A008B50220FEF78CFD08BD00BF08B502203A
S11352B0FEF786FD08BD00BF72B110B4144600F1BC
S11352C01003084A52F8233023601030054B43F88A
S11352D020105DF8044B70471030024B43F8201047
S11352E0704700BF0080FF1F410900F01F00012329
S11352F08340024A42F82130704700BF00E100E0D9
S1135300430900F01F00012282402033014941F883
S11353102320704700E100E0054B1B68002B05DDEE
S1135320013B034A1360002B00DC62B6704700BFE8
S11353303C00002072B6024A1368013313607047C0
S11353403C000020002819DAC0B2C0F38103012B0D
S113535007D010B40F4C104A022B0CBF134623463F
S113536006E00E4B00F003000901C9B2195470475E
S113537000F003000901C9B2195408E00901C9B2D7
S113538000F1604000F5614080F8001370475DF85B
S1135390044B704720ED00E01CED00E018ED00E048
S11353A0002811DAC0B2C0F38103012B06D00A49E8
S11353B00A4A022B0CBF13460B4600E0084B00F0D0
S11353C00300185C0009704700F1604000F561407B
S11353D090F800030009704720ED00E01CED00E0A8
S11353E018ED00E0430900F01F0001228240603301
S11353F0014941F82320704700E100E0430900F02F
S11354001F00012282404033014941F823207047A4
S113541000E100E043094033044A52F8232000F03D
S11354201F0322FA03F000F00100704700E100E0DE
S113543043098033044A52F8232000F01F0322FA60
S113544003F000F00100704700E100E00023037066
S11354504370704700230370012242700449416085
S11354600372C360037443748374C3740275704716
S113547040420F0070B582B006460C46264D4520CA
S113548005EB8601FCF7E6FD002002A941F8040DB6
S1135490FCF7E0FD55F82620019B03EB5203B3FB18
S11354A0F2F213461D48816841F0020181602AB17D
S11354B0013B00BF00BF00BF002BF9D117498B6827
S11354C023F002038B601346886840F00100886073
S11354D02AB1013B00BF00BF00BF002BF9D12178E6
S11354E00E4B9A6822F008029A609B68002914BF48
S11354F0082200221A43094B9A6061789A6822F0C4
S113550004029A609B68002914BF042200221343FA
S1135510024A936002B070BD400000200070034056
S1135520024A936823F001039360704700700340BC
S1135530024A536919435161704700BF0070034028
S1135540024A936919439161704700BF0070034098
S1135550F8B506460C461746244D452005EB860152
S1135560FCF778FD55F82600A0FB0701204A00232C
S113557001F098FA10F1FF3641F1FF37230103F1EE
S1135580804303F55C339B6AC3F38103012B1BD077
S1135590022B25D1012F08BF002E1BD30120F8BDFB
S11355A0144A0023BB4208BFB2420BD3002F08BFEA
S11355B0B6F5803F0ED3B0F1011002044FF6FF762A
S11355C0164307E00120F8BD012F08BF002EE7D3E2
S11355D00120F8BD02342401074B1E510020F8BD00
S11355E0012F08BF002EF5D30120F8BD4000002094
S11355F040420F00FEFF01000070034070B582B00E
S113560006465D4B186801900D4621B9D37C002BEA
S113561000F0A780A3E0D07C0B0103F1804303F5E5
S11356205C33996A21F002019962996A002814BFD7
S1135630022300231446304641EA03022B0103F1FE
S1135640804303F55C339A622278996A21F00C0155
S11356509962996A920002F00C020A439A62637892
S1135660012B07D129466268FFF772FF0346002821
S11356707FD104E06168AB1C1B01404AD150227AFF
S11356802B0103F1804303F55C33996A21F4000193
S11356909962996AD20502F400020A439A62E268A6
S11356A0996A21F070619962996A120602F0706237
S11356B00A439A62217C9A6A22F480229A629B6A43
S11356C0002914BF4FF4802200221A432B0103F156
S11356D0804303F55C339A62617C9A6A22F4003257
S11356E09A629B6A002914BF4FF4003200221A43C5
S11356F02B0103F1804303F55C339A62A17C9A6A1F
S113570022F480329A629B6A002914BF4FF48032DB
S113571000221A432B0103F1804303F55C339A62A0
S1135720237D6BB115490A690123AB4013430B6117
S113573002AB1D4415F9040CFFF7D6FD002318E055
S11357400E490A690123AB4022EA03030B6102AB51
S11357501D4415F9040CFFF7D3FD002309E00123D0
S113576007E0064B996A21F002019962996A0023C5
S113577060E7184602B070BD8C74000000700340EE
S11357802DE9F84305468846164699461B4C4520A4
S113579004EB8501FCF75EFC54F82540A4FB0601EC
S11357A0174A002301F07EF910F1FF3641F1FF376B
S11357B0002F08BFB6F5803F1AD2A4FB0901104A96
S11357C0002301F06FF910F1FF3041F1FF3100299E
S11357D008BFB0F5803F0ED23204024308F102083C
S11357E04FEA0818074B43F808200020BDE8F88367
S11357F00120BDE8F8830120BDE8F88340000020C3
S113580040420F0000700340F8B504460D464520A1
S11358103E4901EB8401FCF71DFC3D49AB1C1B0117
S1135820CA581646002701EB05118B6AC3F381039E
S1135830012B4BD1002F08BFB2F5803F26D392B283
S11358400023300C002112184B415D02500245EA3E
S1135850D2514F0147EAD0674601361A67EB010778
S1135860B6185F41B90141EA9661B001861B61EB4C
S1135870070792197B412748002180185941234B7F
S113588053F82420002301F00DF9F8BD561C47F10C
S113589000077B02700243EAD6514B0143EAD0630E
S11358A04201121A63EB010392197B41990141EA07
S11358B092619001801A61EB030180197941134BC5
S11358C053F82420002301F0EDF8F8BD561C47F1ED
S11358D000077B02700243EAD6514B0143EAD063CE
S11358E04201121A63EB010392197B41990141EAC7
S11358F092619001801A61EB030180197941034B95
S113590053F82420002301F0CDF8F8BD4000002016
S11359100070034080841E002DE9F8430646364B90
S11359208A1C03EB021257683C46002503EB011363
S11359309B6AC3F38103012B23D0002B54D1452050
S11359402E4901EB8601FCF785FB6002E10D4B015A
S113595043EAD0634201121A63EB010312196B414B
S1135960990141EA92619001801A61EB03010019E7
S11359706941224B53F82620002301F093F8BDE837
S1135980F8831E4D452005EB8601FCF763FBB8B296
S113599000214FEA17484FF0000918EB000849EBC3
S11359A001094FEA49234FEA482043EAD8514B0101
S11359B043EAD0634201121A63EB010312EB0802BB
S11359C043EB0903990141EA92619001801A61EB6A
S11359D0030110EB080041EB090155F826200023D0
S11359E001F060F8BDE8F8834520044901EB860125
S11359F0FCF730FBA9E700BF007003404000002023
S1135A0002310901014B5A50704700BF0070034036
S1135A1043EA02430231090101484350704700BF81
S1135A2000700340074B8A1C1201985803EB0113C2
S1135A309B6AC3F38103012B04BF83B203EB1040C1
S1135A40704700BF00700340074B8A1C03EB02122F
S1135A50506803EB01139B6AC3F38103012B04BF5A
S1135A6083B203EB1040704700700340024A13698D
S1135A7019431161704700BF00700340024A136963
S1135A8023EA01011161704700700340014BD8689B
S1135A900840704700700340014BD960DB687047D1
S1135AA00070034008B5FEF7AFFD00200121FFF7A9
S1135AB0F3FF08BD08B5FEF7BFFD08BD08B5FEF746
S1135AC0A3FD08BD10B582B0164BB3F88A204FF081
S1135AD08C41154B43F82210144A936843F0010398
S1135AE09360452001A9FCF7B5FA114C002021462A
S1135AF0FFF7C0FC00200146221DFFF77FFD302088
S1135B000F21FFF71FFC30200A490022FFF7D4FBC6
S1135B10064B5969002041F00101FFF709FD02B06D
S1135B2010BD00BFC8720000005006400070034062
S1135B3090740000A55A000008B54FF0E022D2F896
S1135B40883D43F47003C2F8883DFFF7F3FB00F08F
S1135B5049FEFEF771FDFFF7B5FFFFF7DDFBFEE73A
S1135B60024A136801331360704700BF44000020E9
S1135B7030B583B00446002502A941F8045D2846E7
S1135B80FCF768FA0B4A15600B49019BA1FB031350
S1135B909B095360956007231360084B1A681B68C0
S1135BA09B1AA34204D205490B689B1A9C42FBD85A
S1135BB003B030BD10E000E0D34D6210440000207B
S1135BC0014B1868704700BF440000200020704754
S1135BD000207047002070470020704770B582B0E5
S1135BE004460D46002602A941F8046D3046FCF730
S1135BF031FA184A16601849019BA1FB03139B094B
S1135C00536096600723136025B9237813F0FF0FC0
S1135C1010D013E0114B19681A4606E01368B5F169
S1135C20FF3F02D05B1A9D4206D3237813F0FF0F87
S1135C30F4D003E003200AE0032008E0FFF77AFB36
S1135C402378013BDBB22370FFF766FB002002B030
S1135C5070BD00BF10E000E0D34D6210440000208E
S1135C6010B50446FFF766FB2378DBB2FF2B05D0A3
S1135C7023780133DBB22370002400E00124FFF712
S1135C804BFB204610BD00BF38B504460D46FFF758
S1135C9051FB2570FFF740FB002038BD0020704702
S1135CA060B170B506460C460025204600F0DAF8CF
S1135CB001351834B542F8D1002070BD002070477A
S1135CC0012A0AD012B1022A10D0704750F82130AC
S1135CD023F0020340F82130704750F8213023F0BC
S1135CE0010343F0020340F82130704750F821309B
S1135CF043F0030340F82130704700BF08B500F0BB
S1135D0039F908BD50F8213023F47023120402F449
S1135D107022134340F82130704700BF50F821002F
S1135D20C0F30340704700BF50F8213043F0807344
S1135D3040F82130704700BFD0F8C03001228A40BB
S1135D401343C0F8C0307047D0F8C03001228A40F5
S1135D5023EA0203C0F8C030704700BF0B7803F099
S1135D600103C0F8C4304B7803F01F03C0F8C830F7
S1135D70704700BFD0F8A000704700BF4FF0FF335A
S1135D80C0F8A030704700BF4069704710B4446940
S1135D9001238B4024EA03038A401A4342615DF8DD
S1135DA0044B704741617047816170478069704757
S1135DB008B500F007F908BD08B500F019F908BDE9
S1135DC010B4046801238B4024EA03038A401A4375
S1135DD002605DF8044B70470160704700687047CB
S1135DE04160704781607047C160704700697047C7
S1135DF01A4B98421ED1102929D8DFE801F0090C6A
S1135E0028282828282828282828280F1215180088
S1135E1042F00100704742F00200704742F0040073
S1135E20704742F00800704702F00E00704702F01D
S1135E300D0070470A4B98420BD111B1012903D0D0
S1135E4009E002F00B00704702F007007047FF20E2
S1135E507047FF207047FF20704700BF00A0044038
S1135E6000B0044070B504460068616850F8212011
S1135E70237A012B06D013B1022B08D009E022F0BB
S1135E80020206E022F0010242F0020201E042F0C6
S1135E900302637A1D0105F0100322F050051D432F
S1135EA0A37A9B0103F040031D4325F4E065E37AE4
S1135EB0082B14D12E4B5A6802F00F02FFF798FFFB
S1135EC0FF280BD02A4B5A6822F00F025A605A68F6
S1135ED000F00F0010435860002300E000231B0271
