S02100006C70756172745F68656C6C6F5F776F726C645F7333326B3134782E6D6F744F
S1130000007000206D040000C9040000C904000051
S1130010C9040000C9040000C90400000000000075
S1130020000000000000000000000000C9040000FF
S1130030C904000000000000C9040000D54A000003
S1130040652D0000712D00007D2D0000892D00001C
S1130050952D0000A12D0000AD2D0000B92D00004C
S1130060C52D0000D12D0000DD2D0000E92D00007C
S1130070F52D0000012E00000D2E0000192E0000A9
S1130080252E0000C9040000C9040000C9040000B2
S1130090C9040000C9040000C9040000C904000028
S11300A0C9040000C9040000C9040000C904000018
S11300B0C9040000C9040000C9040000C904000008
S11300C0C9040000C9040000C9040000C9040000F8
S11300D0C9040000C9040000C9040000C9040000E8
S11300E0C9040000C9040000C9040000C9040000D8
S11300F0C9040000C9040000C9040000C9040000C8
S1130100194A0000C9040000C9040000C904000021
S1130110C9040000C9040000C9040000C9040000A7
S1130120C9040000C9040000C9040000C904000097
S1130130C9040000C9040000C9040000C904000087
S1130140C9040000C9040000C9040000C904000077
S11303F0C9040000C9040000C9040000FFFFFFFF96
S1130400FFFFFFFFFFFFFFFFFFFFFFFFFE7FFFFF79
S113041010B5054C237833B9044B13B10448AFF33A
S113042000800123237010BD0000002000000000A4
S11304305C670000084B10B51BB108480849AFF3CE
S113044000800848036803B910BD074B002BFBD09C
S1130450BDE81040184700BF000000005C670000C2
S113046004000020D888FF1F0000000072B6104965
S11304700F4A0F4B0E4C0E4D0D4E0D4FB846B9465C
S1130480BA46BB46BC460B490B4A521A013A05DD33
S11304900020042308601944043AFBDA074885461F
S11304A0074880470748804762B604F0FFFAFEE732
S11304B0000000000080FF1F00700020007000207A
S11304C0F55700001D570000FFF7FEBF074B5B699F
S11304D0DBB2042B06D0802B06D0012B0CBF0120ED
S11304E004207047022070470320704700E0074053
S11304F0044BD3F8003113F0807F1ABF024B186805
S113050000207047004006408800002010B584B0E9
S11305100B46A1B900238DF804308DF80C3001226C
S11305208DF808208DF809208DF805208DF8063007
S113053002238DF8073004AB3A4A43F8102D3A4AA7
S1130540D2F8002112F0007F67D1374AD2F80011A7
S113055021F40001C2F800114FF08061C2F80011CB
S11305600021324A1160002859D05A7A120202F44A
S1130570E0611A7A02F007020A432B48C0F804210A
S11305809979C90001F00801DA79120102F0300208
S113059011435A79920002F004020A43C0F8082178
S11305A01A79012A0FD012B1022A18D023E01A7B3B
S11305B0002A14BF4FF40002002242F001021A493B
S11305C0C1F8002117E01A7B002A14BF4FF400027F
S11305D0002242F001121449C1F800210BE01A7BF9
S11305E0002A14BF4FF403024FF4403242F00102D8
S11305F00D49C1F800211A680C4B1A600C4C00E03C
S1130600013CFFF775FF18B9002CF9D1032007E06E
S1130610002C14BF0020032002E0022000E0002090
S113062004B010BD00127A0000400640880000208B
S113063088E73000084BD3F8003213F0807F09D0EC
S1130640054BD3F8083203F00103002B034808BF1D
S113065000207047002070470040064000127A00D6
S113066010B582B00B4671B900238DF80430012215
S11306708DF805208DF806308DF801208DF80220C4
S113068002AB03F8082D254AD2F8002212F0007FAD
S11306903FD1224AD2F8001221F40001C2F800121C
S11306A00021C2F80012002835D09A78120202F410
S11306B0E0615A7802F007020A431849C1F804229B
S11306C01A7802F00102C1F808225A7999791B7943
S11306D0002B14BF03230123002A14BF0422002289
S11306E01A43002914BF4FF40003002313430B4A99
S11306F0C2F80032642400E0013CFFF79BFF18B904
S1130700002CF9D1032007E0002C14BF00200320A3
S113071002E0022000E0002002B010BD00400640CC
S1130720054BD3F8003313F0807F1DBF024BD3F881
S1130730083302480020704700400640006CDC0289
S113074010B582B00B4661B901238DF80530002243
S11307508DF806208DF801308DF8023002AB03F8D5
S1130760082D224AD2F8002312F0007F38D11F4A04
S1130770D2F8001321F40001C2F800134FF0806195
S1130780C2F8001370B39A78120202F4E0615A7846
S113079002F007020A431549C1F804231A7802F04B
S11307A00302C1F808239A795B79002B14BF012353
S11307B00923002A14BF4FF4000200221343C1F896
S11307C00033142400E0013CFFF7AAFF18B9002C01
S11307D0F9D1032007E0002C14BF0020032002E01D
S11307E0022000E0002002B010BD00BF004006401F
S11307F008B50F4BD3F8003613F0807F14D0FFF701
S113080077FE034688B10A49D1F80826C2F30222CA
S11308100132B0FBF2F3D1F80826C2F304421032DD
S113082002FB03F35B0800E00023184608BD00BF89
S11308300040064010B584B00C4689B900238DF8F9
S113084004308DF80B3001228DF808208DF8092032
S11308508DF8053007228DF806208DF8073001AC9D
S1130860354BD3F8003613F0007F5FD1324BD3F809
S1130870002622F40002C3F800264FF08062C3F879
S11308800026002854D0FFF733FE63791B0203F4DB
S1130890E062237903F0070313432749C1F80436C0
S11308A0A3781B0403F4F81263781B0203F4E063D7
S11308B01343C1F808362378012B11D013B1022B4E
S11308C01AD00AE0E379002B14BF4FF4000300238D
S11308D043F00103184AC2F800364FF47A7419E061
S11308E0E379002B14BF4FF40003002343F00113FA
S11308F0114AC2F80036F0E7E379002B14BF4FF435
S113090003034FF4403343F001030B4AC2F80036AB
S1130910E3E7013CFFF76CFF18B9002CF9D1032081
S113092007E0002C14BF0020032002E0022000E0B6
S1130930002004B010BD00BF004006402DE9F04186
S113094007460D468C7801344E7806FB04460B7836
S113095003FB0448CB78013B052B10D8DFE803F0F8
S11309600306090F0F0CFFF7C3FD09E0FFF762FE52
S113097006E0FFF7D5FE03E0FFF73AFF00E00020B2
S11309800009022F3BD0032F6ED0012F40F0A4802A
S1130990EA7802EB42015F4B53F821301B0903FB59
S11309A004F4A04200F29B800B465A4901EB8303F6
S11309B05B681B0903FB06F6B04200F2938002EB6E
S11309C0420301EB83039B681B0903FB08F3984272
S11309D000F28B80120602F07062AB781B0403F401
S11309E070231A432B7803F00F031A436B781B010F
S11309F0DBB21343484A53610020BDE8F081EA7832
S1130A0002EB4201434B03EB81035B6D1B0903FBC8
S1130A1004F4A0426CD80B463E4901EB83039B6D62
S1130A201B0903FB06F6B04265D802EB420301EB57
S1130A308303DB6D1B0903FB08F398425ED812069F
S1130A4002F07062AB781B0403F470231A432B7812
S1130A5003F00F031A436B781B01DBB213432E4AD6
S1130A6093610020BDE8F081EA7802EB4201294B52
S1130A7003EB8103D3F8A8301B0903FB04F4A04261
S1130A803FD80B46234901EB8303D3F8AC301B0951
S1130A9003FB06F6B04237D802EB420301EB8303B3
S1130AA0D3F8B0301B0903FB08F398422FD8120681
S1130AB002F07062AB781B0403F470231A432B78A2
S1130AC003F00F031A436B781B01DBB21343124A82
S1130AD0D3610020BDE8F0810020BDE8F081012051
S1130AE0BDE8F0810120BDE8F0810120BDE8F0817E
S1130AF00120BDE8F0810120BDE8F0810120BDE8BE
S1130B00F0810120BDE8F0810120BDE8F0810120E1
S1130B10BDE8F081C06400000040064038B50546D9
S1130B20FFF7D4FC2946FFF709FF044678B9E878B3
S1130B300A220849013A0B69C3F30363984203D0BC
S1130B40002AF7D1032402E0002A08BF0324204628
S1130B5038BD00BF0040064010B504461B4B1B695E
S1130B60C3F30363013B052B10D8DFE803F003064E
S1130B70090F0F0CFFF7BCFC09E0FFF75BFD06E073
S1130B80FFF7CEFD03E0FFF733FE00E000200F4B3C
S1130B901B69C3F303430133B0FBF3F0012C04D00E
S1130BA094B1022C09D0002010BD084B1B69C3F37B
S1130BB003130133B0FBF3F010BD044B1B6903F0C6
S1130BC00F030133B0FBF3F010BD00BF004006403B
S1130BD008B50F4B1B6AC3F30363062B15D8DFE874
S1130BE003F004080B0E141411000220FFF7B4FFE5
S1130BF008BDFFF77DFC08BDFFF71CFD08BDFFF72E
S1130C008FFD08BDFFF7F4FD08BD002008BD00BF3F
S1130C100040064008B511B1012927D04DE0043841
S1130C2003284DD8DFE800F00A02121AFFF778FD16
S1130C30294BD3F8043303F0070346E0FFF7FAFC2B
S1130C40254BD3F8043203F007033EE0FFF750FCD2
S1130C50214BD3F8043103F0070336E0FFF7C8FD56
S1130C601D4BD3F8043603F007032EE004380328A1
S1130C7029D8DFE800F00A02121AFFF751FD164BDB
S1130C80D3F80433C3F302231FE0FFF7D3FC124B62
S1130C90D3F80432C3F3022317E0FFF729FC0E4B09
S1130CA0D3F80431C3F302230FE0FFF7A1FD0A4B8D
S1130CB0D3F80436C3F3022307E00023184604E004
S1130CC00023184601E00023184613B1013BD84025
S1130CD008BD002008BD00BF0040064008B5114B08
S1130CE01B69C3F30113032B1AD8DFE803F00207CF
S1130CF0111406200021FFF78DFF08BD094B1B6965
S1130D00C3F34003002B14BF4FF4FA40002008BD86
S1130D10054B186808BD05200021FFF77BFF08BDBF
S1130D20002008BD008004408C00002038B51E4B14
S1130D3003EB4000B0F8FC309B0003F1804303F563
S1130D40CA231868C0F3C0051C6804F00704A54250
S1130D5025D81A6812F0804F23D01B68C3F30263AE
S1130D60013B052B14D8DFE803F003070B13130F23
S1130D700620FFF74FFF0CE00420FFF74BFF08E0CD
S1130D800520FFF747FF04E00720FFF743FF00E0DB
S1130D9000200134B0FBF4F005FB000038BD002056
S1130DA038BD002038BD00BFC0640000104B1B6973
S1130DB0C3F38103022B07D0032B0FD0002B0CBFEE
S1130DC04FF4FA3000207047094B1B69C3F340030A
S1130DD0002B14BF4FF4FA4000207047044B1B69EA
S1130DE0C3F34003002B14BF4FF4FA4000207047B4
S1130DF00080044008B5244B5B6813F4006F40D0B6
S1130E00214B5B68C3F303130E2B09D8DFE803F00F
S1130E100A080D081208171C20252F0829082C0081
S1130E20002026E0FFF7D4FE23E006200121FFF78F
S1130E30F1FE1EE004200121FFF7ECFE19E005207D
S1130E400121FFF7E7FE14E00020FFF785FE10E024
S1130E5007200121FFF7DEFE0BE00120FFF77CFEF7
S1130E6007E0FFF7A3FF04E0FFF738FF01E04FF4CA
S1130E70FA30054B5B68C3F302230133B0FBF3F094
S1130E8008BD002008BD00BF0080044030B583B019
S1130E900546FFF7ADFC88B1062D51D006238DF829
S1130EA0073002238DF8063001238DF8053002A89F
S1130EB000F8043DFFF732FE044600E00124FFF78A
S1130EC02FFC88B1032D40D074B103238DF8073073
S1130ED000228DF8062001228DF8052002A800F8D2
S1130EE0043DFFF71BFE0446FFF702FB90B1012D02
S1130EF001D12FE001246CB101238DF807300022C9
S1130F008DF806208DF8053002A800F8043DFFF79F
S1130F1005FE0446FFF78EFB58B3022D29D044B3D7
S1130F2002238DF8073000238DF806308DF8053044
S1130F3002A8012300F8043DFFF7F0FD044618E081
S1130F40FFF7EEFB0028C0D109E0FFF7D1FA002833
S1130F50D1D10AE0FFF76EFB0028E0D109E0FFF7EA
S1130F60C7FA0028C6D10124D4E7FFF763FB0028A1
S1130F70D5D1204603B030BD174B1B69C3F30363BF
S1130F80013B052B0FD8DFE803F00306090E0E0C16
S1130F900123C37007E00223C37004E00323C3707A
S1130FA001E00623C3700C4B1A690C49C2F3031207
S1130FB00A4492F89C2142701A69C2F303420A441B
S1130FC092F89C2182701B6903F00F030B4493F881
S1130FD09C310370704700BF00400640C0640000AD
S1130FE001383F282DD8DFE800F02A282C262C2CA5
S1130FF02C242C2C2C2C2C2C2C222C2C2C2C2C2C3F
S11310002C2C2C2C2C2C2C2C2C202C2C2C2C2C2C28
S11310102C2C2C2C2C2C2C2C2C2C2C2C2C2C2C2C0C
S11310202C2C2C2C2C2C2C2C2C2E06207047052000
S11310307047042070470320704702207047012046
S11310407047002070470720704700BFF0B5A1B07B
S11310500446002840F09D8001238DF80B300022C7
S11310608DF80C208DF80D308DF80E208DF8083099
S11310708DF809308DF80A308DF816308DF814305B
S11310808DF815208DF80F208DF810308DF8113063
S11310908DF838300D928DF82530924906918DF8EF
S11310A01C208DF824208DF81D308DF81E20022080
S11310B08DF81F008DF820308DF821308DF83030F8
S11310C08DF828208DF82F208DF829200C218DF8FB
S11310D02A108DF82B208DF82C308DF82D308DF8BA
S11310E03D3003218DF83C108DF84B308DF84110C4
S11310F08DF840208DF83F308DF83E308DF8450056
S11311008DF844308DF843208DF8421006208DF878
S113111049008DF848208DF847308DF84610724903
S11311201E9120211D918DF84C308DF84D208DF8A5
S11311304E208DF84F208DF850308DF854308DF8B6
S113114053308DF852208DF851208DF868308DF889
S113115069308DF86A308DF86B308DF86C308DF80D
S11311606D308DF873308DF85830179218921992AB
S11311708DF86E308DF86F308DF870208DF87120F9
S11311808DF872208DF87C308DF87D308DF87E20BE
S113119002AC2646002C00F0F580544B1B69C3F3C7
S11311A00363032B1CD0FFF7BBFA38B901200021DD
S11311B0FFF7C6FA0546002840F0018203238DF8A4
S11311C0073000228DF8062001228DF8052020A882
S11311D000F87C3DFFF7A2FC0546002840F0EF81B3
S11311E0E0783146FFF73CFA0546002840F0C48118
S11311F0607F04F11001FFF789F90546002840F0EB
S1131200BB8194F8280004F12001FFF713FB054685
S1131210FFF75CF9022806D0032807D0012808D17B
S113122004F1360606E004F13A0603E004F13E0652
S113123000E00026002D70D1F378032B58D194F8E8
S11312402830002B00F0A48106238DF807300223F8
S11312508DF8063001238DF8053020A800F87C3D78
S1131260FFF75CFC0546637F7BB1012820D1012395
S11312708DF8073000228DF806208DF8053020A85F
S113128000F87C3DFFF74AFC0546E37883B1012D65
S11312900ED102238DF8073000238DF806308DF827
S11312A0053020A8012300F87C3DFFF737FC0546F4
S11312B0002D32D1A07BE11DFFF742FA054660BB49
S11312C0F3788DF80730B3788DF8063073788DF89D
S11312D00530337820A800F87C3DFFF71FFC054655
S11312E01BE000BF00127A000084FF1F004006408C
S11312F08DF80730B3788DF8063073788DF80530A3
S1131300337820A800F87C3DFFF708FC054620B997
S1131310A07BE11DFFF714FA0546002D40F04F8134
S113132094F8303013B1E26AA64B1A6094F8353061
S113133053B1A5490B6A23F0706294F834301B064C
S113134003F0706313430B6294F84330D3B101206C
S113135004F13601FFF7F2FA0546002840F02F8128
S1131360022004F13A01FFF7E9FA0546002840F0AB
S11313702681032004F13E01FFF7E0FA0546002828
S113138040F01D8114F16C0F3AD0236F002B37D03D
S1131390E36E002B34D000218C488D4D01EB81028B
S11313A0236F9B5C00EB4303B3F8FC309B0003F119
S11313B0804303F5CA231E6826F080461E60236F0F
S11313C09E189F5CB3781B0603F0E062F378DB00A1
S11313D003F008031343327902F0070213437278CF
S11313E0002A14BF4FF080420022134300EB47074A
S11313F0B7F8FC2045F822300131E36E9942CDD391
S113140094F84430C3B194F8460094F84720714BE3
S11314105B6823F47F6194F84530002B14BF4FF4CC
S1131420006500250301DBB2120202F4E0621343FB
S11314300B432B43674A536094F84830DBB194F86C
S11314404A1094F84920634B1B6923F03F0394F836
S11314504C00034394F84B00002814BF02200020E2
S1131460890001F00C010B43120102F03002134316
S11314700343584A136194F86030002B00F09A80BB
S1131480544A136C23F0010394F861100B43136462
S1131490136C23F0020394F86220002A14BF022282
S11314A0002213434B4A1364136C23F0040394F88F
S11314B06320002A14BF042200221343454A136404
S11314C0136C23F0080394F86420002A14BF082244
S11314D0002213433F4A1364136C23F0100394F85F
S11314E06520002A14BF102200221343394A1364D2
S11314F060E094F86630EBB1364B9A6E0020986643
S11315005A6822F4805194F86820120302F480523D
S11315100A435A60986694F867305BB194F86A306D
S113152043F0805294F869305B0003F00E031343D8
S1131530284A936694F87430E3B127498B7803F012
S11315407F0294F8753083F0010342EAC313DBB2DF
S11315508B7094F8763013F0800F1CBF2033DBB20D
S11315601D490A7903F01F0302F0E00213430B71D3
S1131570002524E0002522E0FEF7A8FF02283FF41E
S113158052AE03283FF452AE01287FF4C6AE47E6BC
S1131590637F002B7FF46BAEE378002B7FF479AE8E
S11315A0012585E60D4B626D1A60A26D5A60E26DED
S11315B09A609EE794F85030002BF3D199E72846BF
S11315C021B0F0BD8C00002000400640C064000043
S11315D0005006400080044000D0074090000020E6
S11315E070B504460D4611287FD8112876D8DFE857
S11315F000F0090F151B20252A2F34383D444B5287
S11316005960676E0020FFF7A7FA0346002067E0E1
S11316100120FFF7A1FA0346002061E00220FFF752
S11316209BFA034600205BE0FFF7E4FB034600203F
S113163056E0FEF7FFFF0346002051E0FFF770F885
S1131640034600204CE0FEF753FF0346002047E02A
S1131650FFF7CEF80346002042E0A74B1B680020AA
S11316603EE0FFF7B5FA0346002039E004200021EC
S1131670FFF7D0FA0346002032E004200121FFF7EF
S1131680C9FA034600202BE005200021FFF7C2FA27
S11316900346002024E005200121FFF7BBFA03469E
S11316A000201DE006200021FFF7B4FA03460020C5
S11316B016E006200121FFF7ADFA034600200FE0F3
S11316C007200021FFF7A6FA0346002008E00720C0
S11316D00121FFF79FFA0346002001E000230420C4
S11316E0002D00F056812B6070BD232800F2D180BC
S11316F0A0F115040E2C00F29680DFE804F0081423
S11317001F2A34393E47535F677079828B007B4BC5
S1131710DB68C3F30163022B00F28880784A52F835
S113172023300020B0E0754BDB68C3F38163022BE8
S11317307FD8734A52F823300020A5E06F4BDB6852
S1131740C3F30173022B77D86D4A52F8233000207B
S11317509AE06A4BDB689B0F022B70D8684A52F8F8
S11317602330002090E0FFF745FB034600208BE088
S1131770FFF7B4FA0346002086E0624B9B78DB094E
S113178060D1FFF713FB034600207DE05D4B9B789F
S1131790DB095AD1594B1B6913F0010F58D10023AF
S11317A0184671E0574B9B78DB0955D1534B1B69A5
S11317B013F0020F53D10023184665E0514B9B7878
S11317C0DB0950D14FF4FA3300205DE04B4B1B6C26
S11317D013F0100F4AD100234FF4807054E0474BAC
S11317E01B6C13F0080F44D100234FF480704BE0BE
S11317F0424B1B6C13F0040F3ED100234FF4807056
S113180042E03E4B1B6C13F0020F38D100234FF41F
S1131810807039E0394B1B6C13F0010F32D1002377
S11318204FF4807030E0002304202DE0002318469C
S11318302AE00023184627E00023184624E000236A
S1131840184621E0002318461EE0002318461BE03A
S11318504FF47A73002017E00023184614E04FF485
S1131860FA43002010E0002318460DE00023184638
S11318700AE00023184607E00023184604E000238A
S1131880184601E000231846002D00F082802B60EA
S113189070BD4D2854D8242854D900F0F703332BB5
S11318A052D0392852D0402852D04D2852D0164B0D
S11318B003EB4003B3F8FC20144B53F8223013F02D
S11318C0804F49D04CE00120FFF746F9002855D05D
S11318D04EE016F0400F05D00020FFF73DF9002838
S11318E04CD045E016F0800F42D00220FFF734F9C7
S11318F0002843D03CE000BF8C000020008004405E
S11319009000002000D00740C06400000050064052
S113191016F0080F36D020460021FFF707FA0346D9
S113192016F0100F04D020460121FFF7FFF90346FB
S1131930002B14BF00204FF4807055B32B6070BD92
S1131940042070BD042009E0042007E0042005E021
S1131950042003E0042001E04FF480700023ECE74E
S11319600C4B034493F8AC6116F0200FB1D0AAE7F6
S113197016F0180FCCD100231846DEE700234FF4ED
S11319808070DAE716F0100FCDD100234FF4807089
S1131990D3E770BDC064000070B582B00446084649
S11319A0F9B901238DF80030FEF744FE60B9FEF763
S11319B0B7FE58B9FEF71CFF50B9FEF799FD002891
S11319C014BF06234F2304E0042302E0052300E0B0
S11319D007238DF801300123ADF80230ADF804304F
S11319E06846484B234493F8AC3113F0010F47D1B8
S11319F013F0180F0FD04278043A032A0DD8DFE809
S1131A0002F002040608022608E0032606E0012686
S1131A1004E0062602E0002600E0002613F0040F8E
S1131A201ABF818801F1FF31002113F0020F1ABFA0
S1131A30428802F1FF320022324B03EB4403B3F835
S1131A40FC309B0003F1804303F5CA231D6825F095
S1131A5080451D600378002B51D0360646F0804641
S1131A6001F007013143D20002F008020A43254B7A
S1131A7003EB4404B4F8FC10234B43F821203EE06C
S1131A8003781F3C042C3AD8DFE804F02E22160A0F
S1131A9003001E490A6C22F0010213430B642EE07A
S1131AA01A4A126C22F00202002B14BF02230023F4
S1131AB01343164A136422E0144A126C22F00402FF
S1131AC0002B14BF042300231343104A136416E0AD
S1131AD00E4A126C22F00802002B14BF08230023C4
S1131AE013430A4A13640AE0084A126C22F01002F3
S1131AF0002B14BF102300231343044A136402B0C1
S1131B0070BD00BFC0640000005006400080044067
S1131B1070B582B005460C46FEF7D8FC06465DB1AA
S1131B202B68022B06D0042B08D0012B0CBF0125F7
S1131B30042504E0022502E0054600E00325D4BBA9
S1131B40FEF7EEFD58B103238DF8073000228DF81F
S1131B50062001228DF805208DF8043051E0FEF7AF
S1131B6047FE58B106238DF8073002238DF806305E
S1131B7001238DF805308DF8043042E0FEF7B8FCFF
S1131B8050B101238DF8073000228DF806208DF81E
S1131B9005308DF8043034E0FEF74CFD88B30223A1
S1131BA08DF8073000238DF806308DF805300123B9
S1131BB08DF8043025E02378043B032B09D8DFE8B3
S1131BC003F00A020406032306E0012304E00623CB
S1131BD002E0FF2300E002238DF807300F4A6388F8
S1131BE0134493F8FC318DF80630A388134493F81A
S1131BF0FC318DF80530E388134493F8FC318DF8FB
S1131C000430B54203D101A8FEF788FF03E028465B
S1131C1001A9FEF793FE02B070BD00BFC0640000CE
S1131C20154B1B69C3F30363013B052B10D8DFE895
S1131C3003F00306090F0F0C062303700AE00423C4
S1131C40037007E00523037004E00723037001E039
S1131C5004230370084A1369C3F303430133438025
S1131C601369C3F3031301338380136903F00F0370
S1131C700133C380704700BF004006402DE9F041A6
S1131C8086B004460D4649B18889FFF7A9F9804614
S1131C90E889FFF7A5F907462E7802E00127B84640
S1131CA03E46201F172800F23381DFE810F01800A9
S1131CB053008B00E1003101310131013101310167
S1131CC03101310131013101310131013101310180
S1131CD03101310131013101310131011A018F4BDF
S1131CE01B69C3F30363022B0CD18EB301A8FFF766
S1131CF043F90220FFF7CAF80346002840F009819F
S1131D00012400E000242DB901200021FEF7A8FCE5
S1131D10034612E001238DF80D308DF80C300022BB
S1131D208DF80E208DF809808DF80A7006A901F847
S1131D30103D3046FEF794FC0346002B40F0E9804A
S1131D40002C00F0E68001A8FEF7E8FE0346E0E080
S1131D500123DEE0714B1B69C3F30363032B0CD136
S1131D6076B301A8FFF708F90320FFF78FF80346BD
S1131D70002840F0CE80012400E000242DB9304634
S1131D800021FEF7DDFC03460FE000238DF80E3042
S1131D908DF809808DF80A708DF808308DF80D30B3
S1131DA0304602A9FEF7CCFC0346002B40F0B1807C
S1131DB0002C00F0AE8001A8FEF7B0FE0346A8E0B8
S1131DC00123A6E0554B1B69C3F30363012B0DD11B
S1131DD0002E4BD001A8FFF7CFF80120FFF756F8EB
S1131DE00346002840F09580012400E000242DB92A
S1131DF030460021FEF78AFB03462EE06B6802930F
S1131E0000228DF80C208DF814208DF810808DF8A8
S1131E1011706A78012A14BF002201228DF80D2066
S1131E2000228DF80E20A3F57412A2F510623C492D
S1131E308A4203D802238DF80F3009E0A3F5F40396
S1131E40A3F59053374A93429CBF03238DF80F3078
S1131E50304602A9FEF75AFB0346002B59D1002C49
S1131E6057D001A8FEF75AFE034652E0012350E082
S1131E702A4B1B69C3F30363062B0BD17EB301A862
S1131E80FFF77AF80620FFF701F80346002840D14F
S1131E90012400E000242DB930460021FEF7CAFCDD
S1131EA0034615E000238DF808308DF80F308DF8C7
S1131EB00C808DF80D70AB7A013B8DF809302B7ACC
S1131EC0103B8DF80A30304602A9FEF7B3FC0346F6
S1131ED0FBB9F4B101A8FEF721FE034619E0012382
S1131EE017E076B1104A136923F03F0343F003036C
S1131EF0136102F55432937803F07F039370002347
S1131F0007E00A4A937843F080039370002300E0CB
S1131F100023184606B0BDE8F08100BF004006402B
S1131F2000093D000048E8010080044000D007405B
S1131F3010B4054C20602171A260237363730020E8
S1131F405DF8044B704700BF1C000020F0B583B05F
S1131F5007460E468DF804008DF8051000F0B2FF18
S1131F60314A137B537301228DF80620002B46D08F
S1131F7000242D4DAB6853F8243053B11A79022A4A
S1131F8007D01A6801A89968904710B16C73002EA5
S1131F9041D00134E4B22B7BA342EBD830E00223DE
S1131FA08DF80630204B1B7B002B37D000241E4FAE
S1131FB0BB6853F824304BB11A79012A06D01A6849
S1131FC001A89968904708B17C73AEB10134E4B2BA
S1131FD03B7BA342ECD821E000238DF80630124E5F
S1131FE0B36853F824301BB11A6801A89968904764
S1131FF0A4B1013CE4B2F3E74FF482750EE000248F
S1132000094D2B6853F82700FFF720F86F71054638
S11320100028C4D0E0E740F20315DDE700F044FFF8
S1132020284603B0F0BD00BF1C000020014B5879C6
S1132030704700BF1C000020054B5A7B1B7993425C
S113204083BF034B9B6853F822000020704700BFF6
S11320501C00002008B5FFF7C3FA08BD08B5FEF759
S1132060F5FF08BD29B14118002300F8013B88425F
S1132070FBD1704710B4064B1B6853F820406160D5
S113208053F820309A6000205DF8044B704700BF7D
S11320902C00002070B50446094D2B6853F82060CD
S11320A0084804F00F01002200F02EFD30461021F4
S11320B0FFF7D8FF2B68002043F8240070BD00BF51
S11320C02C0000200080004038B5102000F0E0FE15
S11320D00D4B1B68A3B100240B4D2B6853F824301F
S11320E013B11878FFF7D6FF0134102CF5D1074D42
S11320F06C1E0F3514F9010F00F0CAFEAC42F9D181
S11321000020014B186038BD2C000020D066000070
S113211008B5084B1B6853F8203000F00F00064A3E
S11321201077D07723B15A6812B1197B9868904719
S113213008BD00BF2C0000200080004038B50546D3
S113214000F00F040A482146002200F0DDFC094B90
S11321501B6853F8253053B1054A1477D477947724
S113216001221A735A6812B1197B9868904738BDD6
S1132170008000402C0000202DE9F04F87B09DF82E
S11321804080119E012505FA08F5EFB2B6FBF7F47D
S113219007FB1464003418BF0124002C73D1059389
S11321A004920391814600F00F07DFF8ECA050463B
S11321B0394600F0AFFCDAF8003023F08003CAF8A7
S11321C000307B0103F1804202F5004B02F510421E
S11321D004981060534441F2100205989850CDF8C9
S11321E00080CDF80480504639460022134600F0A2
S11321F0C1FC039B032B2CD8DFE803F0020D192349
S1132200002241F204032BF803206DB2ADB27A012F
S11322101F4B9D521DE06DB2ADB241F204032BF889
S113222003507A011B4B134400229A8011E06DB2D3
S1132230ADB241F204032BF803507A01144B9D52C2
S113224007E0002141F204032BF803107A01104B3C
S11322509952114D28463946324600F0A3FC2846CF
S11322603946012200F02CFD05EB471707F580578E
S1132270BB8B9BB243F00203BB83084B1B6853F830
S1132280293000221A73204607B0BDE8F08F00BF42
S11322901490004010900040008000402C0000206A
S11322A070B582B004469DF818500095079D0195BD
S11322B0FFF762FF0646D0B904F00F040D4D28461F
S11322C02146089A00F0FCFC05EB441000F5805010
S11322D0838B23F008031B041B0C9DF82420002A85
S11322E014BF0822002213436401034A13533046E7
S11322F002B070BD008000401C90004008B500F0A2
S11323000F010348012200F0FFFB002008BD00BFBD
S11323100080004008B500F00F010348002200F0DF
S1132320F3FB002008BD00BF0080004010B40F4B39
S11323301C5C04F07F041C541C5C04F0C00401F019
S11323403F01214319541B5C03F0BF03002A14BF4F
S1132350402200221343054A1354135C43F08003C4
S1132360135400205DF8044B704700BF0010024076
S11323702DE9F04180460C464D7805F00F061021FA
S1132380FFF770FE6078A178227BFFF7CFFF074646
S11323901C48314600F0BEFB8FBB1B4B1B6843F847
S11323A0258053F82520157053F8253000221A7320
S11323B0144D28463146012200F0A0FB2B6813F08F
S11323C0040F11D12378FF2B0ED086F0030606F1FB
S11323D0804606F5004696F8002102F0F00203F06C
S11323E00F03134386F800316568A1686278064BD1
S11323F01B6853F82200456053F822309960384630
S1132400BDE8F081008000402C0000202DE9F84355
S11324100C4616469946089F264B18604021FFF744
S113242021FE254D284600F093FB2B6823F004027F
S113243023789B0003F0040313432B602B6823F0E1
S113244010036278002A14BF1022002213432B6069
S1132450102000F011FD194D6C1E0F3514F9010FF9
S113246000F00AFDAC42F9D11AE0B9F1000F13D023
S1132470A7B1A6F10408A9F1040600252C4658F8D2
S1132480040F56F8041FFFF773FF002818BF054612
S11324900134BC42F3D109E0002507E0002505E042
S11324A0074800F057FC002EDFD100252846BDE880
S11324B0F88300BF2C00002000800040D06600009C
S11324C00010024008B500F00F01024800F022FBA2
S11324D008BD00BF0080004000F00F0080304001C4
S11324E0014B1950704700BF0080004000F00F00FE
S11324F089B2400100F1804000F5104081807047AE
S113250000F00F00400100F1804000F5004041F26E
S11325100602835A9BB2090201F4E06123F4E063EA
S11325200B438352704700BF00F00F004001014B82
S1132530195070470C90004000F00F00400100F16A
S1132540804000F5004041F21803C150704700BFBD
S113255000F00F00400100F1804000F5004041F21E
S11325601003C150704700BF00F00F0089B2400152
S1132570014B1952704700BF1490004000F00F0047
S1132580400100F1804000F5004041F20602835A08
S11325909BB201F0070123F007030B4383527047FA
S11325A008B50A4600F00F01014800F0FBFA08BD27
S11325B00080004008B50A4600F00F01014800F011
S11325C07FFB08BD0080004008B500F00F01024801
S11325D000F0A6FB08BD00BF0080004008B50A4615
S11325E000F00F01014800F02DFB08BD0080004001
S11325F000F00F004201074B9B5A23F008031B0411
S11326001B0C002914BF0822002213434001014A75
S1132610135270471C90004008B500F00F030129C5
S113262008D011B1022914D008BD1148194600F090
S113263065FA08BD58010F49095A21F0040109043B
S1132640090C002A14BF042200221143094A115222
S113265008BD58010749095A21F002010904090C6F
S1132660002A14BF022200221143024A115208BD5B
S1132670008000401C90004008B518B1034800F0E9
S113268033FA08BD014800F025FA08BD0080004077
S113269000F00F00014B5877704700BF00800040E6
S11326A0002841D038B5044600293CD00D460846E0
S11326B02021FFF7D7FC627A02F00702237E42EA68
S11326C0C322237A1B0203F4E0631A43637EDB0014
S11326D0DBB21343EB8023682B606389AB80E3692F
S11326E0AB602369EB6063682B61A389AB82E36A07
S11326F01B68EB8294F8203013B1636AAB6101E08C
S11327006369AB6194F82830002B14BF02230023C3
S113271094F82020002A14BF102200221343AB8314
S1132720E36A1B68EB8338BD704700BF2DE9F043B3
S113273083B00C4600F00F056F4F3846294600F071
S1132740E9F922686E0106F1804303F5004803F5B8
S113275010431A6062683E4441F2100306EB030919
S1132760F250227E637E217A0091617A019138468B
S1132770294600F0FFF9628941F2040328F8032096
S1132780A389A9F80430236906F58056F36094F808
S1132790203073B1384607EB451303F580539A8B09
S11327A092B242F010029A832946626A00F04AFA11
S11327B00FE06A0102F1804202F5004241F2180181
S11327C05018838823F010031B041B0C8380636957
S11327D053506A01494B9B5A23F002031B041B0C00
S11327E094F82820002A14BF02220022134369010E
S11327F0424A5352E36A002B75D019793E4B1B6849
S113280013F0800F17D06B0103F1804303F50043ED
S113281041F208029A5822F00043002914BF4FF0F5
S1132820004200221A436B0103F1804303F5004385
S113283041F208015A50E36A59792F4B1B6813F08F
S1132840800F17D06B0103F1804303F5004341F27D
S113285008029A5822F08043002914BF4FF08042A6
S113286000221A436B0103F1804303F5004341F254
S113287008015A50204EE36A304629469A6800F00F
S1132880BFF930462946E26900F08CF9E36A304624
S113289029465A7B1B7B00F0DBF9E26A917B06EB4D
S11328A0451000F58050838B9BB2D27B120202F458
S11328B0706223F4706313438383838B23F02003B8
S11328C01B041B0C002914BF202200221343304692
S11328D006EB451202F580529383E36A29461A688F
S11328E000F0EEF904E004482946E26900F05AF9E0
S11328F003B0BDE8F08300BF008000401C9000409E
S113290010B50446064A136843F080031360FFF7CA
S11329100DFF044B1B6853F824300020187310BDBE
S1132920008000402C0000202DE9F04F97B0059066
S113293092461F46209D219C9DF8883001931F31AB
S113294021F01F065C4B1B6853F820304FF0000841
S113295083F80C804FF0010909FA0AF20292BDF8DB
S11329600820B7FBF2F302FB1373B3EB080118BFA3
S11329700121039106A83021FFF774FB0DF1480BE8
S113298058461021FFF76EFBCDF82880CDF82C8037
S11329908DF830808DF831808DF820A08DF821A03D
S11329A00D978DF840908DF83890CDF844B08DF89F
S11329B04C808DF84D808DF854808DF856800198A8
S11329C0002875D00399002972D12B6806932368D7
S11329D007936B686268934259D1297A227A9142AB
S11329E058D1A6F120080026B246BDF8082004926A
S11329F000F1FF3B5FFA8BFB13E0D9F80C30069330
S1132A002146E3680793D9F810302269934244D1F0
S1132A100C350C3408F1200899F814000A7D904212
S1132A203ED1B3FBF7F3119A1360A9462B7A032B1B
S1132A301BD8DFE803F002091016ADF822A0BDF898
S1132A400830ADF8243010E0BDF80830ADF822307D
S1132A50ADF824A009E0049BADF82230ADF8243091
S1132A6003E0ADF822A0ADF824A0B3450EBFCDF825
S1132A703CA008F120030F9326B9059806A9FFF797
S1132A8055FE10E006A84146FFF70AFE0BE00123BD
S1132A9003930DE0012303930AE00123039307E06A
S1132AA00123039304E00136F6B2019B9E42A4D1B4
S1132AB0039817B0BDE8F08F2C000020024B1B6870
S1132AC053F82030187B70472C00002000487047D2
S1132AD000800040036843F400330360036813F488
S1132AE0003FFBD1704700BF036843F480330360A9
S1132AF0036813F4803FFBD1704700BF0AB14176ED
S1132B0070470176704700BF0AB1C176704781767D
S1132B10704700BF00EB411141F2080288180023FE
S1132B208B5001F58052136041F204028B5241F242
S1132B3006028B52436041F210000A180B50938036
S1132B40D38041F218000A180B509380D380704749
S1132B5038B50546036823F4403323F0C603036005
S1132B6000242846E1B2FFF7D5FF0134102CF8D138
S1132B7038BD00BF10B4DB00DCB29DF8083003F0B0
S1132B800703234343EAC2229DF80440240204F4C9
S1132B90E064224392B2803100EB4110C2805DF8C0
S1132BA0044B7047036813F0800F13D010B400EB8C
S1132BB0411341F208041B59002B11DB00EB4113B4
S1132BC01B5913F0804F0BD122F0404200EB41100F
S1132BD0025112E000EB411041F20803C250704769
S1132BE000EB411041F20801435823F47F7323F0B2
S1132BF00303C2F309021A4342505DF8044B7047C1
S1132C0030B4046814F0800F16D000EB411341F285
S1132C1008041D591B5913F0804F01D1002D0BDA04
S1132C2000EB411041F208040159044B0B400449E4
S1132C3001EA82221343035130BC7047FF0300C0F2
S1132C4000FCFF3F00EB411141F21803CA507047EA
S1132C5010B400EB411404F580541834E488C4F330
S1132C600E045BB900EB411000F58053DC8300F5E2
S1132C708050C38AC3F30E03C3821EE044F40044AD
S1132C8000EB411101F58050C48301F58051CB8ADA
S1132C906FEA43436FEA53439BB2CB82C38B9BB22D
S1132CA0520202F4F05223F4F0531343C383CB8A49
S1132CB09BB223F4F0531A43CA825DF8044B704765
S1132CC000EB411303F580531833DB881BB2002B50
S1132CD012DA00EB411000F58051CB8BC2F30802ED
S1132CE003F47E431343CB8300F58050C38A03F47B
S1132CF07E431A43C282704700EB411101F58050B4
S1132D00C38BC2F30E0203F400431343C38301F5E0
S1132D108051CB8A03F400431A43CA82704700BF30
S1132D2000EB411303F580531833DB881BB2002BEF
S1132D3008DA00EB411000F580501030C088C0F371
S1132D400800704700EB411101F58051C88AC0F3B7
S1132D500E00704700231A46C2540133102BFBD1D6
S1132D60704700BF08B50020FFF7D2F908BD00BFC7
S1132D7008B50120FFF7CCF908BD00BF08B5022053
S1132D80FFF7C6F908BD00BF08B50320FFF7C0F977
S1132D9008BD00BF08B50420FFF7BAF908BD00BF9D
S1132DA008B50520FFF7B4F908BD00BF08B5062033
S1132DB0FFF7AEF908BD00BF08B50720FFF7A8F973
S1132DC008BD00BF08B50820FFF7A2F908BD00BF81
S1132DD008B50920FFF79CF908BD00BF08B50A2013
S1132DE0FFF796F908BD00BF08B50B20FFF790F96F
S1132DF008BD00BF08B50C20FFF78AF908BD00BF65
S1132E0008B50D20FFF784F908BD00BF08B50E20F2
S1132E10FFF77EF908BD00BF08B50F20FFF778F96A
S1132E2008BD00BF38B50020FFF750FEC56A002476
S1132E3015F0010F02D02046FFF780F96D08013428
S1132E40E4B2102CF4D138BD72B110B4144600F1C0
S1132E501003084A52F8233023601030054B43F81E
S1132E6020105DF8044B70471030024B43F82010DB
S1132E70704700BF0080FF1F410900F01F000123BD
S1132E808340024A42F82130704700BF00E100E06D
S1132E90430900F01F00012282402033014941F818
S1132EA02320704700E100E0054B1B68002B05DD83
S1132EB0013B034A1360002B00DC62B6704700BF7D
S1132EC03000002072B6024A136801331360704761
S1132ED030000020002819DAC0B2C0F38103012BAE
S1132EE007D010B40F4C104A022B0CBF13462346D4
S1132EF006E00E4B00F003000901C9B219547047F3
S1132F0000F003000901C9B2195408E00901C9B26B
S1132F1000F1604000F5614080F8001370475DF8EF
S1132F20044B704720ED00E01CED00E018ED00E0DC
S1132F30002811DAC0B2C0F38103012B06D00A497C
S1132F400A4A022B0CBF13460B4600E0084B00F064
S1132F500300185C0009704700F1604000F561400F
S1132F6090F800030009704720ED00E01CED00E03C
S1132F7018ED00E0430900F01F0001228240603395
S1132F80014941F82320704700E100E0430900F0C3
S1132F901F00012282404033014941F82320704739
S1132FA000E100E043094033044A52F8232000F0D2
S1132FB01F0322FA03F000F00100704700E100E073
S1132FC043098033044A52F8232000F01F0322FAF5
S1132FD003F000F00100704700E100E000230370FB
S1132FE0437070470023037001224270044941601A
S1132FF00372C360037443748374C37402757047AB
S113300040420F0070B582B006460C46264D45205E
S113301005EB8601FFF71EF8002002A941F8040D14
S1133020FFF718F855F82620019B03EB5203B3FB76
S1133030F2F213461D48816841F0020181602AB111
S1133040013B00BF00BF00BF002BF9D117498B68BB
S113305023F002038B601346886840F00100886007
S11330602AB1013B00BF00BF00BF002BF9D121787A
S11330700E4B9A6822F008029A609B68002914BFDC
S1133080082200221A43094B9A6061789A6822F058
S113309004029A609B68002914BF0422002213438F
S11330A0024A936002B070BD3400002000700340F7
S11330B0024A936823F00103936070470070034051
S11330C0024A536919435161704700BF00700340BD
S11330D0024A936919439161704700BF007003402D
S11330E0F8B506460C461746244D452005EB8601E7
S11330F0FEF7B0FF55F82600A0FB0701204A002385
S113310002F04AFE10F1FF3641F1FF37230103F1CB
S1133110804303F55C339B6AC3F38103012B1BD00B
S1133120022B25D1012F08BF002E1BD30120F8BD8F
S1133130144A0023BB4208BFB2420BD3002F08BF7E
S1133140B6F5803F0ED3B0F1011002044FF6FF76BE
S1133150164307E00120F8BD012F08BF002EE7D376
S11331600120F8BD02342401074B1E510020F8BD94
S1133170012F08BF002EF5D30120F8BD3400002034
S113318040420F00FEFF01000070034070B582B0A2
S113319006465D4B186801900D4621B9D37C002B7F
S11331A000F0A780A3E0D07C0B0103F1804303F57A
S11331B05C33996A21F002019962996A002814BF6C
S11331C0022300231446304641EA03022B0103F193
S11331D0804303F55C339A622278996A21F00C01EA
S11331E09962996A920002F00C020A439A62637827
S11331F0012B07D129466268FFF772FF03460028B6
S11332007FD104E06168AB1C1B01404AD150227A93
S11332102B0103F1804303F55C33996A21F4000127
S11332209962996AD20502F400020A439A62E2683A
S1133230996A21F070619962996A120602F07062CB
S11332400A439A62217C9A6A22F480229A629B6AD7
S1133250002914BF4FF4802200221A432B0103F1EA
S1133260804303F55C339A62617C9A6A22F40032EB
S11332709A629B6A002914BF4FF4003200221A4359
S11332802B0103F1804303F55C339A62A17C9A6AB3
S113329022F480329A629B6A002914BF4FF4803270
S11332A000221A432B0103F1804303F55C339A6235
S11332B0237D6BB115490A690123AB4013430B61AC
S11332C002AB1D4415F9040CFFF7D6FD002318E0EA
S11332D00E490A690123AB4022EA03030B6102ABE6
S11332E01D4415F9040CFFF7D3FD002309E0012365
S11332F007E0064B996A21F002019962996A00235A
S113330060E7184602B070BDE0660000007003403C
S11333102DE9F84305468846164699461B4C452038
S113332004EB8501FEF796FE54F82540A4FB060144
S1133330174A002302F030FD10F1FF3641F1FF3748
S1133340002F08BFB6F5803F1AD2A4FB0901104A2A
S1133350002302F021FD10F1FF3041F1FF3100297B
S113336008BFB0F5803F0ED23204024308F10208D0
S11333704FEA0818074B43F808200020BDE8F883FB
S11333800120BDE8F8830120BDE8F8833400002063
S113339040420F0000700340F8B504460D46452036
S11333A03E4901EB8401FEF755FE3D49AB1C1B0170
S11333B0CA581646002701EB05118B6AC3F3810333
S11333C0012B4BD1002F08BFB2F5803F26D392B218
S11333D00023300C002112184B415D02500245EAD3
S11333E0D2514F0147EAD0674601361A67EB01070D
S11333F0B6185F41B90141EA9661B001861B61EBE1
S1133400070792197B412748002180185941234B13
S113341053F82420002302F0BFFCF8BD561C47F1EA
S113342000077B02700243EAD6514B0143EAD063A2
S11334304201121A63EB010392197B41990141EA9B
S113344092619001801A61EB030180197941134B59
S113345053F82420002302F09FFCF8BD561C47F1CA
S113346000077B02700243EAD6514B0143EAD06362
S11334704201121A63EB010392197B41990141EA5B
S113348092619001801A61EB030180197941034B29
S113349053F82420002302F07FFCF8BD3400002000
S11334A00070034080841E002DE9F8430646364B25
S11334B08A1C03EB021257683C46002503EB0113F8
S11334C09B6AC3F38103012B23D0002B54D14520E5
S11334D02E4901EB8601FEF7BDFD6002E10D4B01B3
S11334E043EAD0634201121A63EB010312196B41E0
S11334F0990141EA92619001801A61EB030100197C
S11335006941224B53F82620002302F045FCBDE814
S1133510F8831E4D452005EB8601FEF79BFDB8B2EE
S113352000214FEA17484FF0000918EB000849EB57
S113353001094FEA49234FEA482043EAD8514B0195
S113354043EAD0634201121A63EB010312EB08024F
S113355043EB0903990141EA92619001801A61EBFE
S1133560030110EB080041EB090155F82620002364
S113357002F012FCBDE8F8834520044901EB860102
S1133580FEF768FDA9E700BF007003403400002087
S113359002310901014B5A50704700BF00700340CB
S11335A043EA02430231090101484350704700BF16
S11335B000700340074B8A1C1201985803EB011357
S11335C09B6AC3F38103012B04BF83B203EB104056
S11335D0704700BF00700340074B8A1C03EB0212C4
S11335E0506803EB01139B6AC3F38103012B04BFEF
S11335F083B203EB1040704700700340024A136922
S113360019431161704700BF00700340024A1369F7
S113361023EA01011161704700700340014BD8682F
S11336200840704700700340014BD960DB68704765
S11336300070034010B5104B53F820400F4B53F863
S11336402030187C10F0FF0F14D119609A60012209
S11336501A740222DA85A36943F40023A361A369DF
S113366013F4002FFBD020460549012201F08AF80B
S1133670002010BD022010BDE466000038000020C8
S113368017000300F0B585B01C4B53F820401C4BC9
S113369053F82060337C13F0FF0F2BD113460A46F6
S11336A0054631600027B760012131740220F0859E
S11336B096F82A00009701910293039104F11C03E8
S11336C0FEF7EEFD96F82A000E492A46FEF7D2FCD4
S11336D096F82A00FEF712FEA36943F40023A361BF
S11336E0A36913F4002FFBD0236943F4000323617F
S11336F0002000E0022005B0F0BD00BFE466000039
S113370038000020D937000038B5154B53F8204055
S1133710144B53F82050EB8D9BB2022B02D10023A3
S1133720EB8504E020461049002201F02BF82046E6
S11337300E49002201F026F8A36923F40023A361B3
S1133740A36913F4002FFBD100232B74AB7C13F07B
S1133750FF0F03D005F12C0001F03CFA38BD00BF87
S1133760E466000038000020170003001600030080
S113377038B5164B53F82040154B53F820502369A5
S113378023F40003236195F82A00FEF7C3FD2046C5
S11337901049002200F0F6FFA36923F40023A3617B
S11337A0A36913F4002FFBD1AB7C13F0FF0F03D0FC
S11337B005F12C0001F00EFAEB8D9BB2022B04BF35
S11337C00023EB8500232B7438BD00BFE4660000A2
S11337D0380000201600030038B5194B53F8204078
S11337E0184B53F8205001290AD10123E385FFF730
S11337F0BFFF236A13B320460321626A984738BD8A
S1133800236A1BB120460121626A9847A36883B1E9
S113381094F82A002168FEF75FFEA16894F82A0054
S1133820FEF7C8FE0023A36094F82A00FEF766FDA5
S113383038BD28460449012200F0A4FF38BD00BF6A
S113384038000020E46600001600030008B50E4BA3
S113385053F820300D4A52F820001A681B7D13B922
S11338601378037708BD012B06D11378517843EA06
S1133870012100F04FFF08BD1378517843EA01217C
S113388000F054FF08BD00BF38000020E4660000CB
S113389010B5124B53F82030114C54F82040587C8A
S11338A010F0FF0F18D1012058745960DA60022219
S11338B01A86A36943F48023A361A36913F4802FB8
S11338C0FBD02046012101F075F82046054901226C
S11338D000F058FF002010BD022010BD3800002069
S11338E0E4660000150003002DE9F04385B0214C87
S11338F054F82040204D55F82060757C15F0FF0FDA
S113390033D10F46804696F829004FF00009CDF8D0
S113391000900125019502920395494604F11C0289
S11339203B46FEF7BDFC96F8290014494246FEF7D3
S1133930A1FB96F82900FEF7E1FC7760C6F80C902D
S1133940757402233386A36943F48023A361A369B6
S113395013F4802FFBD02046012101F02BF82369BA
S113396043F400132361002000E0022005B0BDE809
S1133970F08300BFE4660000380000204D3A0000E8
S113398038B5154B53F82050144B53F82040A36915
S113399023F48023A361A36913F4802FFBD1204671
S11339A0002101F007F8E36920460D49002200F0E8
S11339B0E9FEEB7C13F0FF0F05D005F12B0001F0BD
S11339C009F90023EB7400236B742B8E9BB2022B3A
S11339D004BF00232B8638BD38000020E4660000B5
S11339E01500030038B5174B53F82040164B53F815
S11339F02050A36923F48023A361A36913F4802FC7
S1133A00FBD12046002100F0D5FF236923F40013E5
S1133A102361E36995F82900FEF77CFCEB7C13F045
S1133A20FF0F05D005F12B0001F0D4F80023EB744F
S1133A302B8E9BB2022B04BF00232B8600236B74B6
S1133A4038BD00BFE46600003800002070B50546AC
S1133A50244B53F82040244B53F82060012911D102
S1133A6001232386FFF7BEFFA3691BB12046032170
S1133A70E2699847736923F0C02323F4F81343F4ED
S1133A8070237361238E9BB2022B29D1A3691BB1CE
S1133A9020460021E2699847E36883B194F829003D
S1133AA06168FEF755FDE16894F82900FEF782FD90
S1133AB00023E36094F82900FEF720FC70BD28463B
S1133AC0FFF790FFA3691BB120460221E2699847E2
S1133AD0736923F0C02323F4F81343F47023736150
S1133AE070BD00BF38000020E466000010B582B04D
S1133AF0134B53F82030134A52F820005C681B7DA6
S1133B0013B9C369237018E0012B0BD10DF1060121
S1133B1000F01EFEBDF806302370BDF806301B0A07
S1133B2063700AE00DF1060100F01CFEBDF80630DA
S1133B302370BDF806301B0A637002B010BD00BFCD
S1133B4038000020E46600000123C3714FF41653CB
S1133B5003600023037143718371037243727047DE
S1133B60F0B583B00646164B53F82050154A52F868
S1133B7020700344187B01A9FEF76CFA124C284606
S1133B80214600F057FE0028F9D007F12B0001F080
S1133B903FF807F12C0001F03BF8094B334493F94B
S1133BA010402046FFF774F9204608490022FFF729
S1133BB04BF90020034B43F8260003B0F0BD00BFCF
S1133BC0E46600003800002016000200C90400006A
S1133BD0034B53F8203098699961DA61704700BF4C
S1133BE038000020034B53F82030186A19625A62D7
S1133BF0704700BF3800002070B505461E46144BC0
S1133C0053F820400123A37494F82830012B02D1E7
S1133C10FFF710FD01E0FFF735FDA8B904F12C0012
S1133C20314600F095FF03280ED10023A37403232B
S1133C30E38594F82830012B03D12846FFF764FD6F
S1133C4002E02846FFF794FDE08D80B270BD00BF0E
S1133C50380000202DE9F84381461D4B53F82040DD
S1133C601C4B53F8208098F8103013F0FF0F2BD121
S1133C700F461646A36943F40023A361A36913F412
S1133C80002FFBD0AEB1144D2046294600F0D2FDE2
S1133C900028F9D0C8F800704846FFF7D7FD98F817
S1133CA0143013B90137013E01E00237023E002E01
S1133CB0EAD1A36923F40023A361A36913F4002FB9
S1133CC0FBD10020BDE8F8830220BDE8F88300BFE3
S1133CD0E4660000380000201700020010B5074B0E
S1133CE053F8203000249C7493F82830012B02D11F
S1133CF0FFF7A0FC10BDFFF7C5FC10BD3800002085
S1133D0038B50D4B53F8204099B1227C12F0FF0FC7
S1133D100DD094F82820012A02D1A2680A6008E094
S1133D200D4694F82A00FEF74FFC286001E00022BB
S1133D300A60E08D80B238BD3800002008B50A4B17
S1133D4053F820301A7C12F0FF0F0BD040F20262BD
S1133D50DA8593F82830012B02D1FFF7D5FC01E076
S1133D60FFF706FD002008BD3800002070B50546A9
S1133D701E46144B53F820400123E37494F8283072
S1133D80012B02D1FFF784FD01E0FFF7ADFDA8B9D7
S1133D9004F12B00314600F0DBFE03280ED1002392
S1133DA0E3740323238694F82830012B03D1284697
S1133DB0FFF7E6FD02E02846FFF714FE208E80B2EE
S1133DC070BD00BF380000202DE9F04781464A4B02
S1133DD053F82040494B53F8208098F8113013F0E1
S1133DE0FF0F40F083800F461646A36943F48023F7
S1133DF0A361A36913F4802FFBD066E0404DDFF884
S1133E0004A12046294600F015FD0028F9D0C8F881
S1133E1004704846FFF76AFE98F8143013B9013766
S1133E20013E01E00237023E2046514600F002FD09
S1133E3070B1A36923F48023A361A36913F4802FD1
S1133E40FBD120462F4900F019FD40F2036050E0F9
S1133E5020462D4900F0EEFC70B1A36923F48023C1
S1133E60A361A36913F4802FFBD12046264900F0F7
S1133E7005FD40F205603CE02046244900F0DAFCF0
S1133E8070B1A36923F48023A361A36913F4802F81
S1133E90FBD120461D4900F0F1FC40F2046028E00B
S1133EA020461B4900F0C6FC90B1A36923F480238B
S1133EB0A361A36913F4802FFBD12046144900F0B9
S1133EC0DDFC3EB140F201600DE0002E96D101E030
S1133ED0002E96D1A36923F48023A361A36913F46C
S1133EE0802FFBD10020E369BDE8F0870220BDE804
S1133EF0F0870028F7D1EDE7E466000038000020E1
S1133F00150002001100020012000200100002005D
S1133F101300020010B5074B53F820300024DC7462
S1133F2093F82830012B02D1FFF7B2FC10BDFFF744
S1133F30DBFC10BD3800002038B50D4B53F8204091
S1133F4099B1627C12F0FF0F0DD094F82820012A59
S1133F5002D1E2680A6008E00D4694F82900FEF7F1
S1133F6033FB286001E000220A60208E80B238BD55
S1133F703800002008B50A4B53F820305A7C12F060
S1133F80FF0F0BD040F202621A8693F82830012BFF
S1133F9002D1FFF7F5FC01E0FFF724FD002008BD86
S1133FA038000020F0B583B0314B1A18167B53F853
S1133FB02050304B53F820303BB11A7C12F0FF0FE5
S1133FC04AD15B7C13F0FF0F48D10C46304601A95F
S1133FD0FEF740F8019E4FEA840EB6FBFEFE1FFA80
S1133FE08EFE4FEA8E07B6FBF7F7BC4234BF3F1B89
S1133FF0E71B35E0B6FBF1F083B203FB02F3B6FB3B
S1134000F3F39C4234BF1B1BE31ABB4203D81FFAD1
S113401080FE1F46944621440132212AEAD1BCF194
S1134020070F03D82B6943F400332B612B6923F06A
S1134030F8520CF1FF331B0603F0F85313432B61C2
S11340402B6923F4FF5323F01F03CEF30C0E4EEA27
S113405003032B61002009E0022007E0022005E0B1
S113406004EB840105224FF0040CC3E703B0F0BD58
S1134070E466000038000020F0B583B006460C4624
S11340801546324B53F820700344187B01A9FDF701
S1134090E1FF631E04F13301002203F8012F8B4278
S11340A0FBD12B4B43F82640EB7984F82830AB79CD
S11340B023752B7A84F829306B7A84F82A303846B1
S11340C000F0EEFA30462968FFF76CFF2B792BB12C
S11340D03846A979012200F0F5FA04E03846A979B6
S11340E0002200F0EFFA3846297900F003FB3B691F
S11340F06A7923F4005343EA42333B610025E585A2
S1134100258604F12B00294600F078FD074604F1CA
S11341102C00294600F072FD012F11D0012811D086
S11341200A4B334493F9104020460A4B53F82610A7
S11341302A46FEF789FE2046FEF79EFE284602E048
S1134140012000E0012003B0F0BD00BFE4660000E0
S113415038000020A084FF1F30B583B00C460B4B01
S113416053F820501844007B01A9FDF773FF2A6916
S11341702B69C3F30C03C2F3046202FB0333019AF9
S1134180B2FBF3F3236003B030BD00BFE46600006C
S1134190034B53F8203019609A600020704700BF29
S11341A038000020034B53F820305960DA600020B7
S11341B0704700BF38000020F8B506468E4B53F810
S11341C020408E4B53F8205020468D4900F032FB9E
S11341D0E0B140F201632B8695F82830012B03D11E
S11341E03046FFF7CDFB02E03046FFF7FBFBAB693F
S11341F01BB128460321EA699847636923F0C02369
S113420023F4F81343F47023636167E020467D4987
S113421000F010FBE0B140F203632B8695F82830E0
S1134220012B03D13046FFF7ABFB02E03046FFF72A
S1134230D9FBAB691BB128460321EA699847636936
S113424023F0C02323F4F81343F47023636145E09F
S113425020466D4900F0EEFAE0B140F204632B868B
S113426095F82830012B03D13046FFF789FB02E093
S11342703046FFF7B7FBAB691BB128460321EA6957
S11342809847636923F0C02323F4F81343F470239D
S1134290636123E020465D4900F0CCFAE0B140F2CE
S11342A005632B8695F82830012B03D13046FFF7A0
S11342B067FB02E03046FFF795FBAB691BB128466C
S11342C00321EA699847636923F0C02323F4F813B0
S11342D043F47023636101E04D4B636120464D4913
S11342E000F084FA60B320464B4900F0A3FA38B3D7
S11342F0424B53F826503046FFF7F8FB2B7D33B979
S11343006B6801336B60EB68013BEB6005E06B6845
S113431002336B60EB68023BEB60EB682BB9AB6973
S11343201BB128460021EA699847EB6843B9304637
S1134330FFF726FBAB691BB128460221EA699847BF
S11343402046364900F052FA002833D0204634493A
S113435000F070FA00282DD0284B53F82650264B35
S113436053F82670AB682BB33046FFF76FFA2B7DFA
S113437033B92B6801332B60AB68013BAB6005E0BC
S11343802B6802332B60AB68023BAB60AB688BB924
S11343902B6A1BB1284601216A6A9847AB684BB95E
S11343A038461E49002200F0EDF938461D49012225
S11343B000F0E8F920461B4900F018FAD0B1204675
S11343C0194900F037FAA8B10C4B53F82640A368FA
S11343D083B994F82830012B03D13046FFF794F9C0
S11343E002E03046FFF7C4F9236A1BB120460221DC
S11343F0626A9847F8BD00BFE466000038000020F8
S1134400130002001100020010000200120002005A
S113441000C01FC0150003001500020017000300B0
S113442017000200160003001600020000B583B056
S113443002A901F8010D01200246FFF74FFC03B069
S11344405DF804FBF8B5404B1B7A1BBB01223E4BC5
S11344501A723E4BD3E90045204629460022002328
S113446001F068FC50B1384B01225A7200203849DF
S1134470C3E900012022354B1A72F8BD20462946B3
S11344800022002301F02EFC00285BD003222E4BD7
S11344905A72F8BD2C4B5B7A012B02D0022B1BD035
S11344A0F8BD2A4D287AFFF7C1FF274C0223637217
S11344B0D4E900673046394601F046FC254B1844E0
S11344C010F8013C2B72304639460022204B01F093
S11344D001FAC4E90001F8BD1B4BD3E900671B4B8B
S11344E0D3E900453046394622462B4601F00EFCFE
S11344F0D0B1164D287AFFF799FF134C022363724B
S1134500D4E900673046394601F01EFC114B1844CB
S113451010F8013C2B723046394600220C4B01F056
S1134520D9F9C4E90001F8BD3046394622462B4684
S113453001F000FC30B1054B187AFFF777FF032236
S1134540014B5A72F8BD00BFA0000020B00000204B
S11345500000F03F0867000070B584B00023454AAE
S1134560136045490A4642F8043B4B60043242F862
S1134570043B136041490A4642F8043B4B60043251
S113458042F8043B13603E4DB5F85E40A40004F1CC
S1134590804404F5CA24236843F080432360394EE1
S11345A030460621022200F0F7FB236843F08043E3
S11345B0236030460721022200F0EEFBB5F85A4092
S11345C0A40004F1804404F5CA24236843F0804322
S11345D02360A6F50056304606210A4600F0DCFBAF
S11345E0236843F08043236030460721062200F00D
S11345F0D3FBB5F896304FF08C41234A42F8231090
S11346009B0003F1804303F5CA231A6842F08042F9
S11346101A601E4A01AB07CA83E8070001201C493F
S11346201A46FFF729FD1B4A936923F4002393617B
S1134630936913F4002FFBD1164A936923F4802362
S11346409361936913F4802FFBD1124A536923F0C9
S1134650444323F4FE1343F08063536100200E4966
S1134660054BC3E90001054B00221A725A7204B0CB
S113467070BD00BFC0000020B0000020A0000020DA
S1134680BC65000000B0044000500640F86600001D
S11346904400002000B0064000004840704700BFBE
S11346A0064B0361064B436100238361036243624B
S11346B04FF470328262C362704700BF0400000F7F
S11346C000C01FC010B40C4602B14C1C022C04D113
S11346D0036943F00053036109E0836923F0100385
S11346E043EA04138361036923F0005303615DF813
S11346F0044B7047836901F0FE0223F00203134365
S11347008361836901F0010123F00103194381618D
S1134710704700BF8369C1F3002223F0804343EA5A
S113472082738361C9B20177704700BF836923F044
S11347308043C1F3002243EA827323F00043C1F3B0
S1134740402243EAC2738361C9B20177704700BF54
S11347508369DB0F1B029BB20B80C269D2B2134385
S11347600B8070478369C3F380735B029AB20A803B
S11347708369DB0F42EA03230B80C269D2B213437D
S11347800B80704710B48BB2090C013906292AD862
S1134790DFE801F004290D2929161F00046901210D
S11347A0994024EA01019A400A4302611BE08469AA
S11347B00121994024EA01019A400A43826112E0EE
S11347C0446A0121994024EA01019A400A43426261
S11347D009E0816A21F440340121994024EA01016D
S11347E09A400A4382625DF8044B70470B0C013B0C
S11347F0062B1DD8DFE803F0041C0A1C1C1016004D
S1134800006989B2C84000F001007047806989B22C
S1134810C84000F001007047406A89B2C84000F007
S113482001007047806A89B2C84000F001007047F7
S1134830002070470B0C023B052B1CD8DFE803F06B
S1134840031B091B0F15406989B2C84000F0010021
S11348507047C06989B2C84000F001007047406ADF
S113486089B2C84000F001007047806A89B2C8402C
S113487000F0010070470020704700BF494B994287
S11348802ED011D8033B994248D006D8023B994216
S11348906CD0013399425FD082E0434B994233D0CC
S11348A00133994226D07BE0404B994240D006D850
S11348B00B3B99420AD00A33994243D070E03C4BF7
S11348C0994265D0013399425AD069E0436923F093
S11348D0C02323F4F81343F480134361002070478A
S11348E0436923F0C02323F4F81343F40023436102
S11348F000207047436923F0C02323F4F81343F4E2
S11349008023436100207047436923F0C02323F4CC
S1134910F81343F40033436100207047436923F0E4
S1134920C02323F4F81343F4803343610020704719
S1134930436923F0C02323F4F81343F00043436195
S113494000207047436923F0C02323F4F81343F095
S11349508043436100207047436923F0C02323F45C
S1134960F81343F40043436100207047436923F084
S1134970C02323F4F81343F48043436100207047B9
S1134980836A23F4403343F4003383620020704786
S1134990836A23F4403343F48033836200207047F6
S11349A00120704713000200110002001F000200E2
S11349B01000070038B505460C460A492246FFF7A1
S11349C0E1FE284608492246FFF7DCFE284607494F
S11349D02246FFF7D7FE284605492246FFF7D2FEB6
S11349E038BD00BF1B000300180003001A000300B9
S11349F01900030008B50020FFF7DEFB08BD00BF67
S1134A0008B50120FFF7D8FB08BD00BF08B5022098
S1134A10FFF7D2FB08BD00BF08B5FFF713FD002068
S1134A200121FEF701FE08BD08B5FFF795FD08BD9D
S1134A3008B5FFF707FD08BD10B582B0164BB3F8F3
S1134A408A204FF08C41154B43F82210144A936886
S1134A5043F001039360452001A9FDF7FBFA114CD3
S1134A6000202146FEF7CEFA00200146221DFEF763
S1134A708DFB30200F21FEF72DFA30200A49002249
S1134A80FEF7E2F9064B5969002041F00101FEF7F7
S1134A9017FB02B010BD00BFBC650000005006400B
S1134AA00070034038670000194A000008B54FF051
S1134AB0E022D2F8883D43F47003C2F8883DFEF743
S1134AC001FA00F0A1FDFFF747FDFFF7B5FFFEF780
S1134AD0EBF9FEE7024A136801331360704700BF25
S1134AE07800002030B583B00446002502A941F8BF
S1134AF0045D2846FDF7AEFA0B4A15600B49019B8D
S1134B00A1FB03139B095360956007231360084BB3
S1134B101A681B689B1AA34204D205490B689B1AA6
S1134B209C42FBD803B030BD10E000E0D34D6210CE
S1134B3078000020014B1868704700BF78000020FF
S1134B400020704700207047002070470020704705
S1134B5070B582B004460D46002602A941F8046DE2
S1134B603046FDF777FA184A16601849019BA1FBF5
S1134B7003139B09536096600723136025B92378B8
S1134B8013F0FF0F10D013E0114B19681A4606E01A
S1134B901368B5F1FF3F02D05B1A9D4206D3237818
S1134BA013F0FF0FF4D003E003200AE0032008E031
S1134BB0FEF788F92378013BDBB22370FEF774F922
S1134BC0002002B070BD00BF10E000E0D34D6210C1
S1134BD07800002010B50446FEF774F92378DBB2A0
S1134BE0FF2B05D023780133DBB22370002400E0CF
S1134BF00124FEF759F9204610BD00BF38B504461C
S1134C000D46FEF75FF92570FEF74EF9002038BD1A
S1134C10002070471A4B98421ED1102929D8DFE88A
S1134C2001F0090C28282828282828282828280FB3
S1134C301215180042F00100704742F0020070475C
S1134C4042F00400704742F00800704702F00E0082
S1134C50704702F00D0070470A4B98420BD111B116
S1134C60012903D009E002F00B00704702F00700AD
S1134C707047FF207047FF207047FF20704700BF38
S1134C8000A0044000B0044070B5044600686168A8
S1134C9050F82120237A012B06D013B1022B08D01F
S1134CA009E022F0020206E022F0010242F00202D0
S1134CB001E042F00302637A1D0105F0100322F0C3
S1134CC050051D43A37A9B0103F040031D4325F4C3
S1134CD0E065E37A082B14D12E4B5A6802F00F02D8
S1134CE0FFF798FFFF280BD02A4B5A6822F00F02D7
S1134CF05A605A6800F00F0010435860002300E027
S1134D0000231B0203F4E0631D43237BDB039BB2FC
S1134D1025F478251D43637B1B0403F470231D4392
S1134D20A37B0BB145F080752368626843F8225079
S1134D302068D0F8C01065680123AB4021EA030263
S1134D40E37BAB401343C0F8C030E37A012B1FD19F
S1134D5021694B69227D12B1012A06D00AE06168FB
S1134D6001228A4023EA020310E0606801228240A3
S1134D70134301E0012A09D10D6866680122B2409B
S1134D8025EA0200627DB24002430A60226953614F
S1134D9070BD00BF0080044070B505460E4650F853
S1134DA02140082A14D10F4B5A6802F00F02FFF772
S1134DB031FFFF280BD00B4B5A6822F00F025A60C8
S1134DC05A6800F00F0010435860002200E00022EF
S1134DD024F4E064120202F4E062224345F826203F
S1134DE070BD00BF0080044022F4F14222F02C0286
S1134DF092B21BB110B4012B05D008E042EA014283
S1134E00C0F88020704742EA0142C0F884205DF86F
S1134E10044B7047120402F470221BB110B4012B2E
S1134E2004D006E00A43C0F8882070470A43C0F85B
S1134E308C205DF8044B70472DE9F04F83B08379E3
S1134E40012B03D073B1022B06D011E0204B1E7B43
S1134E50022740F2031B0FE01D4B1E7B01274FF47A
S1134E60827B09E01A4B1E7B022740F2031B03E0FE
S1134E7001274FF0000B5E4600230B7006B39146EA
S1134E800C4680469A46124DCDF804B0AA6852F8F2
S1134E90233073B11A79BA420BD01A684046996824
S1134EA0904730B123786B73B9F1010F0BD1DDF862
S1134EB004A023780133DBB223709E42E6D803E0DA
S1134EC04FF0000A00E0DA46504603B0BDE8F08F28
S1134ED0C400002010B5094C206021710021A17389
S1134EE022B11146A1602373637304E0034B0022D3
S1134EF09A601A735A7300F0DDF810BDC4000020E4
S1134F0008B5044B00221A601A719A601A7300F0F3
S1134F1011F908BDC4000020044B9A7B0270587B31
S1134F201B7BC01A18BF0120704700BFC4000020BB
S1134F30054B1A68997B52F821200260587B1B7B31
S1134F40C01A18BF01207047C4000020014B587BD1
S1134F50704700BFC4000020054B5A7B1B7B934263
S1134F6083BF034B9B6853F822000020704700BFA7
S1134F70C4000020F0B585B006460C4600238DF829
S1134F800F301B4B1A6852F820701A7B5A738DF835
S1134F9009108DF80800019701238DF80A3001A843
S1134FA00DF10F012246FFF747FF012C01D0054602
S1134FB088B9384600F0D2F8054660B90C4B9E73A8
S1134FC002238DF80A3001A80DF10F010122FFF729
S1134FD033FF054608E000238DF80A3001A80DF1DF
S1134FE00F010122FFF728FF284605B0F0BD00BFDE
S1134FF0C40000200123037000234370704700BFE6
S1135000124BD3F8003623F00103114A12780AB187
S113501043F001030D4AC2F80036D2F8003323F0FE
S113502001030B4A52780AB143F00103074AC2F85C
S11350300033D2F8003123F00103054A92780AB113
S113504043F00103014AC2F80031704700400640B2
S11350507C000020094BD3F8002622F00102C3F89B
S11350600026D3F8002122F00102C3F80021D3F86E
S1135070002322F00102C3F80023704700400640D9
S11350800378042B11D000B583B004238DF80030CD
S11350900123ADF802300223ADF80430ADF8063038
S11350A000206946FCF734FD01E00020704703B09E
S11350B05DF804FB30B583B000238DF805308DF81E
S11350C00430184B1C79A4B1196804390023012554
S11350D051F8042F107808B98DF805501278022A77
S11350E001D0052A01D18DF804500133DAB294427B
S11350F0EED80D4801A900F07BFA0C4AD2F800164C
S11351000B4B01F001011970D2F8001301F00101F9
S11351105970D2F8002102F001029A70002003B005
S113512030BD00BFC400002000E00740004006403E
S11351307C00002000207047074B5B69DBB2042B26
S113514006D0802B06D0012B0CBF0120062070470F
S1135150022070470020704700E0074030B583B05C
S113516005460378022B00F2C680AE4A5269D2B2D9
S1135170042A00F0378106D8012A00F04881022A67
S113518000F02E8158E1102A00F05481802A40F06A
S11351905381012B4CD0002B00F0A180022B6BD04B
S11351A004245DE102A9012301F8083D9D4800F0B3
S11351B0C5F90446002840F053819B4BDB69C3F3D7
S11351C00363062B14BF00230123984A127832B9D3
S11351D0964A5278002A40F00F81012440E113B925
S11351E0924B5B7803B3914BDB78A3B1FFF708FFD5
S11351F000208F49FCF78CFC0446002840F03081E5
S113520000238A4AD37002A901F8043D854800F0BE
S113521095F9044624E102A9002301F8043D8148DC
S113522000F08CF904461BE1012419E1012417E183
S1135230802302E0042300E00123012B0AD002A909
S1135240012301F8083D774800F078F90446002866
S113525040F00681754BDB78002B42D0FFF7D0FE7F
S113526000207349FCF754FC0446002840F0F88001
S113527000226E4BDA70F3E0802202E0042200E0A8
S11352800122042A2FD0674B5B69DBB2012B0AD0C1
S113529002A9012301F8083D624800F04FF90446D1
S11352A0002840F0DD80614BDB7813B96048FCF7DF
S11352B0B7FC5F48FFF7E4FE0446002840F0D080C6
S11352C001225A4BDA7002AC022304F8083DFFF7BE
S11352D0C1FE5448214600F031F90446C0E00024E0
S11352E0BEE00024BCE00024BAE00424B8E00424B6
S11352F0B6E00424B4E04B4A5269D2B2012A03D086
S1135300042A40F0A4807BE0032B63D3042B0BD945
S1135310052B14D05EE002A9012301F8043D4148A5
S113532000F00CF9044600E000242B788DF80430DA
S1135330032B0CBF012302238DF805302BE001233E
S113534000E00423012B0AD0042B08D002A9012376
S113535001F8043D334800F0F1F80446C0B9FFF702
S1135360EBFE012813D1314BDB7813B93048FCF73D
S113537057FC2F48FFF784FE044648B901222B4B03
S1135380DA7005238DF80430FFF764FE00E0002492
S113539005238DF80430002C62D16B7843B14FF0B3
S11353A0E022D2F8103D43F00203C2F8103D07E0BA
S11353B04FF0E022D2F8103D23F00203C2F8103D72
S11353C0184801A900F0BAF840F20113002818BFE8
S11353D01C4645E0042443E0042441E004243FE067
S11353E002222AE0012B3FF425AF002B3FF4DAAE72
S11353F0022B3FF443AF78E7002B7FF417AFF2E6BC
S1135400032BE9D3042B86D9052B9AD0E4E7012B8F
S11354103FF412AF002B3FF4D0AE022B3FF430AF79
S113542065E700BF00E00740004006407C00002024
S113543080000020102200E0FF22012B3FF4FFAE89
S1135440002B3FF4AFAE022B3FF41BAF51E7032B0D
S1135450C4D3042B7FF65FAF052B3FF477AFBDE7D2
S1135460204603B030BD00BF806801390C2929D81B
S1135470DFE801F0070A0D28101316191C1F222853
S11354802500C0F340007047C0F380007047C0F3AC
S1135490C0007047C0F340107047C0F380107047DD
S11354A0C0F3C0107047C0F300207047C0F3402021
S11354B07047C0F380207047C0F3C0207047C0F32A
S11354C040307047002070472DE9F041802902D018
S11354D000246AB303E06423013BFDD1F8E7002410
S11354E04FF004084FF0FF0C4FF0100E80270126F8
S11354F002254369DBB2042B0CD004D8012B11D054
S1135500022B05D00CE0102B06D0802B06D007E030
S11355102B4608E0434606E0734604E03B4602E0BF
S1135520634600E03346994202D001349442E0D10C
S113553094422CBF00200120BDE8F08108B50B780F
S1135540052B52D8DFE803F0230312323232C3684A
S113555023F06003C36001214FF47A72FFF7B4FFB4
S1135560002840F2011018BF002008BDC36823F0D2
S1135570600343F04003C36004214FF47A72FFF7E1
S1135580A3FF002840F2011018BF002008BDC36823
S113559043F06003C36080214FF47A72FFF794FFF5
S11355A0002840F2011018BF002008BD033BDBB205
S11355B0012B09D8036923F0C0024B789B01DBB2AD
S11355C013430361002200E00222C36823F00703AF
S11355D01343C3604FF0E022D2F8103D43F00403BC
S11355E0C2F8103D30BF002008BD042008BD00BF34
S11355F00B78002B0CBF002320234A780AB143F018
S113560080038360704700BF30B5A5B006AD28465F
S11356100021782200F08EFE01248DF818408DF8C8
S113562019408DF81A408DF81B408DF81D408DF8F7
S113563020408DF821408DF824408DF82640304BD1
S11356400A938DF82D4003238DF82F308DF83040C8
S11356508DF831408DF8354004228DF83A208DF8CC
S11356603C408DF83D308DF840408DF848408DF831
S11356704C308DF84D408DF84E308DF84F40062259
S11356808DF851208DF852308DF8544002218DF858
S113569055108DF856308DF857408DF859208DF8F7
S11356A05B408DF85C408DF860408DF861408DF86A
S11356B063408DF864408DF88C408DF88D400595DD
S11356C00025049505A8214604AA2B46FCF730FCC6
S11356D028462946FCF73AFC8DF80C408DF80D500D
S11356E003AB0293019502A8214601AA2B46FFF7BA
S11356F0F1FB28462946FFF73DFC25B030BD00BF2D
S113570000127A00013820F07F40034B58600022D9
S11357109A6007221A60704710E000E0264B274A7F
S11357209A4208D01346264A234813F8011B02F86C
S1135730011B8342F9D1234B234A9A4208D01346D2
S1135740224A204813F8011B02F8011B8342F9D1B5
S11357501F4B204A9A4206D0134600211C4A03F8E4
S1135760011B9342FBD11C4B1C4A9A4208D013469E
S11357701B4A194813F8011B02F8011B8342F9D193
S1135780184B194A9A4210D010B4184CA40808D0E7
S11357901946002351F8040B42F8040B0133A342C9
S11357A0F8D1134B104A1A6003E0114B0D4A1A60EA
S11357B070475DF8044B7047646C00008867000014
S11357C00084FF1F646C0000646C0000DC88FF1F11
S11357D0D400002000000020646C0000646C000011
S11357E000000020000000000080FF1F00040000F3
S11357F008ED00E04FF0E023D3F8882D42F4700266
S1135800C3F8882DD3F8342F22F08042C3F8342F04
S1135810054B064A5A605A6842F220121A604FF643
S1135820FF729A60704700BF0020054020C528D948
S11358301B4B1A691B69C3F30363013B052B2DD86A
S1135840DFE803F024030D2C2C12154BD3F8083297
S113585003F00103002B134B08BF002317E0104B88
S1135860D3F80833104B12E00D4BD3F80806D3F8E5
S11358700816C1F3044110310A4B03FB01F1C0F3D4
S1135880022301335B00B1FBF3F300E0054BC2F3E9
S113589003420132B3FBF2F2044B1A60704700BFBB
S11358A00040064000127A00006CDC02AC84FF1F4A
S11358B04FF0E021D1F80C2D92B2024B1343C1F802
S11358C00C3D70470400FA0581F0004102E000BF7E
S11358D083F0004330B54FEA41044FEA430594EAAC
S11358E0050F08BF90EA020F1FBF54EA000C55EAE7
S11358F0020C7FEA645C7FEA655C00F0E2804FEAB8
S11359005454D4EB5555B8BF6D420CDD2C4480EA99
S1135910020281EA030382EA000083EA010180EAC9
S1135920020281EA0303362D88BF30BD11F0004F17
S11359304FEA01314FF4801C4CEA113102D040424D
S113594061EB410113F0004F4FEA03334CEA133388
S113595002D0524263EB430394EA050F00F0A780A0
S1135960A4F10104D5F1200E0DDB02FA0EFC22FA9B
S113597005F2801841F1000103FA0EF2801843FA8F
S113598005F359410EE0A5F120050EF1200E012A80
S113599003FA0EFC28BF4CF0020C43FA05F3C018BE
S11359A051EBE37101F0004507D54FF0000EDCF137
S11359B0000C7EEB00006EEB0101B1F5801F1BD3E0
S11359C0B1F5001F0CD349085FEA30004FEA3C0CE4
S11359D004F101044FEA445212F5800F80F09A80DA
S11359E0BCF1004F08BF5FEA500C50F1000041EBDE
S11359F0045141EA050130BD5FEA4C0C404141EBE2
S1135A00010111F4801FA4F10104E9D191F0000F08
S1135A1004BF01460020B1FA81F308BF2033A3F18B
S1135A200B03B3F120020CDA0C3208DD02F1140C82
S1135A30C2F10C0201FA0CF021FA02F10CE002F1BD
S1135A401402D8BFC2F1200C01FA02F120FA0CFCB6
S1135A50DCBF41EA0C019040E41AA2BF01EB0451FF
S1135A60294330BD6FEA04041F3C1CDA0C340EDCFD
S1135A7004F11404C4F1200220FA04F001FA02F340
S1135A8040EA030021FA04F345EA030130BDC4F1FE
S1135A900C04C4F1200220FA02F001FA04F340EAF3
S1135AA00300294630BD21FA04F0294630BD94F0A4
S1135AB0000F83F4801306BF81F480110134013D8B
S1135AC04EE77FEA645C18BF7FEA655C29D094EAFC
S1135AD0050F08BF90EA020F05D054EA000C04BF7A
S1135AE01946104630BD91EA030F1EBF0021002065
S1135AF030BD5FEA545C05D14000494128BF41F004
S1135B00004130BD14F580043CBF01F5801130BD67
S1135B1001F0004545F0FE4141F470014FF00000F2
S1135B2030BD7FEA645C1ABF194610467FEA655CA3
S1135B301CBF0B46024650EA013406BF52EA033545
S1135B4091EA030F41F4002130BD00BF90F0000F33
S1135B5004BF0021704730B54FF4806404F132046F
S1135B604FF000054FF0000150E700BF90F0000F28
S1135B7004BF0021704730B54FF4806404F132044F
S1135B8010F0004548BF40424FF000013EE700BF1F
S1135B9042004FEAE2014FEA31014FEA02701FBFAF
S1135BA012F07F4393F07F4F81F06051704792F081
S1135BB0000F14BF93F07F4F704730B54FF46074FB
S1135BC001F0004521F0004120E700BF50EA010246
S1135BD008BF704730B54FF000050AE050EA0102F3
S1135BE008BF704730B511F0004502D5404261EB63
S1135BF041014FF4806404F132045FEA915C3FF4A4
S1135C00DCAE4FF003025FEADC0C18BF03325FEA3C
S1135C10DC0C18BF033202EBDC02C2F1200300FAF1
S1135C2003FC20FA02F001FA03FE40EA0E0021FA16
S1135C3002F11444C1E600BF4FF0FF3C06E000BF90
S1135C404FF0010C02E000BF4FF0010C4DF804CD01
S1135C504FEA410C7FEA6C5C4FEA430C18BF7FEAC1
S1135C606C5C1BD001B050EA410C0CBF52EA430CEF
S1135C7091EA030F02BF90EA020F0020704710F16F
S1135C80000F91EA030F58BF994208BF90422CBFFE
S1135C90D8176FEAE37040F0010070474FEA410CF7
S1135CA07FEA6C5C02D150EA013C07D14FEA430C15
S1135CB07FEA6C5CD6D152EA033CD3D05DF8040B86
S1135CC0704700BF8446104662468C4619466346B8
S1135CD000E000BF01B5FFF7B7FF002848BF10F18F
S1135CE0000F01BD4DF808EDFFF7F4FF0CBF0120D4
S1135CF000205DF808FB00BF4DF808EDFFF7EAFF50
S1135D0034BF012000205DF808FB00BF4DF808ED0A
S1135D10FFF7E0FF94BF012000205DF808FB00BFFF
S1135D204DF808EDFFF7CEFF94BF012000205DF889
S1135D3008FB00BF4DF808EDFFF7C4FF34BF012096
S1135D4000205DF808FB00BF4FEA410212F5001283
S1135D5015D211D56FF47873B3EB625212D94FEAAE
S1135D60C12343F0004343EA505311F0004F23FA98
S1135D7002F018BF404270474FF00000704750EAED
S1135D80013005D111F0004008BF6FF000407047AA
S1135D904FF00000704700BF53B94AB9002908BF4B
S1135DA000281CBF4FF0FF314FF0FF3000F03CB82B
S1135DB082B0EC462DE9005000F01EF8DDF804E056
S1135DC002B00CBC704700BF2DE9F041069C15469B
S1135DD006460F46984600F029F805FB01F300FB40
S1135DE00838A5FB0023B21A434467EB0303C4E954
S1135DF00023BDE8F08100BF2DE9F041069C9046E8
S1135E0006460F461D4600F05FF900FB05F5A0FBB2
S1135E10082308FB0155B21A2B4467EB0303C4E9BA
S1135E200023BDE8F08100BF704700BF00292DE9C1
S1135E30F043C0F2A6800026002BC0F29C80884666
S1135E4094469E46154604460F46002B3DD18A4291
S1135E5059D9B2FA82F33BB1C3F120029F4020FA30
S1135E6002F29D4017439C40290C220CB7FBF1FE23
S1135E70A8B201FB1E7742EA074700FB0EF3BB42C0
S1135E800AD97F190EF1FF3280F00581BB4240F23E
S1135E900281AEF1020E2F44FF1AA4B2B7FBF1F354
S1135EA001FB137744EA074700FB03F0B84208D923
S1135EB07F1903F1FF3280F0F080B84240F2ED80A8
S1135EC0023B43EA0E43002203E08B420FD9002237
S1135ED01346341C18BF012460424FF0000565EBE3
S1135EE045015840514000196941BDE8F083B3FAB7
S1135EF083F2002A40F086808B4202D3844500F26C
S1135F00DB800123E5E712B90123B3FBF2F5B5FA0F
S1135F1085F000283BD1781B4FEA154E1FFA85FC0B
S1135F200122B0FBFEF8210C0EFB180741EA0747DB
S1135F300CFB08F3BB4207D97F1908F1FF3102D2E9
S1135F40BB4200F2BD808846FF1AA4B2B7FBFEF341
S1135F500EFB137744EA07470CFB03FCBC4507D947
S1135F607F1903F1FF3102D2BC4500F2A7800B4632
S1135F7043EA0843ADE752426FEA060663EB430384
